:020000040800F2
:10000000D80A0020E1020008E90200089907000868
:10001000ED020008EF020008F102000800000000F5
:10002000000000000000000000000000F3020008D3
:10003000F502000800000000F7020008B7070008FA
:10004000FB020008FB020008FB020008FB0200089C
:10005000FB020008FB020008FB020008FB0200088C
:10006000FB020008C5070008FB020008FB020008AD
:10007000FB020008FB020008FB020008FB0200086C
:10008000FB020008FB020008FB020008FB0200085C
:10009000FB020008FB020008FB020008412C0008DC
:1000A000FB020008FB020008FB020008FB0200083C
:1000B000FB02000825030008FB020008FB02000801
:1000C000FB020008FB020008FB020008FB0200081C
:1000D000FB020008FB020008DB2E0008FB02000800
:1000E000572C0008FB020008FB020008DFF80CD0C8
:1000F00003F0F6FC004800479B040008D80A0020E3
:100100000CB50020019000906C48006840F48030ED
:100110006A49086000BF6948006800F40030009038
:100120000198401C0190009818B90198B0F5A06F93
:10013000F1D16248006800F4003010B10120009055
:1001400001E0002000900098012843D15C4800683D
:1001500040F010005A4908600846006820F003008B
:1001600008600846006840F0010008605348406895
:10017000524948600846406848600846406840F474
:10018000806048600846406820F47C10486008465B
:10019000406840F4881048600846006840F080706D
:1001A000086000BF4548006800F000700028F9D0E2
:1001B0004248406820F003004049486008464068D3
:1001C00040F00200486000BF3C48406800F00C006E
:1001D0000828F9D10CBD10B5FFF792FF10BD10B57E
:1001E0003648006840F0010034490860084640681D
:1001F000344908403149486008460068324908409F
:100200002E4908600846006820F4802008600846EF
:10021000406820F4FE0048604FF41F008860FFF73C
:10022000DAFF4FF000602949086010BD10B50021C9
:1002300000200022214B5B6803F00C0121B104294E
:1002400006D0082928D107E0214B224C236027E063
:100250001F4B204C236023E0184B5B6803F47010A5
:10026000164B5B6803F48032022303EB904022B903
:10027000194B4343174C23600DE0104B5B6803F4AC
:10028000003323B1144B4343124C236003E0104B63
:100290004343104C236003E00D4B0E4C236000BF22
:1002A00000BF064B5B68C3F303130C4CE15C094BC6
:1002B0001B68CB40074C236010BD000000100240BB
:1002C000002002400000FFF8FFFFF6FE08ED00E00E
:1002D00000127A000000002000093D000400002008
:1002E0000648804706480047FEE7FEE7FEE7FEE7D0
:1002F000FEE7FEE7FEE7FEE7FEE7FEE7DF010008B8
:10030000ED00000838B505460C46ADF80040102059
:100310008DF8030003208DF802006946284600F09E
:1003200003FF38BD10B50121054802F016F928B1C8
:100330000121034802F022F902F0EFFE10BD000097
:100340000004004010B50446954802F0D7FC002890
:1003500045D194480078012812D1934800780428A8
:1003600002D10020904908708F480078022833D1CC
:100370008E4890F8C200401C8C4981F8C2002BE0E6
:1003800088480078022815D18748007838B90120BC
:10039000864981F8C2000220834908701CE0824827
:1003A0000078022818D100207F4908700120804978
:1003B000087011E07B48007805280DD17A48007854
:1003C00018B904207849087006E0774800780428B6
:1003D00002D100207449087000207249087010BDD5
:1003E00010B50446012C11D16D4802F087FC18B9F4
:1003F00001206C49087004E06A480078401C694993
:1004000008704FF4FA71664802F06DFC10BD10B52B
:1004100045F2555002F0B6F8032002F0B6F840F667
:10042000FF7002F0B5F802F0B6F802F0B9F810BDAE
:1004300010B57A2001F009F87B2001F006F87C2045
:1004400001F003F87D2001F000F87E2000F0FDFFB0
:100450007F2000F0FAFF01F061F910BD10B5012016
:1004600000F024FB4FF42011002001F033F80120AC
:1004700001F03CF800BF392000F0E7FF0028FAD077
:10048000022001F036F8002001F041F8002001F0D0
:1004900047F8002001F04DF810BD1CB5FFF7DEFF56
:1004A00062B601213D2001F0FBF80121414800F036
:1004B0000CFF414800684FF47A72B0FBF2F1B1F1E1
:1004C000807F01D301201DE021F07F40401E4FF0CE
:1004D000E022506150170F22002807DA13071D0E83
:1004E000364B00F00F04241F1D5503E013071C0EAC
:1004F000334B1C5400BF00204FF0E02290610720D6
:100500001061002088B172B600BF2C480C3800681A
:1005100000F4E0602B490843001D28490C390860AD
:10052000BFF34F8F00BF00BFFEE74FF416512248C4
:10053000006802F025FC00F0ABF8FFF779FFFFF749
:1005400066FF00F053F902F06FFE02F094FD02F036
:10055000C7F8AFF20F20AFF2771100234FF400621B
:10056000CDE900101849194802F038FA4FF4FA7131
:100570000B4802F0B8FB09E002F0CDF900F0EFF80B
:1005800000F03AF903F014F802F005F8F4E701B5C9
:1005900000BF0098411E00910028FAD108BD00005C
:1005A00064020020140000201800002070020020C7
:1005B00016000020000230000000002018ED00E0CE
:1005C00000E400E00000FA0500080140A805002052
:1005D00010B540F201126749674803F06FF810BD8B
:1005E0002DE9F04740F201126349624803F091F8A7
:1005F00008B9BDE8F08772B6DFF87C9100250024C9
:1006000004E019F804000544601C04B2FD2CF8D382
:100610005948C0F8FD5000F068FA00240DE0554933
:1006200001EB842000F0A6FA0746042F03D000F067
:1006300068FA62B6DDE7601C04B2002CEFD04E4EC3
:1006400000241DE0A046E21704EB9272921056F8C7
:100650002210484AA01800F05DFB0746E11704EBA2
:100660009171891056F82110444A2244D2F8002C86
:10067000914203D000F045FA62B6BAE7201D04B2F9
:10068000B4F5807FDED900F03CFA62B600BFB0E777
:100690002DE9F0410026002540F201123549364887
:1006A00003F00CF8344F00BF002403E0385D05442C
:1006B000601C04B2FD2CF9D32F48D0F8FD00A842ED
:1006C00000D001262C48008840F20111884203D056
:1006D0000846294908800126274890F8C200FF28CB
:1006E00004D10120244981F8C200012622488078E3
:1006F000FF280AD140212048801C02F0F8FF20A1E9
:100700001D48801C03F012F801261B4890F8420097
:10071000FF280AD140211848423002F0E8FF18A112
:100720001548423003F002F801260EB1FFF758FFDA
:10073000BDE8F08110B5014600230C4600BF002241
:1007400003E0A05C0344501C02B2FD2AF9D3D1F8A7
:10075000FD00984201D0002010BD0120FCE710B53B
:100760000C48007820B100200A490870FFF738FFD4
:1007700010BD000000FC00087002002000F000081E
:10078000494B592042454E2042414E204B4849207A
:1007900043414E001600002000BF1048006800F4DE
:1007A000E0600F490843001D0C490860BFF34F8FFC
:1007B00000BF00BFFEE710B502F062FA094802F080
:1007C0008DF910BD10B5082001F070FF28B101208F
:1007D00005490870082001F07AFF10BD0CED00E01B
:1007E0000000FA05A80500204400002010B564218F
:1007F000664802F078FA10BD2DE9F0410025012687
:10080000624802F07BFA08B1BDE8F081FA215F4846
:1008100002F069FA5E48007805287DD2DFE800F032
:1008200003148496AD005B495B4802F07FFF012012
:100830005949491E087059A15748403003F080FBC0
:100840000120534908709DE002F03EFA56490968BC
:10085000451A56480068854203D90020544908606B
:1008600004E052480068401B514908605048006845
:1008700018B900204649087084E0002408E0454883
:100880004030005D202801D0002607E0601C84B2C3
:100890004048403002F036FFA042F0D800BF26B1F9
:1008A0003C493D4802F042FF04E03A4940313A48B1
:1008B00002F03CFF3E480068B0F5616F16D23C483C
:1008C00000683C21B0FBF1F201FB120738480068D8
:1008D000B0FBF1F0B0FBF1F201FB12083B464246DF
:1008E00034A12D48403003F02BFB1CE03048006859
:1008F0003C21B0FBF1F0B0FBF1F201FB12072C48F8
:100900000068B0FBF1F0B0FBF1F01821B0FBF1F2A0
:1009100001FB12083B4600E030E0424625A11E489C
:10092000403003F00DFB2DE01A48801E90F8C220E5
:1009300023A1194803F004FB00201749491E087041
:1009400016A11548403003F0FBFA1BE01F4802F0E7
:10095000D5F918B900200E49087013E00D4980310F
:100960000D4802F0E3FE01200B49491E08700BA15F
:100970000948403003F0E4FA04E003E000200449B1
:10098000087000BF00BF00BF3EE7000080030020EA
:1009900018000020720200204506002020202020A0
:1009A0002020202000000000240000201C00002047
:1009B000200000202532643A253032640000000017
:1009C00049443A253032642020000000740300209E
:1009D00031490143314A1160704770B5002100234D
:1009E0000F22C47804B32D4C246804F4E064C4F5E9
:1009F000E064210AC1F10403CA40447804FA03F117
:100A00008478144021430901254C0678A1550478C7
:100A100004F01F050124AC4005786D11AD0005F10F
:100A2000E025C5F8004109E0047804F01F05012421
:100A3000AC401C4D0678761145F8264070BD1A4A28
:100A40000A400243154B1B1F1A60704739B1134A05
:100A5000121D12680243114B1B1D1A6006E00F4A5B
:100A6000121D126882430D4B1B1D1A60704704282B
:100A700008D14FF0E021096941F004014FF0E02274
:100A8000116107E04FF0E021096921F004014FF006
:100A9000E0221161704700000000FA050CED00E053
:100AA00000E400E080E100E080FFFF1F014600203D
:100AB000FE4A106800F03800084310607047FB4998
:100AC000096821F00801F94A1160114609680143DB
:100AD00011607047F549096821F01001F34A11606F
:100AE00011460968014311607047F148EF494860B9
:100AF000F04848607047EE48EC494860ED4848606F
:100B00007047EA48006940F08000E8490861704792
:100B1000E648006940F08000E4490861704704201D
:100B2000E249C96801F0010109B101200EE0DF4985
:100B3000C96801F0040109B1022007E0DB49C96876
:100B400001F0100109B1032000E00420704700B556
:100B500002460423FFF7E3FF034603E0FFF7DFFF4E
:100B60000346521E012B01D1002AF7D102B90523F9
:100B7000184600BD30B5044604254FF43020FFF779
:100B8000E6FF0546042D17D1C848006940F0020071
:100B9000C649086108464461006940F040000861A8
:100BA0004FF43020FFF7D3FF0546C048006941F6F7
:100BB000FD710840BD490861284630BD10B50424C8
:100BC0004FF43020FFF7C3FF0446042C16D1B7487A
:100BD000006940F00400B54908610846006940F02A
:100BE000400008614FF43020FFF7B1FF0446AF48E2
:100BF000006941F6FB710840AC490861204610BD10
:100C000000B502460423FFF78AFF034603E0FFF71F
:100C100086FF0346521E012B01D1002AF7D102B9EB
:100C20000523184600BD10B504244FF43020FFF70B
:100C3000E7FF0446042C16D19C48006940F00400EC
:100C40009A4908610846006940F0400008614FF485
:100C50003020FFF7D5FF04469448006941F6FB7148
:100C6000084092490861204610BD00208F49C9699B
:100C700001F0020109B1012000E00020704730B509
:100C8000A5250424FFF7F1FF00B100254FF4302023
:100C9000FFF75DFF0446042C3AD1854883498860FC
:100CA000844888600846006940F0200008610846D2
:100CB000006940F0400008614FF43020FFF747FF23
:100CC0000446042C1BD17948006941F6DF710840C5
:100CD000764908610846006940F0100008617648CE
:100CE0000580E002FFF733FF0446052C10D06F4863
:100CF000006941F6EF7108406C49086108E0052C75
:100D000006D06A48006941F6EF71084067490861FA
:100D1000204630BD78B506460C46042500200090DC
:100D2000E802FFF714FF0546042D24D15F4800694F
:100D300040F001005D4908613480E802FFF707FFD9
:100D40000546042D10D1B01C0090200C009908809D
:100D5000E802FFF7FCFE05465448006941F6FE71C3
:100D600008405249086106E05048006941F6FE71AA
:100D700008404E490861284678BD70B504460D46C6
:100D80000426F002FFF7E3FE0646042E11D1474881
:100D9000006940F00100454908612580F002FFF735
:100DA000D6FE06464148006941F6FE7108403F49BB
:100DB0000861304670BD70B505460E460424E00259
:100DC000FFF7C5FE0446042C17D13948374988601F
:100DD000384888600846006940F0100008612E809D
:100DE000E002FFF7B4FE0446052C06D02F48006948
:100DF00041F6EF7108402D490861204670BD2DE98C
:100E0000F04304464FF6FF763746B046B146042518
:100E1000E443E6B2C4F30727C4F307484FEA146972
:100E2000E802FFF794FE0546042D49D120481F49EA
:100E30008860204888600846006940F0100008611A
:100E4000FF2E06D01C4808300680E802FFF77FFE20
:100E50000546042D08D1FF2F06D017480A30078019
:100E6000E802FFF774FE0546042D0AD1B8F1FF0F22
:100E700007D011480C30A0F80080E802FFF767FEA9
:100E80000546042D0AD1B9F1FF0F07D00A480E30EC
:100E9000A0F80090E802FFF75AFE0546052D0FD096
:100EA0000248006941F6EF71084007E00020024067
:100EB00023016745AB89EFCD00F8FF1F6649086144
:100EC0002846BDE8F08330B5054604244FF43020B1
:100ED000FFF73DFE0446042C41D160485E4988601E
:100EE0005F4888600846006940F0200008610846B5
:100EF000006940F0400008614FF43020FFF727FE02
:100F00000446042C22D15448006941F6DF710840A0
:100F1000514908610846006940F0100008611DB1A0
:100F200000205049088002E0A5204E4908804FF477
:100F30003020FFF70CFE0446052C10D0464800690F
:100F400041F6EF7108404449086108E0052C06D0DD
:100F50004148006941F6DF7108403F490861204679
:100F600030BDF0B505460E46174604243B483A49C5
:100F700088603B488860E002FFF7E9FD0446042CE6
:100F800019D13548006940F010003349086147F035
:100F9000F800304328433349891C0880E002FFF7FA
:100FA000D6FD0446052C06D02B48006941F6EF71AA
:100FB0000840294908612046F0BD2748C0698008DB
:100FC00070472548006A704700202349096801F0EE
:100FD000200109B1012000E00020704729B11E4A1C
:100FE000126902431C4B1A6104E01B4A12698243D6
:100FF000194B1A61704701460020012908D1164A91
:10100000D26902F001020AB1012008E0002006E0E6
:10101000114AD2680A400AB1012000E0002070475E
:101020000D49C860704704200B49C96801F00101EF
:1010300009B101200EE00849C96801F0040109B1B5
:10104000022007E00449C96801F0100109B103203A
:1010500000E00420704700000020024023016745A3
:10106000AB89EFCD00F8FF1F10B50446CC48844291
:1010700008D10121042000F02DFB0021042000F004
:1010800029FB46E0C748844208D10121082000F02E
:1010900021FB0021082000F01DFB3AE0C2488442F9
:1010A00008D10121102000F015FB0021102000F0D4
:1010B00011FB2EE0BD48844208D10121202000F020
:1010C00009FB0021202000F005FB22E0B848844203
:1010D00008D10121402000F0FDFA0021402000F05D
:1010E000F9FA16E0B348844208D10121802000F0CB
:1010F000F1FA0021802000F0EDFA0AE0AE488442C7
:1011000007D10121801500F0E5FA0021A01500F0BB
:10111000E1FA10BD10B50121084600F0DBFA00210C
:10112000012000F0D7FA10BD2DE9F041024600255C
:101130000026002000230024002791F803C00CF0B3
:101140000F0591F803C00CF0100CBCF1000F03D098
:1011500091F802C04CEA050591F800C0BCF1000FFF
:1011600031D0146800202BE04FF0010C0CFA00F392
:10117000B1F800C00CEA03069E4220D183004FF074
:101180000F0C0CFA03F7BC4305FA03FC4CEA040409
:1011900091F803C0BCF1280F06D14FF0010C0CFAF6
:1011A00000FCC2F814C00AE091F803C0BCF1480F7B
:1011B00005D14FF0010C0CFA00FCC2F810C0401C25
:1011C0000828D1D31460B1F800C0BCF1FF0F34DDA2
:1011D000546800202EE000F1080C4FF0010808FAD6
:1011E0000CF3B1F800C00CEA03069E4221D1830043
:1011F0004FF00F0C0CFA03F7BC4305FA03FC4CEA62
:10120000040491F803C0BCF1280F05D100F1080CCB
:1012100008FA0CF8C2F8148091F803C0BCF1480F2A
:1012200007D100F1080C4FF0010808FA0CF8C2F8D9
:101230001080401C0828CED35460BDE8F0814FF6E2
:10124000FF710180022181700421C1707047024644
:10125000002093680B400BB1012000E00020704794
:101260000146886880B2704702460020D3680B4070
:101270000BB1012000E0002070470146C86880B231
:10128000704701617047416170470AB1016100E038
:1012900041617047C16070474FF480320A438261F8
:1012A0008161826182698269704702460020434BF6
:1012B00018684FF68073184040EA021008433F4B0D
:1012C000186070473E49C8617047F0B50A46002370
:1012D00000240021002500F00046B6F1004F02D1A5
:1012E000364EF16901E0354E7168C0F3034583B2B3
:1012F00000F44016B6F5401F08D121F070612F4E62
:10130000766826F070662D4F7E6012E000F480163D
:10131000B6F5801F06D1032606FA05F4A14341F075
:10132000706106E0460D360103FA06F6B14341F05E
:10133000706122B1460D360103FA06F6314300F022
:101340000046B6F1004F02D11C4EF16101E01B4E88
:101350007160F0BD30B500228B071C0F0F2303FA1C
:1013600004F2164B08338C1053F824309343134C7B
:1013700008348D1044F8253023468C1053F824305F
:101380008C07240F00FA04F423430C4C08348D100E
:1013900044F8253030BD0A49DC3108607047000050
:1013A00000080140000C0140001001400014014001
:1013B00000180140001C01400020014000000140D5
:1013C00000002042DF48006840F00100DD4908606D
:1013D00008464068DC490840DA4948600846006829
:1013E000DA490840D74908600846006820F48020A0
:1013F00008600846406820F4FE0048604FF41F0073
:1014000088607047CF49096821F48031CD4A116066
:101410001146096821F480211160B0F5803F03D0A6
:10142000B0F5802F0ED106E0C649096841F480313D
:10143000C44A116007E0C349096841F4A021C14AC8
:10144000116000E000BF00BF704710B501460022E8
:10145000002300204A11012A02D1BA4C236806E079
:10146000022A02D1B74C236A01E0B64C636A01F04C
:101470001F02012494401C400CB1012000E0002018
:1014800010BD38B5002000900024002500BF312099
:10149000FFF7DBFF05460098401C00900098B0F570
:1014A000A06F01D0002DF2D03120FFF7CEFF08B1A0
:1014B000012400E00024204638BD01460020A14A56
:1014C000106820F0F80040EAC10010607047A049A1
:1014D00008607047024600209A4B586820F47C1040
:1014E00042EA01031843974B5860704798490866D1
:1014F000704701460020934A506820F003000843DB
:10150000506070478F48406800F00C0070470146FB
:1015100000208C4A506820F0F0000843506070476B
:1015200001460020874A506820F4E060084350607C
:10153000704701460020834A506820F4605040EA1A
:10154000C1005060704729B17E4A527A02437D4BF8
:101550005A7204E07B4A527A82437A4B5A7270473D
:101560007B49D8310860704701460020754A5068B1
:1015700020F440400843506070470021714A2032F7
:101580001170704A82F82010012802D004280AD174
:1015900004E001216B4A2032117005E00521694AFF
:1015A0002032117000E000BF00BF70476949086039
:1015B00070476449096A0143624A1162704765498C
:1015C00044390860704730B5002100220024002310
:1015D0005C4D6D6805F00C0121B1042905D0082986
:1015E00023D105E05C4D056022E05B4D05601FE006
:1015F000544D6D6805F47012524D6D6805F48034D9
:10160000022505EB92421CB9544D554305600BE091
:101610004C4D6D6805F400351DB1504D55430560C6
:1016200002E04D4D5543056002E04B4D056000BFA3
:1016300000BF444D6D6805F0F0010909484D6B5C31
:101640000568DD4045603F4D6D6805F4E061090ABD
:10165000434D6B5C4568DD4085603A4D6D6805F42F
:101660006051C90A3E4D6B5C4568DD40C560354D33
:101670006D6805F44041890B3A4D6B5CC568B5FB5C
:10168000F3F5056130BD29B12E4A526902432D4B55
:101690005A6104E02B4A526982432A4B5A617047CF
:1016A00029B1284A92690243264B9A6104E0254AEF
:1016B00092698243234B9A61704729B1214AD269CA
:1016C0000243204BDA6104E01E4AD26982431D4B7B
:1016D000DA61704729B11B4AD2680243194BDA60BC
:1016E00004E0184AD2688243164BDA60704729B189
:1016F000144A12690243134B1A6104E0114A126939
:101700008243104B1A617047124940390860704794
:101710000F49C86470470B49C87170470948406A4F
:1017200040F0807007494862704701460020054A32
:1017300092680A400AB1012000E000207047014988
:1017400088727047001002400000FFF8FFFFF6FEAD
:10175000000042428004424200127A0000093D002B
:10176000280000203800002010B50446FE488442BE
:1017700008D10121C014FFF7ADFF0021E014FFF7ED
:10178000A9FFC4E0B4F1804F08D101210846FFF75A
:10179000AEFF00210120FFF7AAFFB8E0F348844222
:1017A00008D101210220FFF7A2FF00210220FFF74C
:1017B0009EFFACE0EE48844208D101210420FFF7EF
:1017C00096FF00210420FFF792FFA0E0E948844241
:1017D00008D101210820FFF78AFF00210820FFF728
:1017E00086FF94E0E448844208D101211020FFF7ED
:1017F0007EFF00211020FFF77AFF88E0DF48844257
:1018000008D101212020FFF772FF00212020FFF7DF
:101810006EFF7CE0DA48844208D101214014FFF7D2
:1018200059FF00216014FFF755FF70E0D54884424E
:1018300009D10121C804FFF74DFF00214FF400201A
:10184000FFF748FF63E0D048844209D10121080531
:10185000FFF740FF00214FF48010FFF73BFF56E0F9
:10186000CA48844209D101214805FFF733FF00210E
:101870004FF40010FFF72EFF49E0C548844208D11D
:1018800001214020FFF733FF00214020FFF72FFF09
:101890003DE0C048844208D101218020FFF727FFA6
:1018A00000218020FFF723FF31E0BB48844208D1AC
:1018B00001218015FFF71BFF0021A015FFF717FF7F
:1018C00025E0B648844209D101210804FFF702FF50
:1018D00000214FF48030FFF7FDFE18E0B04884424D
:1018E00009D101214804FFF7F5FE00214FF4003033
:1018F000FFF7F0FE0BE0AB48844208D101218804D9
:10190000FFF7E8FE00214FF48020FFF7E3FE10BD53
:1019100000220288944B98420ED0994B98420BD0EB
:10192000B0F1804F08D0914B984205D0904B98422F
:1019300002D0904B984204D14FF68F731A404B88D7
:101940001A438D4B984207D08C4B984204D04FF6E7
:10195000FF431A40CB881A4302808B8883850B880B
:101960000385814B98420BD0854B984208D08B4B16
:10197000984205D08A4B984202D08A4B984201D1B6
:101980000B7A038601238382704770B500240022FE
:101990000023058C4FF6FE7635400584028C838843
:1019A000048B4FF68F752C40B51E2C400D882C43B0
:1019B000751E2A400D892A434D882A436A4DA84244
:1019C0000BD06F4DA84208D0744DA84205D0744D7D
:1019D000A84202D0734DA84213D14FF6F7752A40A2
:1019E0004D892A434FF6FB752A408D882A434FF6CE
:1019F000FF652B404FF6FF552B408D892B43CD893A
:101A00002B4383800483CD888586028470BD70B5A6
:101A1000002400220023058C4FF6EF763540058424
:101A2000028C8388048B48F6FF752C404FF6FF45E7
:101A30002C400D884FF6FF7606EA05252C434FF61D
:101A4000DF752A400D8906EA05152A434D8806EA06
:101A500005152A43444DA84202D0494DA8421DD144
:101A60004FF67F752A404D894FF6FF7606EA051539
:101A70002A434FF6BF752A408D8806EA05152A438A
:101A80004FF6FF352B404FF2FF752B408D8906EA4C
:101A900085052B43CD8906EA85052B438380048386
:101AA000CD880587028470BD70B500240022002314
:101AB000058C4FF6FF6635400584028C8388848B45
:101AC0004FF68F752C404FF6FC752C400D882C433B
:101AD0004FF6FF552A400D894FF6FF7606EA052599
:101AE0002A434D8806EA05252A431F4DA84202D005
:101AF000234DA8421DD14FF2FF752A404D894FF664
:101B0000FF7606EA05252A434FF6FF352A408D88E1
:101B100006EA05252A434EF6FF752B404DF6FF7564
:101B20002B408D8906EA05152B43CD8906EA05155C
:101B30002B4383808483CD888587028470BD70B5F4
:101B4000002200230024058C4EF6FF7635400584E4
:101B5000038C8488828B48F6FF752A404FF6FF4538
:101B60002A400D8820E00000002C014000040040C5
:101B700000080040000C004000100040001400402D
:101B800000340140004C014000500140005401402D
:101B900000180040001C00400020004000400140B0
:101BA00000440140004801404FF6FF7606EA052553
:101BB0002A434DF6FF752B400D8906EA05352B4368
:101BC0004D8806EA05352B43FA4DA84202D0FA4D5E
:101BD000A84208D14BF6FF752C408D894FF6FF7651
:101BE00006EA85152C4384808283CD88A0F8405076
:101BF000038470BD828B4FF2FF331A408283828B45
:101C00004FF6FF7303EA01231A4382837047F0B54E
:101C10000C461546002200210026078C4EF6FF7C5C
:101C200007EA0C070784828B018C4FF6FF7707EADF
:101C3000043640F6FF473A404FF6FF7707EA05279C
:101C40003A434FF6FF7707EA03373A43D94FB84292
:101C50000ED0D94FB8420BD0B0F1804F08D0D74F3B
:101C6000B84205D0D64FB84202D0D64FB84206D1BE
:101C70004DF6FF77394046F48057394305E047F683
:101C8000FF57394044F48057394382830184F0BDC3
:101C9000828B4FF6F3731A408283828B0A438283CE
:101CA0007047F0B50C461546002200210026078C2F
:101CB0004FF6FF6C07EA0C070784828B018C4FF606
:101CC000FF7707EA04264FF60C773A404FF6FF7786
:101CD00007EA03172F433A43B64FB8420ED0B64F28
:101CE000B8420BD0B0F1804F08D0B44FB84205D005
:101CF000B34FB84202D0B34FB84206D14FF6FF57A8
:101D0000394046F48077394305E04FF2FF573940B8
:101D100044F48077394382830184F0BD028B4FF213
:101D2000FF331A400283028B4FF6FF7303EA01234D
:101D30001A4302837047F0B50C4615460022002175
:101D40000026078C4FF6EF7C07EA0C070784028B0E
:101D5000018C4FF6FF7707EA041640F6FF473A403A
:101D60004FF6FF7707EA03373A434FF6FF7707EA64
:101D700005273A438F4FB8420ED08F4FB8420BD051
:101D8000B0F1804F08D08D4FB84205D08C4FB8428B
:101D900002D08C4FB84206D14FF6DF77394046F07B
:101DA0001007394305E04FF65F77394044F01007DC
:101DB000394302830184F0BD028B4FF6F3731A405E
:101DC0000283028B0A4302837047F0B50C46154626
:101DD00000220021068C4FF6FE773E400684028BDF
:101DE000018C4FF60C7632407E1C06EA03162E4319
:101DF0003243704EB0420ED06F4EB0420BD0B0F1B5
:101E0000804F08D06D4EB04205D06D4EB04202D02A
:101E10006C4EB04206D14FF6FD76314044F00106DB
:101E2000314305E04FF6F576314044F00106314389
:101E300002830184F0BD70B505460C465D488542BD
:101E40000ED05D4885420BD0B5F1804F08D05B487D
:101E5000854205D05A48854202D05A48854200D171
:101E600000E000BF208850B92389A28861882846F5
:101E7000FFF7ABFFE1882846FFF79EFF25E02088AB
:101E800004280AD12389A28861882846FFF753FFD6
:101E9000E1882846FFF742FF17E0208808280AD18A
:101EA0002389A28861882846FFF7FBFEE18828463F
:101EB000FFF7EEFE09E02389A28861882846FFF734
:101EC000A6FEE1882846FFF795FE70BD2DE9F0419A
:101ED00005460C4600260127608808B9022600E066
:101EE0000026A088012801D1022700E001272088D0
:101EF000A0B92389A28861882846FFF766FFE18898
:101F00002846FFF759FF23893A4631462846FFF70E
:101F100012FFE1882846FFF701FF13E02389A2881A
:101F200061882846FFF707FFE1882846FFF7F6FE9D
:101F300023893A4631462846FFF747FFE18828467D
:101F4000FFF73AFFBDE8F0810A884B881A438B8877
:101F50001A43CB881A430B891A434B891A438B893E
:101F60001A43A0F8442070474FF6FF71818000218A
:101F70000180C18041800172704700210180418051
:101F80008180C180018141818181C18170470021AF
:101F900001804180012181800021C1800181704741
:101FA0000021018041808180C18001814181818146
:101FB00070470000002C0140003401400004004044
:101FC00000080040000C004021B1028842F00102EC
:101FD000028004E002884FF6FE731A4002807047C8
:101FE00031B1B0F8442042F40042A0F8442005E0AA
:101FF000B0F84420C2F30E02A0F8442070471AB192
:1020000083890B43838102E083898B4383817047FB
:102010008182704741EA0203A0F8483070471AB144
:1020200083890B43838102E083898B4383817047DB
:1020300001894FF6F8721140018170470A4600216C
:1020400001894FF68F73194011430181704730B5F4
:1020500004460D4629462046FFF7F0FF208940F050
:102060000700208130BD2DE9F04104460D4616469B
:102070001F46602D06D13B46012231462046FFF720
:102080005AFE05E03B46012231462046FFF79DFE01
:1020900029462046FFF7D2FF208940F00700208123
:1020A000BDE8F08130B50C4600210189C9B24FF678
:1020B000FF7505EA0325154325432943018130BDFA
:1020C0002DE9F04105460E46174698460024434642
:1020D0003A4631462846FFF7E5FF2C894FF6F8705F
:1020E000044044F007044FF68F70044044F070043D
:1020F0002C81BDE8F081F0B504460D4616461F461A
:102100003B46324629462046FFF7CCFF208940F463
:1021100080402081F0BD0185828270470A460021FF
:1021200001884FF68F731940114301807047F0B555
:102130000C4615461E460021002200230189028B11
:10214000038C4FF6F877394021434FF6FC473A406D
:1021500040F201173A434FF6DD773B404FF6FF77E9
:1021600007EA06172F433B43018102830384F0BD36
:102170000A460021018B4FF68F73194011430183EA
:1021800070470A460021018B48F6FF7319404FF64D
:10219000FF7303EA02231943018370470A460021B3
:1021A000818B4FF68F7319401143818370470A4624
:1021B0000021818B48F6FF7319404FF6FF7303EA45
:1021C000022319438183704721B1028842F08002C3
:1021D000028004E002884FF67F731A400280704745
:1021E00021B1828842F00402828004E082884FF6A6
:1021F000FB731A408280704721B1828842F0080246
:10220000828004E082884FF6F7731A40828070471C
:1022100021B1828842F00102828004E082884FF678
:10222000FE731A40828070470A460021018B4FF6E8
:10223000F77319401143018370470A460021018B4F
:102240004FF2FF7319404FF6FF7303EA022319435D
:10225000018370470A460021818B4FF6F7731940BE
:102260001143818370470A460021818B4FF2FF732F
:1022700019404FF6FF7303EA022319438183704725
:102280000A460021018B4FF6FB731940114301836D
:1022900070470A460021018B4FF6FF3319404FF675
:1022A000FF7303EA02231943018370470A460021A2
:1022B000818B4FF6FB7319401143818370470A46A7
:1022C0000021818B4FF6FF3319404FF6FF7303EA6D
:1022D00002231943818370470A460021018B4FF680
:1022E0007F7319401143018370470A460021018B17
:1022F000C1F30E014FF6FF7303EA02231943018372
:1023000070470A460021818B4FF67F7319401143B5
:10231000818370470A460021818BC1F30E014FF67D
:10232000FF7303EA02231943818370470A460021A1
:10233000018C4FF6FD7319401143018470470A4622
:102340000021018C4FF6F773194011430184704747
:102350000A460021018C4FF6DF7319404FF6FF73D8
:1023600003EA02131943018470470A460021018CD5
:102370004FF67F7319404FF6FF7303EA02131943B8
:10238000018470470A460021018C4FF6FF53194023
:102390004FF6FF7303EA02231943018470470A468C
:1023A0000021018C4FF2FF7319404FF6FF7303EACF
:1023B00002231943018470470A460021018C4DF61F
:1023C000FF7319404FF6FF7303EA02331943018488
:1023D000704730B5002301248C40A3B2048C9C4389
:1023E0000484048C02FA01F5ADB22C43048430BDA0
:1023F00030B5002304248C40A3B2048C9C43048495
:10240000048C02FA01F5ADB22C43048430BD70B5E2
:102410000346002000241846183001258D40ACB238
:102420001D8CA5431D8409B1082909D100EB610069
:10243000056825F0700505600568154305600EE028
:102440000D1FC5F34E052844056825F4E0450560D9
:1024500005684FF6FF7606EA02263543056070BD33
:1024600021B1028842F00202028004E002884FF6A5
:10247000FD731A400280704721B1028842F00402C5
:10248000028004E002884FF6FB731A400280704716
:1024900021B1828842F08002828004E082884FF677
:1024A0007F731A408280704702884FF6F7731A4094
:1024B000028002880A430280704782884FF68F7339
:1024C0001A40828082880A438280704702894FF6D0
:1024D000F8731A40028102890A4302817047028917
:1024E0004FF67F731A40028102890A4302817047C6
:1024F0008184704781857047818670470187704766
:1025000081877047A0F84010704702884FF6FF435C
:102510001A40028002880A43028070470146888E72
:1025200070470146088F70470146888F7047014603
:10253000B1F8400070470146888C70470146088D0D
:10254000704702460020138A0B400BB1012000E0C7
:1025500000207047CA430282704730B5024600200F
:1025600000230024158A05EA0103958905EA010480
:1025700013B10CB1012000E0002030BDCA4302823B
:10258000704700000E49086070470D494860704769
:102590000B49886070474AF6AA20094908607047CD
:1025A0004CF6CC4006490860704701460020044ABA
:1025B000D2680A400AB1012000E000207047000004
:1025C00000300040002044490860091D0860091DD2
:1025D0000860091D086041483F4914310860704790
:1025E00000213D498279002A3AD00A4612680368E0
:1025F0009A430B461A600A1D126803689A430B1D22
:102600001A60027911440A6803681A430A60324A60
:102610000832126803689A432F4B08331A601A1D58
:10262000126803689A432C4B0C331A604279102AC3
:102630000ED11A1F126803681A43274B08331A6019
:102640001A1D126803681A43234B0C331A600DE0FD
:102650002149427911440A6803681A430A6005E077
:10266000027911440A6803689A430A60704700219E
:10267000016001710C21417100218171704716497F
:10268000103109680143144A103211607047014645
:102690000020114A143212680A400AB1012000E0F9
:1026A000002070470C491431086070470146002033
:1026B0000022094B1B6803EA0102074B14331B6815
:1026C0000B4013B10AB1012000E00020704702491D
:1026D000143108607047000000040140FFFF0F0044
:1026E00010B54FF480729849984800F0FDF9984869
:1026F000984948600520984908704FF480704880D8
:1027000010BD2DE9F0419CB004460E461746984690
:10271000229DA078B52806D0B62842D0B72857D039
:10272000B82876D186E06078402839DA02A80AA96C
:10273000CDE9001012AB1BAA88A1606801F000F877
:102740008F4890F8C2001B99884200D091E00AABF4
:1027500012AA8CA18A48423001F0F2FB1AAB1BAAE4
:102760008AA102A800F0ECFF1B98C0EB00108000CB
:10277000C0EB001080001A99C1EB011100EB810041
:102780008549086000F0A0FA844908608448007810
:10279000032802D100208249087001208149087075
:1027A00067E012AB1BAA80A1606800F0C9FF744803
:1027B00090F8C2001B99884200D05AE012AA7EA16C
:1027C0006F48801C01F0BCFB01207649087050E086
:1027D0000AA8009012AB1BAA78A1606800F0B0FFB5
:1027E000674890F8C2001B99884200D041E00AA8CF
:1027F00001F0D8F8C0EB001080001B909DF8480055
:10280000312807D1644800681B9908446249086070
:102810000FE02DE060491B980968884203D9002029
:102820005D49086005E05C4800681B99401A5A49F8
:1028300008601EE012AB1BAA5BA1606800F080FF7D
:102840004F4890F8C2001B99884200D011E06149BE
:10285000614800F048FA03205149087012AA56A1B5
:102860004748823001F06CFB00204B49086000E0D3
:1028700000BF00BF0020A0701CB0BDE8F08130B5E3
:1028800003461878062840D2DFE800F03F0C101409
:102890003303CA2A05D10120187000205870D8715E
:1028A000988035E09A710220187031E05A70032048
:1028B00018702DE098885C78A04203DA58785C881C
:1028C000A04202DD0520187012E0D8791044D871BA
:1028D0009C88486802559888401C988000209D88F4
:1028E0004C68605598885C78A04201D1042018702B
:1028F0000EE005201870D879904205D158784870BC
:1029000098798870002030BD02E00520187000BF63
:1029100000BFFF20F7E71CB501A90C4800F008F93B
:1029200080B99DF804200B490B48FFF7A8FF48B970
:102930000120009008484088031F002211460548E6
:10294000FFF7DFFE1CBD00008C0300208C0400207C
:10295000A80400209C0400204A0000202530326496
:102960002C255B5E2C090A0D5D2C255B5E2C090A6B
:102970000D5D2C255B5E2C090A0D235D0000000017
:10298000700200202573202573000000253032647A
:102990003A253032640000001C0000202400002092
:1029A0001800002016000020253032642C255B5EC4
:1029B0002C090A0D5D0000002573000025303264EB
:1029C0002C255B5E2C090A0D5D2C255B5E2C090A0B
:1029D0000D5D0000C0D40100740300202DE9F84F04
:1029E00004460D4616469846DDE90A9A2560A680FB
:1029F000B8F1000F01D0012000E00020A071C4F860
:102A00000890C4F80CA000206075A07908B12827B0
:102A100000E048276420E0824FF4FA602083ADF89C
:102A200000608DF8037001208DF802006946284689
:102A3000FEF77AFBBDE8F88FC1820283704770B55C
:102A40000446A1882068FEF702FC054600F035F92F
:102A50000646607D80B9A079A84208D10120607542
:102A60002661A06840B10020A168884704E0E068C2
:102A700010B10020E1688847607D012824D1A07949
:102A8000A8420CD1218B20690844B0421CD2A06816
:102A900010B10220A16888470220607514E0A07977
:102AA000A8420FD0E18A20690844B04207D2A0684A
:102AB00010B10120A16888470220607504E0002061
:102AC000607501E000206075607D022804D1A07966
:102AD000A84201D000206075257570BD10B5044670
:102AE0002046FFF7ACFF10BD034613B109B1022A1F
:102AF00002D24FF0FF307047D96000201860586054
:102B00009A6000BFF7E710B502460B461168491CF2
:102B10009068884200D800215068884202D14FF066
:102B2000FF3010BD1468D068035511600020F8E72D
:102B3000024650681368984202D14FF0FF30704748
:102B40005368D068C05C08705068401C5060506882
:102B50009368984201D3002050600020EFE70146BF
:102B600008684A68904203D308684A68801A704728
:102B700088684A68801A0A681044F8E710B53B482C
:102B8000806820F00F00394988600846C06820F04E
:102B9000F0013648C160006920F47061334801617A
:102BA000406920F4704131484161001530490860A6
:102BB0002E4800692D4908612D481438006820F41A
:102BC00080602B4914390860081D006820F480607B
:102BD000091D0860081F006840F48060091F086034
:102BE000081D006840F48060091D0860081D006829
:102BF00040F48060091D0860081D006840F4806092
:102C0000091D086028200B21002807DA0A07140E86
:102C1000184A00F00F031B1FD45403E00A07130ED9
:102C2000154A135400BF282000F01F0201219140D3
:102C30004209920002F1E022C2F8001100BF10BD6B
:102C400010B54FF48070FFF731FD18B14FF480706C
:102C5000FFF73DFD10BD10B54FF48060FFF726FD76
:102C600018B14FF48060FFF732FD10BD0000014045
:102C70001404014018ED00E000E400E070477047E4
:102C80003C480068401C3B4908603B48026840687B
:102C9000521C40F1000038490A604860354800681D
:102CA00040F2E731B0FBF1F201FB120020B93348EA
:102CB0000068401C3149086070472E480068704722
:102CC0002D490868496870472C480068704700B56E
:102CD0000146FFF7F2FF024600BFFFF7EEFF801A42
:102CE0008842FAD300BD00B50246FFF7E6FF106048
:102CF0005160D2E900031844906000BD10B5014650
:102D0000D1E9000402198868904201D0002010BD6A
:102D1000FFF7D3FF0246D1E9000420448860086829
:102D2000904202D80868131A03E00868C0F1FF3027
:102D300083184868984201D80020E8E74868C01A1C
:102D4000E5E700B50246FFF7B8FF03460EE0FFF7E0
:102D5000B4FF0146994203D3C81A904206D306E055
:102D6000C3F1FF300844904200D300E0EFE700BF1A
:102D700000BD00005C000020600000205800002022
:102D800070B50B465F49C96941F400315D4AD161B4
:102D90005D49096821F470415B4A11601146096878
:102DA00041F4804111605749C96941F40031554AE5
:102DB000D16100EBC00101EB00114FF41642B1FBF1
:102DC000F2F16422B1FBF2F200EBC00101EB001161
:102DD0004FF41644B1FBF4F100EBC00404EB001413
:102DE0004FF41645B4FBF5F46425B4FBF5F404EB9D
:102DF000C40505EB0414A1EB8401322404EB01119A
:102E00006424B1FBF4F162F31F11404A11800021E8
:102E1000121D1180121D1180111F0988121F1180AF
:102E200000213A4A0C3211803849091D098841F0C5
:102E30000C01364A121D11801146098841F020010B
:102E4000118026210A22002907DA1407260E304CA9
:102E500001F00F052D1F665503E01407250E2D4CBC
:102E6000655400BF262101F01F040122A2404C0935
:102E7000A40004F1E024C4F8002100BF2349091D87
:102E8000098841F40051214A121D118070BD1D486E
:102E9000C06920F400301B49C8611B48006820F459
:102EA000704019490860704700BF184908390988FF
:102EB00001F080010029F8D01449091F08807047EB
:102EC00000BF12480838008800F020000028F8D021
:102ED0000E48001F0088C0B2704710B50B48083874
:102EE000008800F0280040B10848001F0088C4B2E4
:102EF00021460948FFF707FE03E00448001F008849
:102F0000C4B210BD00100240000801400844004057
:102F100018ED00E000E400E08C04002001460348C6
:102F20000068405C704701490860704768000020F5
:102F30001FB50446B048FEF717FC01A8FFF714F8C8
:102F400001210220FEF7B9FB2F20ADF80400601E1E
:102F500080B2ADF808000020ADF80A00ADF8060018
:102F600001A9A548FEF7D4FC0121A348FFF72CF8DE
:102F70000121A148FFF702FB012211469E48FFF7FD
:102F80003EF81D208DF8000001208DF801008DF81D
:102F900002008DF803006846FDF71FFD1FBD38B520
:102FA00005460C46ADF8004010208DF803000320C4
:102FB0008DF8020069462846FEF7B6F838BD10B510
:102FC0004FF480518D48FEF75CF910BD10B54FF4F9
:102FD00080518A48FFF7E3FF4FF480418748FFF7AD
:102FE000DEFF4FF400518548FFF7D9FF08218348E1
:102FF000FFF7D5FF4FF400418148FFF7D0FF4FF4B2
:1030000080717F48FFF7CBFF4FF400717B48FFF7DB
:10301000C6FF40217948FFF7C2FF4FF4807177481F
:10302000FFF7BDFF20217548FFF7B9FF80217348E6
:10303000FFF7B5FF10217148FFF7B1FFFFF7BFFFA2
:103040004FF400716D48FEF71EF940216B48FEF702
:103050001AF94FF480716948FEF715F92021674885
:10306000FEF711F980216548FEF70DF9102163483C
:10307000FEF709F910BD10B5FFF7A8FF4FF4FA707D
:10308000FFF756FF10BD10B54FF480515B48FEF7B7
:10309000FAF810BD10B5044604F0010020B1082173
:1030A0005648FEF7EEF803E008215448FEF7EBF827
:1030B00004F0020028B14FF400415148FEF7E1F856
:1030C00004E04FF400414E48FEF7DDF804F0040040
:1030D00028B14FF480714A48FEF7D3F804E04FF46A
:1030E00080714748FEF7CFF810BD10B54FF480410E
:1030F0004248FEF7C6F84FF480414048FEF7C3F857
:1031000010BD10B54FF400513C48FEF7BAF84FF42B
:1031100000513A48FEF7B7F810BD70B5FFF74FFF02
:103120003849394800783030095C364A36480078EA
:103130002030105C41EA0021334800781030105CE8
:1031400041EA00401146304A1278895C40EA016643
:103150002C492D4800783830095C2A4A2A480078E2
:103160002830105C41EA0021274800781830105CB4
:1031700041EA0041244800780830105C41EA0065CB
:10318000002421E005FA04F000F0004028B14FF4DB
:1031900000711A48FEF777F804E04FF40071174801
:1031A000FEF76FF806FA04F000F0004020B140216D
:1031B0001248FEF768F803E040211048FEF761F876
:1031C000FFF79FFF601CC4B2202CDBDBFFF78DFFF5
:1031D0000D490978C1F10701C8B2FFF75BFFFFF79E
:1031E00052FF09480078401CC0B2074908700828FF
:1031F00001D10020087070BD00040040000C0140A7
:1032000000080140C40500206C00002072B60020B8
:1032100006E0FF21F74A1154F74A1154411CC8B285
:103220004028F6DB62B6704710B5FFF7EFFF882144
:10323000F24800F05CFAF2A1F048401C00F076FA87
:10324000EFA1EE48413000F071FA0120EB4908701F
:10325000EE48FFF768FE10BD0146022909D10020A3
:1032600004E0FF22E44B1A54421CD0B24028F8DBA1
:103270000CE001290AD172B6002004E0FF22DD4BE8
:103280001A54421CD0B24028F8DB62B6704772B6BE
:10329000002005E0D849095CD64A1154411CC8B247
:1032A0004028F7DB62B67047014672B6002005E0A1
:1032B000D04A1154D04A1154421CD0B24028F7DBF6
:1032C00062B6704770B5002805DB202803DA0029B4
:1032D00001DB102900DB70BDC0F11F0358B20346AB
:1032E000C61700EB5676C6F3C70201EB0213C24EB7
:1032F000F55C0346C61700EB5676F610A0EBC60643
:10330000F4B2C4F10703DCB20123A3409D4301EBF7
:103310000213B94EF55400BFDDE72DE9FF4F8BB026
:1033200016464FF0000B0320FFF7F8FD06900699B4
:10333000C81DC11700EB5171C91005910420FFF79A
:10334000EDFD03900520FFF7E9FD029000200190BC
:103350000398864204DBDDE902100844B04204DC35
:103360004FF0FF300FB0BDE8F08F0398301AC6B2AF
:103370000020079007E00198401D80B20190079857
:10338000401CC0B207900798B042F4DB0198801D42
:1033900080B201904FF0050B0C9DDDE90501C1EBFA
:1033A000C000C0B209900598401EC0B205904FF011
:1033B00000083FE001200090002431E028190F2888
:1033C00000DD2FE0019808FB0B0080B204900B9FFA
:1033D0004FF000091BE01F2F00DD1AE00498FFF7F3
:1033E0009DFD824600980AEA00000890089820B1E6
:1033F000281941B23846FFF765FF0498401C80B297
:10340000049009F101004FFA80F9781C47B2D945C0
:10341000E1DB00BF00984006000E0090601C44B243
:10342000082CCBDB00BF05F1080045B208F1010014
:103430004FFA80F805988045BCDB01200A900024F3
:1034400031E028190F2800DD32E0019808FB0B005D
:1034500080B204900B9F4FF000091BE01F2F00DD8E
:103460001AE00498FFF75AFD82460A980AEA00001B
:103470000890089820B1281941B23846FFF722FF7A
:103480000498401C80B2049009F101004FFA80F9C1
:10349000781C47B2D945E1DB00BF0A984006000E10
:1034A0000A90601C44B20998C0F10800A042C8DC30
:1034B00000BF012056E770B506460420FFF72EFD39
:1034C00004460520FFF72AFD0546052070BD2DE9BD
:1034D000F04106460F461446984619E022784346C6
:1034E00039463046FFF719FF401C18B94FF0FF303E
:1034F000BDE8F0812078FFF7DEFF0546681C10B9B3
:103500004FF0FF30F4E7701946B2701C46B2641CED
:1035100020780028E2D10120EAE770B504460026B1
:103520000DE02078FFF7C7FF0546681C10B94FF083
:10353000FF3070BD701906B2701C06B2641C207892
:103540000028EED13046F4E72DE9F04104460F465D
:103550004FF00008002615E02078FFF7ACFF054685
:10356000681C18B94FF0FF30BDE8F081701906B241
:10357000701C06B2641CB84500D106E008F10100D9
:103580004FFA80F820780028E6D100BF3046EBE7FC
:1035900070B506460D46002409E021463046FFF787
:1035A000D3FFA84201DD204670BD601CC4B2F4E721
:1035B00010B500241648FFF7A1FB002877D1154865
:1035C000007804282AD114480088401C00B212490F
:1035D0000880B1F9000000EBD0714910A0EB410167
:1035E00019B10020FFF760FE5DE0FF20FFF75CFEF1
:1035F00059E00000C4050020040600204406002015
:103600002020202020202020000000007800002022
:10361000CC060020180000205E0200202448FFF79E
:103620007CFF2349491EA1F884000846B0F88200B7
:10363000B1F8841088420AD000201E4908801C4836
:10364000401EB0F884001A49491EA1F882000220E9
:10365000FFF702FE1648401E007828B11548B0F961
:103660000000C0F11F0004B20023114A194660B2E5
:10367000FFF72DFF00230E4A403209210320FFF7F8
:1036800026FFFFF704FE0B480088401C01B20948E2
:1036900001800748401EB0F884002030814202D1EA
:1036A00000200449088078210348FFF71CFB10BD67
:1036B000450600205E020020CC06002040EA0103FF
:1036C0009B0703D009E008C9121F08C0042AFAD2D8
:1036D00003E011F8013B00F8013B521EF9D270479C
:1036E000D2B201E000F8012B491EFBD27047002244
:1036F000F6E710B513460A4604461946FFF7F0FFF1
:10370000204610BD421C10F8011B0029FBD1801A75
:10371000704730B504460020034600E05B1C93422E
:1037200003D2E05CCD5C401BF8D030BD034611F8FD
:10373000012B00F8012B002AF9D118467047000030
:103740000FB400B58DB010A909900B9000914FF007
:10375000FF300A9000200C9005480690054807901D
:103760006A4609A80F9900F055F90DB05DF814FBF1
:10377000313A00084F3A00082DE9FF5F1D464FF02F
:10378000FF3BD5E9014691465F464FF00008A96925
:103790007F1C01988847296A824688470028F6D10D
:1037A000BAF1FF3F0CD024F4C064002E19DD60068E
:1037B00014D5BAF12B0F09D0BAF12D0F0ED103E0B9
:1037C000584604B0BDE8F09F44F48064A9697F1CAA
:1037D00001988847761E8246002E02DDBAF1300F2E
:1037E00003D0B9F1000F26D032E0A969761E44F467
:1037F00000747F1C019888478246002E05DDBAF1CF
:10380000780F06D0BAF1580F03D0B9F1000F10D0DD
:103810001EE0B9F1000F02D0B9F1100F18D1A9695B
:10382000761E24F400747F1C01988847824610207D
:1038300002E0082000E00A20814609E008FB0908B0
:10384000A969761E44F400747F1C0198884782465B
:10385000002E05DD4946504600F0C7F80028EDDA95
:10386000E96901988847A00502D46FF00100A8E734
:10387000E00725D1600613D5600502D5C8F1000028
:1038800000E0404629680A1D2A600968220501D522
:10389000087015E0220701D5088011E008600FE0EC
:1038A0002868011D29600068210502D580F8008084
:1038B00006E0210702D5A0F8008001E0C0F80080F2
:1038C00038467EE72DE9FF5FD2E901A74FF00008F7
:1038D000916999461446DDF838B046460198884704
:1038E000054659EA0B0005D009E0A169761C01984C
:1038F00088470546216A284688470028F5D1681C74
:1039000003D05FEACA7005D015E04FF0FF3004B075
:10391000BDE8F09F2068011D2160D0F800800AE01A
:103920005FEACA7001D108F8015BA169761C7F1EAD
:10393000019888470546002F1ADD681C18D0B9F198
:10394000000F0DD0E81705EBD060421120F01F00EA
:1039500059F822102A1A012090400142E0D107E0D4
:10396000BBF1000FDCD1216A284688470028D7D058
:10397000E16901988847BBF1000F07D1002E05DDF2
:103980005FEACA7002D1002188F80010A068B8422E
:1039900003DDBBF1000F03D017B16FF00100B6E7F4
:1039A0003046B4E770B5064600F0DEFA0468054616
:1039B0000A220021304600F05BF82C6070BD30B563
:1039C0000B46014600202022012409E021FA02F5DD
:1039D0009D4205D303FA02F5491B04FA02F5284477
:1039E000151EA2F10102F1DC30BD3A2800D23038B8
:1039F00020F02002412A01D3A2F13700884201D3EE
:103A00004FF0FF30704700000268114413780160E6
:103A100018467047D1600449516104491162002180
:103A20001161114600F07CB8093A00080D3B00080E
:103A3000426842B1016811F8013B23B1521EC0E94E
:103A40000012184670470121C160881E7047426805
:103A50005AB1C368016843B983688B4205D0491ED7
:103A6000521CC0E90012002070474FF0FF30704731
:103A70002DE9F04791460F4680460446002614F88B
:103A8000015B2DB100F03EF80068405DC007F6D143
:103A90002B2D02D02D2D18D0641E4A4639462046C3
:103AA00000F0D4F927B13968A14201D1C7F80080EC
:103AB00071054FF002040BD54042002803DD00F0F1
:103AC00053FA0460A007BDE8F08746F48066E4E797
:103AD0000028F8DA00F048FA04606FF00040F2E7DE
:103AE000064C074D06E0E06840F0010394E807004B
:103AF00098471034AC42F6D3FCF7FCFA6443000854
:103B000084430008004870476043000810B504462D
:103B1000FFF7F8FF0068005D00F0010010BD000035
:103B20002DE9F34F8BB04FF0000801F10C000C466B
:103B30004FF0010B46460DF1080A01906269012120
:103B400001989047051E2DD0252D2CD0216A88473D
:103B5000C0B16269012101989047216A8847002815
:103B6000F7D1411E62690198904700E0761CA16977
:103B70000B988847216A88470028F7D1E1690B989C
:103B80008847DBE7A1690B9888470746A84201D11F
:103B9000761CD3E7E1690B9888477F1C02D1B8F106
:103BA000000F6FD046E1002762693D463946019813
:103BB00090472A2804D16269012101989047012584
:103BC000DFF884926269012101989047A0F13001E9
:103BD0000A290AD24F45E5DC07EB870100EB4107D4
:103BE000303FDFD445F01005ECE7E90601D46FF073
:103BF00000476C280AD04C2814D0682815D06A28B1
:103C00000DD074281CD07A281AD01DE062690121D9
:103C1000019890476C2802D045F0040514E045F067
:103C200002050DE045F020050AE0626901210198D6
:103C30009047682802D045F0080505E045F4006586
:103C40006269012101989047C4E9015765283DD078
:103C500019DC58287AD00CDC452837D004DC25281C
:103C600026D0412831D131E046282FD047282CD109
:103C70002CE05B2877D0612828D063287CD064288A
:103C800023D15AE0D0E06F2848D008DC66281DD048
:103C900067281BD0692821D06E2816D127E070280C
:103CA00045D0732868D0752847D078280DD14DE0CD
:103CB000A1690B988847054625283FF469AFE1695B
:103CC0000B9888476D1C3FF46AAFB3E023466A4601
:103CD0006FF001000B99AFF300809EE045F04000CB
:103CE0006060A80723464FF0000236D43EE0E807A4
:103CF0007FF447AF2068011D21600068290501D5C8
:103D000006701BE7290701D5068017E7A90703D529
:103D1000F117C0E9006111E706600FE745F04000C8
:103D20006060A80723464FF0080216D41EE040F654
:103D30000E0125EA0100606016E045F04000606079
:103D4000A80723464FF00A0207D40FE045F04000D1
:103D50006060A80708D5234610226FF001000B9978
:103D6000AFF3008059E007E0234610226FF0010016
:103D70000B99FFF701FD50E04FF000094F464B460D
:103D8000632802D05B2806D040E0E80601D4012079
:103D9000A06001273AE062690121019890475E28FE
:103DA00005D14FF0010962694946019890472169A0
:103DB00039B900210A46534643F82120491C0829F5
:103DC000FADBB0B3216969B9C11700EBD1625311B5
:103DD0000AEB830122F01F02821A01200B68904037
:103DE00003430B6062690121019890475D28E8D187
:103DF000B9F1000F09D00020514651F82020D243DC
:103E000041F82020401C0828F7DB02AB224600972F
:103E10006FF001000B99FFF755FD00280CDA401CEC
:103E200008D1BBF1000F05D04FF0FF300DB0BDE859
:103E3000F08FFFE74046F9E7E90701D108F10108F3
:103E400006444FF0000B79E6CCCCCC0C2DE9F05FAA
:103E500082460078002715468B460AF10104B946D0
:103E6000302801D09DB113E014F8010B0127782808
:103E700003D0582801D045B10AE00DB1102D07D16B
:103E80000027102514F8010B02E0082500E00A25A0
:103E90000026B0460EE005FB080005FB06F10127F1
:103EA00001EB10461FFA80F8B6F5803F00D3B94603
:103EB00014F8010B2946FFF798FD0028EBDABBF157
:103EC000000F05D00FB1641E00E05446CBF800404F
:103ED000B9F1000F06D000F047F802210160C81EBA
:103EE000BDE8F09F48EA0640FAE770B58C1810F874
:103EF000015B15F0070301D110F8013B2A1106D12F
:103F000010F8012B03E010F8016B01F8016B5B1E48
:103F1000F9D12B0705D40023521E0DD401F8013B23
:103F2000FAE710F8013BCB1A921C03E013F8015B8F
:103F300001F8015B521EF9D5A142D8D3002070BD13
:103F40000FB4084B10B504A902AA039800F020F89A
:103F5000044602A9002000F0BCF9204610BC5DF820
:103F600014FB0000D34200080048704760020020A4
:103F700002E008C8121F08C1002AFAD17047704732
:103F8000002001E001C1121F002AFBD17047000090
:103F90002DE9FF4F8BB088460546002606E0252810
:103FA0000BD0DDE90D1290476D1C761C2878002897
:103FB000F5D10FB03046BDE8F08F0024A146A246EF
:103FC0000122AE4900E0044315F8013F203B02FA0C
:103FD00003F00842F7D128782A2810D06FF02F027A
:103FE0002878A0F13001092915D809EB890102EBE5
:103FF000410144F0020400EB01096D1CF0E758F8A0
:10400000041B5FEA010903D544F40054C9F1000917
:1040100044F002046D1C28782E2817D115F8010FE2
:1040200044F004042A280ED06FF02F022878A0F163
:10403000300109290AD80AEB8A0102EB410100EBA1
:10404000010A6D1CF2E758F804AB6D1C28786C2847
:104050000FD006DC4C2817D068280DD06A2814D160
:1040600004E0742810D07A280FD10DE044F4001435
:104070000AE044F4801401E044F440146978814279
:1040800002D104F580146D1C6D1C2878692865D058
:1040900006DC00288DD0632827D0642806D15DE097
:1040A0006E2808D073282AD0752877D0DDE90D1244
:1040B0009047761CE0E0C4F30250022809D00328A0
:1040C0000DD0D8F8001004280DD00E6008F10408B7
:1040D000D2E0D8F80010F217C1E90062F6E7D8F88C
:1040E00000100E80F2E70E70F0E718F8041B8DF850
:1040F000001000208DF80100EB46012003E058F885
:1041000004BB4FF0FF3061074FF0000701D40AE015
:104110007F1C57450DDA8742FADB1BF80710002990
:10412000F6D106E07F1C8742FCDB1BF80710002954
:10413000F8D1DDE90D23A9EB07008146214600F007
:10414000B1F83044C61904E0DDE90D121BF8010B8B
:1041500090477F1EF8D22146484688E058F8040B65
:10416000C4F302514FF00A0B032900D100B2042915
:1041700000D140B2002802DA40422D2102E02105A0
:1041800005D52B218DF82410012104E006E0E1077C
:1041900010D02021F6E708AF089113E058F8040B7F
:1041A000C4F302514FF00A0B032900D180B2042955
:1041B00000D1C0B20021EEE75946FFF700FC3031D4
:1041C00007F8011D0028F7D1ADEB070000F1200B27
:1041D000600702D524F4803401E04FF0010ADA458B
:1041E00002DDAAEB0B0000E00020824600EB0B0191
:1041F00008980144A9EB01000A90E00306D4DDE928
:104200000D2321460A9800F04DF806444FF00009AE
:1042100008E009A911F80900DDE90D12904709F13C
:104220000109761C08998945F3DBE0030CD5DDE92B
:104230000D2321460A9800F035F8064404E0DDE934
:104240000D1230209047761CBAF10001AAF1010A44
:10425000F5DC05E0DDE90D1217F8010B9047761C3F
:10426000BBF10001ABF1010BF4DC0A982146DDE95A
:104270000D2300F005F806446D1C97E6092801009F
:104280002DE9F041044600251E461746880404D453
:1042900005E039462020B0476D1C641EF9D528463C
:1042A000BDE8F0812DE9F041044600251E46904608
:1042B000C80301D5302700E02027880404D505E095
:1042C00041463846B0476D1C641EF9D52846BDE806
:1042D000F0810A68531C0B6010707047004040402A
:1042E00040404040404041414141414040404040C9
:1042F0004040404040404040404040404005020275
:104300000202020202020202020202020220202033
:10431000202020202020200202020202020290908F
:10432000909090901010101010101010101010108D
:1043300010101010101010100202020202028888E1
:1043400088888888080808080808080808080808ED
:1043500008080808080808080202020240000000D5
:10436000DD420008844300080000002064020000D1
:10437000EA3E00085445000864020020740800006A
:10438000803F000811846CDC02000918010203045C
:104390000607080929206924053E02040608750558
:1043A000072060325F1A07021B147F021010242AB4
:1043B0007F2A1223130864623649552250330503BD
:1043C000241C22411441221C100B082A1C2A080814
:1043D000083E0808235030190B190A1A6049100BBF
:1043E00020100804023E5149453E14427F401029E6
:1043F00042615149462141454B311814127F102723
:10440000454545393C4A494930017109050336495A
:10441000494936064949291E3336362A56052E089B
:1044200014224114011541221408281102015109D6
:1044300006324979413E7E1111117E7F321F3E4185
:104440004141227F042A1C0F1F417F0909010114E9
:104450001C51327F86127F14417F412F2040413F03
:10446000017F4B1B7F4001280B7F0204027F7F04EA
:1044700008107F3C1A3E32180E09063E4151215E5B
:104480007F09192946464618083101017F01013F7D
:104490002C18163F1F2040201F7F2018207F6314F8
:1044A0000814630304780403C723454319751A02EB
:1044B00046252041417F2E04020102045E1240196C
:1044C0000911181020545454787F48444438384413
:1044D000444420051C487F3814101118087E090137
:1044E00002081454543C7F080404781C447D40A006
:1044F0001B443D4F1C102844AF12402F7C0418046D
:10450000787C1E293C1B387CFE2F08081414187C6C
:10451000141B084846180D20043F4440203C4040EE
:10452000207C1CA018091C3C4030403C4428411011
:104530000B0C5050503C4464544C443408364119E0
:104540009B1114413608600B08082A1C08081C2A15
:044550000808000057
:04000005080000ED02
:00000001FF
