:020000040800F2
:1000000010140020E1020008E90200088508000839
:10001000ED020008EF020008F102000800000000F5
:10002000000000000000000000000000F3020008D3
:10003000F502000800000000F7020008A30800080D
:10004000FB020008FB020008FB020008FB0200089C
:10005000FB020008FB020008FB020008FB0200088C
:10006000FB020008B1080008FB020008FB020008C0
:10007000FB020008FB020008FB020008FB0200086C
:10008000FB020008FB020008FB020008FB0200085C
:10009000FB020008FB020008FB02000831370008E1
:1000A000FB020008FB020008FB020008FB0200083C
:1000B000FB02000825030008FB020008FB02000801
:1000C000FB020008FB020008FB020008FB0200081C
:1000D000FB020008FB020008FB020008FB0200080C
:1000E00047370008FB020008FB020008DFF80CD0CD
:1000F00005F0B0F900480047B504000810140020CE
:100100000CB50020019000906C48006840F48030ED
:100110006A49086000BF6948006800F40030009038
:100120000198401C0190009818B90198B0F5A06F93
:10013000F1D16248006800F4003010B10120009055
:1001400001E0002000900098012843D15C4800683D
:1001500040F010005A4908600846006820F003008B
:1001600008600846006840F0010008605348406895
:10017000524948600846406848600846406840F474
:10018000806048600846406820F47C10486008465B
:10019000406840F4881048600846006840F080706D
:1001A000086000BF4548006800F000700028F9D0E2
:1001B0004248406820F003004049486008464068D3
:1001C00040F00200486000BF3C48406800F00C006E
:1001D0000828F9D10CBD10B5FFF792FF10BD10B57E
:1001E0003648006840F0010034490860084640681D
:1001F000344908403149486008460068324908409F
:100200002E4908600846006820F4802008600846EF
:10021000406820F4FE0048604FF41F008860FFF73C
:10022000DAFF4FF000602949086010BD10B50021C9
:1002300000200022214B5B6803F00C0121B104294E
:1002400006D0082928D107E0214B224C236027E063
:100250001F4B204C236023E0184B5B6803F47010A5
:10026000164B5B6803F48032022303EB904022B903
:10027000194B4343174C23600DE0104B5B6803F4AC
:10028000003323B1144B4343124C236003E0104B63
:100290004343104C236003E00D4B0E4C236000BF22
:1002A00000BF064B5B68C3F303130C4CE15C094BC6
:1002B0001B68CB40074C236010BD000000100240BB
:1002C000002002400000FFF8FFFFF6FE08ED00E00E
:1002D00000127A000000002000093D000400002008
:1002E0000648804706480047FEE7FEE7FEE7FEE7D0
:1002F000FEE7FEE7FEE7FEE7FEE7FEE7DF010008B8
:10030000ED00000838B505460C46ADF80040102059
:100310008DF8030003208DF802006946284600F09E
:1003200079FF38BD10B50121054802F012FB28B154
:100330000121034802F01EFB03F099FB10BD0000F1
:100340000004004010B504469E4803F04FFA80BBFD
:100350009D480078012812D19C480078042802D1D9
:1003600000209A49087099480078022823D19848BB
:1003700090F8C200401C964981F8C2001BE09248E8
:100380000078022816D19148007838B901209049A8
:1003900081F8C20002208D4908700CE08B4800787B
:1003A000022808D100208949087001208949087075
:1003B00001E003E000BF00208349087010BD10B5C4
:1003C0000446012C11D17F4803F010FA18B901201E
:1003D0007D49087004E07C480078401C7A49087028
:1003E0004FF4FA71774803F0F6F910BD10B545F2F5
:1003F000555002F0C3FA032002F0C3FA40F6FF7032
:1004000002F0C2FA02F0C3FA02F0C6FA10BD10B54B
:100410007A2001F090F818B16FA1002003F0E3FDFD
:100420007B2001F088F818B173A1002003F0DBFDF8
:100430007C2001F080F818B177A1002003F0D3FDF3
:100440007D2001F078F818B17BA1002003F0CBFDEE
:100450007E2001F070F818B17CA1002003F0C3FDEC
:100460007F2001F068F818B17DA1002003F0BBFDEA
:1004700001F0CAF910BD10B5012000F08DFB4FF45A
:100480002011002001F09CF8012001F0A5F800BF28
:10049000392001F050F80028FAD0022001F09FF82E
:1004A000002001F0AAF8002001F0B0F8002001F0CF
:1004B000B6F810BD1CB5FFF7DEFF62B601213D2086
:1004C00001F064F901216F4800F075FF6E48006883
:1004D0004FF47A72B0FBF2F1B1F1807F01D30120C9
:1004E0001DE021F07F40401E4FF0E0225061501788
:1004F0000F22002807DA13071D0E644B00F00F04CB
:10050000241F1D5503E013071C0E614B1C5400BF34
:1005100000204FF0E022906107201061002088B198
:1005200072B600BF59480C38006800F4E0605949C1
:100530000843001D55490C390860BFF34F8F00BFB9
:1005400000BFFEE700F00CF9FFF761FFFFF74EFF79
:1005500000F0C2F903F012FB03F037FA02F0C6FD17
:1005600002F0BAFA02F02EFB342002F0AEFC02F0E8
:10057000FCFCAFF22F20AFF2B91100234FF4006260
:10058000CDE900104449454802F0A0FF4FF4FA714C
:100590000C4803F020F90BE002F000FD02F008FF28
:1005A00000F045F900F09EF903F0ACFC02F0EFF921
:1005B000F2E701B500BF0098411E00910028FAD172
:1005C00008BD000078020020140000201800002060
:1005D000840200201600002045787465726E616CFC
:1005E000205265736574206F636375727265642E43
:1005F0002E2E2E0D0A000000506F776572204F6E70
:10060000205265736574206F636375727265642E22
:100610002E2E2E0D0A000000536F667477617265EE
:10062000207265736574206F636375727265642EE2
:100630002E2E2E0D0A00000052657365742062791B
:1006400020495744472E2E2E0D0A0000526573652F
:100650007420627920575744472E2E2E0D0A000031
:100660005265736574206279204C6F772D706F77B7
:100670006572206D616E6167656D656E742E2E2EDC
:100680000D0A0000000230000000002018ED00E01C
:1006900000E400E00000FA05000C0140080600201C
:1006A00010B540F201126749674804F0C1FC10BD63
:1006B0002DE9F04740F201126349624804F0E3FC7F
:1006C00008B9BDE8F08772B6DFF87C9100250024F8
:1006D00004E019F804000544601C04B2FD2CF8D3B2
:1006E0005948C0F8FD5000F076FA00240DE0554955
:1006F00001EB842000F0B4FA0746042F03D000F089
:1007000076FA62B6DDE7601C04B2002CEFD04E4EE4
:1007100000241DE0A046E21704EB9272921056F8F6
:100720002210484AA01800F06BFB0746E11704EBC3
:100730009171891056F82110444A2244D2F8002CB5
:10074000914203D000F053FA62B6BAE7201D04B21A
:10075000B4F5807FDED900F04AFA62B600BFB0E798
:100760002DE9F0410026002540F2011235493648B6
:1007700004F05EFC344F00BF002403E0385D054404
:10078000601C04B2FD2CF9D32F48D0F8FD00A8421C
:1007900000D001262C48008840F20111884203D085
:1007A0000846294908800126274890F8C200FF28FA
:1007B00004D10120244981F8C20001262248807812
:1007C000FF280AD140212048801C04F04AFC20A1C7
:1007D0001D48801C04F064FC01261B4890F8420070
:1007E000FF280AD140211848423004F03AFC1EA1EB
:1007F0001548423004F054FC01260EB1FFF758FFB3
:10080000BDE8F08110B5014600230C4600BF002270
:1008100003E0A05C0344501C02B2FD2AF9D3D1F8D6
:10082000FD00984201D0002010BD0120FCE710B56A
:100830001348007820B1002011490870FFF738FFF5
:1008400010BD000000FC00088402002000F0000839
:10085000494B59204B494E48204348414F20515560
:1008600059204B48414348004E475559454E205664
:10087000414E204120353942312D38353634320051
:100880001600002000BF1048006800F4E0600F4927
:100890000843001D0C490860BFF34F8F00BF00BF25
:1008A000FEE710B502F064FF094802F08FFE10BDAC
:1008B00010B5082002F0F6F828B1012005490870AB
:1008C000082002F000F910BD0CED00E00000FA0570
:1008D000080600204400002010B56421664802F09C
:1008E0007AFF10BD2DE9F04100250126624802F093
:1008F0007DFF08B1BDE8F081FA215F4802F06BFF8F
:100900005E48007830B1012815D002287ED0032837
:100910007DD193E05A495B4804F0C2FB012059495C
:10092000491E087058A15748403004F0C3FF012009
:10093000524908709DE002F03FFF56490968451A88
:1009400055480068854203D900205449086004E0F6
:1009500051480068401B514908605048006818B968
:1009600000204649087084E0002408E044484030F4
:10097000005D202801D0002607E0601C84B24048BA
:10098000403004F079FBA042F0D800BF26B13C49CA
:100990003C4804F085FB04E039494031394804F013
:1009A0007FFB3E480068B0F5616F16D23B48006897
:1009B0003C21B0FBF1F201FB120738480068B0FBA4
:1009C000F1F0B0FBF1F201FB12083B46424634A1C4
:1009D0002C48403004F06EFF1DE0304800683C2198
:1009E000B0FBF1F0B0FBF1F201FB12072B480068FD
:1009F000B0FBF1F0B0FBF1F01821B0FBF1F201FB1C
:100A000012083B46424626A11E4801E004E02CE0C5
:100A1000403004F04FFF2CE01948801E90F8C220AF
:100A200022A1184804F046FF00201649491E08700C
:100A300015A11448403004F03DFF1AE01E4802F0B2
:100A4000D5FE18B900200D49087012E00C4980311C
:100A50000C4804F025FB01200A49491E08700AA130
:100A60000848403004F026FF03E0002003490870E6
:100A700000BF00BF00BF3DE7940300201800002026
:100A800086020020A50600202020202020202020F3
:100A900000000000240000201C0000202000002096
:100AA0002532643A253032640000000049443A257A
:100AB00030326420200000008803002031490143C7
:100AC000314A1160704770B5002100230F22C478AD
:100AD00004B32D4C246804F4E064C4F5E064210AF6
:100AE000C1F10403CA40447804FA03F18478144045
:100AF00021430901254C0678A155047804F01F050F
:100B00000124AC4005786D11AD0005F1E025C5F874
:100B1000004109E0047804F01F050124AC401C4D9D
:100B20000678761145F8264070BD1A4A0A400243FD
:100B3000154B1B1F1A60704739B1134A121D1268FA
:100B40000243114B1B1D1A6006E00F4A121D12686A
:100B500082430D4B1B1D1A607047042808D14FF0CB
:100B6000E021096941F004014FF0E022116107E042
:100B70004FF0E021096921F004014FF0E0221161FA
:100B8000704700000000FA050CED00E000E400E012
:100B900080E100E080FFFF1F01460020FE4A106850
:100BA00000F03800084310607047FB49096821F0E5
:100BB0000801F94A11601146096801431160704744
:100BC000F549096821F01001F34A116011460968DE
:100BD000014311607047F148EF494860F0484860B0
:100BE0007047EE48EC494860ED4848607047EA4875
:100BF000006940F08000E84908617047E6480069F4
:100C000040F08000E449086170470420E249C96867
:100C100001F0010109B101200EE0DF49C96801F0CE
:100C2000040109B1022007E0DB49C96801F01001A5
:100C300009B1032000E00420704700B502460423F8
:100C4000FFF7E3FF034603E0FFF7DFFF0346521E13
:100C5000012B01D1002AF7D102B90523184600BDA6
:100C600030B5044604254FF43020FFF7E6FF054673
:100C7000042D17D1C848006940F00200C649086138
:100C800008464461006940F0400008614FF430209C
:100C9000FFF7D3FF0546C048006941F6FD710840E3
:100CA000BD490861284630BD10B504244FF43020FA
:100CB000FFF7C3FF0446042C16D1B748006940F083
:100CC0000400B54908610846006940F04000086129
:100CD0004FF43020FFF7B1FF0446AF48006941F6FA
:100CE000FB710840AC490861204610BD00B50246C2
:100CF0000423FFF78AFF034603E0FFF786FF03465E
:100D0000521E012B01D1002AF7D102B90523184642
:100D100000BD10B504244FF43020FFF7E7FF044670
:100D2000042C16D19C48006940F004009A490861DF
:100D30000846006940F0400008614FF43020FFF79A
:100D4000D5FF04469448006941F6FB71084092497A
:100D50000861204610BD00208F49C96901F00201D9
:100D600009B1012000E00020704730B5A52504241A
:100D7000FFF7F1FF00B100254FF43020FFF75DFFD2
:100D80000446042C3AD185488349886084488860A9
:100D90000846006940F0200008610846006940F0FC
:100DA000400008614FF43020FFF747FF0446042C51
:100DB0001BD17948006941F6DF7108407649086126
:100DC0000846006940F01000086176480580E0029E
:100DD000FFF733FF0446052C10D06F48006941F639
:100DE000EF7108406C49086108E0052C06D06A489C
:100DF000006941F6EF71084067490861204630BD3F
:100E000078B506460C46042500200090E802FFF75E
:100E100014FF0546042D24D15F48006940F001000D
:100E20005D4908613480E802FFF707FF0546042D9D
:100E300010D1B01C0090200C00990880E802FFF748
:100E4000FCFE05465448006941F6FE7108405249CF
:100E5000086106E05048006941F6FE7108404E49BD
:100E60000861284678BD70B504460D460426F00298
:100E7000FFF7E3FE0646042E11D14748006940F013
:100E80000100454908612580F002FFF7D6FE0646BD
:100E90004148006941F6FE7108403F49086130460B
:100EA00070BD70B505460E460424E002FFF7C5FE8E
:100EB0000446042C17D1394837498860384888607F
:100EC0000846006940F0100008612E80E002FFF73C
:100ED000B4FE0446052C06D02F48006941F6EF7198
:100EE00008402D490861204670BD2DE9F0430446B5
:100EF0004FF6FF763746B046B1460425E443E6B2E6
:100F0000C4F30727C4F307484FEA1469E802FFF760
:100F100094FE0546042D49D120481F498860204889
:100F200088600846006940F010000861FF2E06D076
:100F30001C4808300680E802FFF77FFE0546042DB6
:100F400008D1FF2F06D017480A300780E802FFF7C4
:100F500074FE0546042D0AD1B8F1FF0F07D01148E1
:100F60000C30A0F80080E802FFF767FE0546042D6C
:100F70000AD1B9F1FF0F07D00A480E30A0F800904F
:100F8000E802FFF75AFE0546052D0FD0024800691A
:100F900041F6EF71084007E0002002402301674559
:100FA000AB89EFCD00F8FF1F664908612846BDE810
:100FB000F08330B5054604244FF43020FFF73DFEA2
:100FC0000446042C41D160485E4988605F488860CF
:100FD0000846006940F0200008610846006940F0BA
:100FE000400008614FF43020FFF727FE0446042C30
:100FF00022D15448006941F6DF7108405149086127
:101000000846006940F0100008611DB100205049F9
:10101000088002E0A5204E4908804FF43020FFF7F9
:101020000CFE0446052C10D04648006941F6EF71CD
:1010300008404449086108E0052C06D04148006991
:1010400041F6DF7108403F490861204630BDF0B5E8
:1010500005460E46174604243B483A4988603B48FB
:101060008860E002FFF7E9FD0446042C19D13548F9
:10107000006940F010003349086147F0F800304340
:1010800028433349891C0880E002FFF7D6FD044657
:10109000052C06D02B48006941F6EF71084029491C
:1010A00008612046F0BD2748C06980087047254880
:1010B000006A704700202349096801F0200109B146
:1010C000012000E00020704729B11E4A1269024346
:1010D0001C4B1A6104E01B4A12698243194B1A61C6
:1010E000704701460020012908D1164AD26902F052
:1010F00001020AB1012008E0002006E0114AD2688E
:101100000A400AB1012000E0002070470D49C86084
:10111000704704200B49C96801F0010109B10120A1
:101120000EE00849C96801F0040109B1022007E096
:101130000449C96801F0100109B1032000E004204E
:10114000704700000020024023016745AB89EFCDC6
:1011500000F8FF1F10B50446CC48844208D1012195
:10116000042000F02DFB0021042000F029FB46E0C4
:10117000C748844208D10121082000F021FB00214A
:10118000082000F01DFB3AE0C248844208D101214A
:10119000102000F015FB0021102000F011FB2EE0C4
:1011A000BD48844208D10121202000F009FB002124
:1011B000202000F005FB22E0B848844208D101213C
:1011C000402000F0FDFA0021402000F0F9FA16E07E
:1011D000B348844208D10121802000F0F1FA0021B7
:1011E000802000F0EDFA0AE0AE48844207D10121E8
:1011F000801500F0E5FA0021A01500F0E1FA10BD1D
:1012000010B50121084600F0DBFA0021012000F0B2
:10121000D7FA10BD2DE9F041024600250026002036
:1012200000230024002791F803C00CF00F0591F86B
:1012300003C00CF0100CBCF1000F03D091F802C0F9
:101240004CEA050591F800C0BCF1000F31D01468DC
:1012500000202BE04FF0010C0CFA00F3B1F800C0B5
:101260000CEA03069E4220D183004FF00F0C0CFACB
:1012700003F7BC4305FA03FC4CEA040491F803C0ED
:10128000BCF1280F06D14FF0010C0CFA00FCC2F89B
:1012900014C00AE091F803C0BCF1480F05D14FF02B
:1012A000010C0CFA00FCC2F810C0401C0828D1D375
:1012B0001460B1F800C0BCF1FF0F34DD54680020A9
:1012C0002EE000F1080C4FF0010808FA0CF3B1F819
:1012D00000C00CEA03069E4221D183004FF00F0CA0
:1012E0000CFA03F7BC4305FA03FC4CEA040491F83A
:1012F00003C0BCF1280F05D100F1080C08FA0CF866
:10130000C2F8148091F803C0BCF1480F07D100F176
:10131000080C4FF0010808FA0CF8C2F81080401CC5
:101320000828CED35460BDE8F0814FF6FF710180EC
:10133000022181700421C170704702460020936829
:101340000B400BB1012000E0002070470146886887
:1013500080B2704702460020D3680B400BB10120D9
:1013600000E0002070470146C86880B27047016104
:101370007047416170470AB1016100E04161704707
:10138000C16070474FF480320A438261816182619B
:1013900082698269704702460020434B18684FF605
:1013A0008073184040EA021008433F4B18607047B2
:1013B0003E49C8617047F0B50A4600230024002169
:1013C000002500F00046B6F1004F02D1364EF1691B
:1013D00001E0354E7168C0F3034583B200F4401656
:1013E000B6F5401F08D121F070612F4E766826F0C7
:1013F00070662D4F7E6012E000F48016B6F5801FF7
:1014000006D1032606FA05F4A14341F0706106E017
:10141000460D360103FA06F6B14341F0706122B180
:10142000460D360103FA06F6314300F00046B6F1E8
:10143000004F02D11C4EF16101E01B4E7160F0BD06
:1014400030B500228B071C0F0F2303FA04F2164B52
:1014500008338C1053F824309343134C08348D1008
:1014600044F8253023468C1053F824308C07240F81
:1014700000FA04F423430C4C08348D1044F8253052
:1014800030BD0A49DC3108607047000000080140A7
:10149000000C014000100140001401400018014000
:1014A000001C0140002001400000014000002042DB
:1014B000DF48006840F00100DD49086008464068E8
:1014C000DC490840DA49486008460068DA490840C3
:1014D000D74908600846006820F480200860084664
:1014E000406820F4FE0048604FF41F008860704799
:1014F000CF49096821F48031CD4A1160114609684D
:1015000021F480211160B0F5803F03D0B0F5802F29
:101510000ED106E0C649096841F48031C44A116021
:1015200007E0C349096841F4A021C14A116000E005
:1015300000BF00BF704710B5014600220023002005
:101540004A11012A02D1BA4C236806E0022A02D1CC
:10155000B74C236A01E0B64C636A01F01F02012414
:1015600094401C400CB1012000E0002010BD38B5B3
:10157000002000900024002500BF3120FFF7DBFF92
:1015800005460098401C00900098B0F5A06F01D06F
:10159000002DF2D03120FFF7CEFF08B1012400E08A
:1015A0000024204638BD01460020A14A106820F0E2
:1015B000F80040EAC10010607047A0490860704719
:1015C000024600209A4B586820F47C1042EA01033E
:1015D0001843974B58607047984908667047014612
:1015E0000020934A506820F0030008435060704781
:1015F0008F48406800F00C007047014600208C4A7C
:10160000506820F0F0000843506070470146002009
:10161000874A506820F4E0600843506070470146F4
:101620000020834A506820F4605040EAC1005060B6
:10163000704729B17E4A527A02437D4B5A7204E0C8
:101640007B4A527A82437A4B5A7270477B49D8312F
:101650000860704701460020754A506820F44040F9
:101660000843506070470021714A20321170704A5F
:1016700082F82010012802D004280AD104E00121B8
:101680006B4A2032117005E00521694A2032117041
:1016900000E000BF00BF70476949086070476449B7
:1016A000096A0143624A116270476549443908601A
:1016B000704730B500210022002400235C4D6D6886
:1016C00005F00C0121B1042905D0082923D105E03A
:1016D0005C4D056022E05B4D05601FE0544D6D6878
:1016E00005F47012524D6D6805F48034022505EB47
:1016F00092421CB9544D554305600BE04C4D6D684A
:1017000005F400351DB1504D5543056002E04D4DC7
:101710005543056002E04B4D056000BF00BF444DDE
:101720006D6805F0F0010909484D6B5C0568DD4006
:1017300045603F4D6D6805F4E061090A434D6B5CFF
:101740004568DD4085603A4D6D6805F46051C90A11
:101750003E4D6B5C4568DD40C560354D6D6805F4F8
:101760004041890B3A4D6B5CC568B5FBF3F50561EB
:1017700030BD29B12E4A526902432D4B5A6104E013
:101780002B4A526982432A4B5A61704729B1284A31
:1017900092690243264B9A6104E0254A926982438A
:1017A000234B9A61704729B1214AD2690243204BE9
:1017B000DA6104E01E4AD26982431D4BDA61704748
:1017C00029B11B4AD2680243194BDA6004E0184A77
:1017D000D2688243164BDA60704729B1144A126905
:1017E0000243134B1A6104E0114A12698243104B01
:1017F0001A61704712494039086070470F49C86440
:1018000070470B49C87170470948406A40F08070C2
:1018100007494862704701460020054A92680A401D
:101820000AB1012000E0002070470149887270472A
:10183000001002400000FFF8FFFFF6FE00004242E9
:101840008004424200127A0000093D002800002076
:101850003800002010B50446BE48844208D101215A
:101860008014FFF7ADFF0021A014FFF7A9FF16E0D9
:10187000B948844208D101210014FFF7AEFF0021CE
:101880002014FFF7AAFF0AE0B448844207D10121DF
:10189000C013FFF7A2FF0021E013FFF79EFF10BD6A
:1018A00010B50022028802F441520B884C88234371
:1018B0008C882343CC8823430C8923434C892343BE
:1018C0008C892343CC8923431A430280838B4FF2B4
:1018D000FF74234083830B8A038210BD2DE9F04FF0
:1018E00085B005460C464FF0000902274FF000086E
:1018F0004FF0010B0026B246A88B4FF24001084082
:10190000A88302202884B5F81C90A068022801D181
:1019100000BF38E0A08810B94FF0010B01E04FF094
:10192000020B8D48854200D100E000BF6846FFF7FA
:10193000C0FEDDF800A0E088B0F5007F0AD14FEAD4
:101940001A2000EB80004000A168B0FBF1F0401DC0
:1019500086B20BE04FEA4B10BAFBF0F000EB8000D0
:101960004000A168B0FBF1F0401D86B20A20B6FB32
:10197000F0F606F00108A6EB0800C0F34F074FF69B
:10198000FF7000EA0828022F01DBFF2F02DD02278B
:101990004FF00008E08840EA080038432884A08817
:1019A000A1890843618808432188084340F4006006
:1019B00040EA0909A5F81C9005B0BDE8F08F0021A8
:1019C000018041808180C180018141818181C1810B
:1019D0000721018270470021018041808180C18000
:1019E0000221816000218181704721B1028842F08B
:1019F0004002028004E002884FF6BF731A40028062
:101A0000704721B1828B42F48062828304E0828B32
:101A10004FF6FF331A408283704730B5002400230D
:101A20000C110125A540ABB21AB185881D438580F4
:101A300002E085889D43858030BD1AB183880B43C1
:101A4000838002E083888B43838070478181704765
:101A50000146888970474FF6FF62914204D00288A0
:101A600042F48072028004E002884FF6FF631A405D
:101A70000280704721B1828842F00402828004E033
:101A800082884FF6FB731A408280704702884FF2BB
:101A9000FF731A40028002880A430280704701885F
:101AA00041F480510180704721B1028842F4005214
:101AB000028004E002884DF6FF731A4002807047EE
:101AC00002460020012901D0108B00E0908A704767
:101AD0000146088A7047B1F5804F04D1028842F46C
:101AE0008042028004E002884BF6FF731A400280B5
:101AF00070470246002013890B400BB1012000E023
:101B000000207047CA4302817047F0B502460020AA
:101B100000240023002501F00F070126BE40B4B2C7
:101B20000B1101269E40B3B2968806EA030516897A
:101B3000264016B10DB1012000E00020F0BD10B527
:101B4000002201F00F040123A3409AB2D343038182
:101B500010BD00000030014000380040003C004053
:101B600010B50446FE48844208D10121C014FFF795
:101B700027FE0021E014FFF723FEC4E0B4F1804FFC
:101B800008D101210846FFF728FE00210120FFF7B8
:101B900024FEB8E0F348844208D101210220FFF777
:101BA0001CFE00210220FFF718FEACE0EE48844244
:101BB00008D101210420FFF710FE00210420FFF7C7
:101BC0000CFEA0E0E948844208D101210820FFF77B
:101BD00004FE00210820FFF700FE94E0E448844260
:101BE00008D101211020FFF7F8FD00211020FFF798
:101BF000F4FD88E0DF48844208D101212020FFF76E
:101C0000ECFD00212020FFF7E8FD7CE0DA4884426B
:101C100008D101214014FFF7D3FD00216014FFF724
:101C2000CFFD70E0D548844209D10121C804FFF7F7
:101C3000C7FD00214FF40020FFF7C2FD63E0D0484C
:101C4000844209D101210805FFF7BAFD00214FF4B4
:101C50008010FFF7B5FD56E0CA48844209D1012142
:101C60004805FFF7ADFD00214FF40010FFF7A8FD78
:101C700049E0C548844208D101214020FFF7ADFD6D
:101C800000214020FFF7A9FD3DE0C048844208D173
:101C900001218020FFF7A1FD00218020FFF79DFD9D
:101CA00031E0BB48844208D101218015FFF795FD42
:101CB0000021A015FFF791FD25E0B648844209D127
:101CC00001210804FFF77CFD00214FF48030FFF76D
:101CD00077FD18E0B048844209D101214804FFF79C
:101CE0006FFD00214FF40030FFF76AFD0BE0AB48B9
:101CF000844208D101218804FFF762FD00214FF4DE
:101D00008020FFF75DFD10BD00220288944B9842B1
:101D10000ED0994B98420BD0B0F1804F08D0914B28
:101D2000984205D0904B984202D0904B984204D1F3
:101D30004FF68F731A404B881A438D4B984207D049
:101D40008C4B984204D04FF6FF431A40CB881A437D
:101D500002808B8883850B880385814B98420BD04A
:101D6000854B984208D08B4B984205D08A4B9842BD
:101D700002D08A4B984201D10B7A038601238382D9
:101D8000704770B5002400220023058C4FF6FE76C4
:101D900035400584028C8388048B4FF68F752C4068
:101DA000B51E2C400D882C43751E2A400D892A43F0
:101DB0004D882A436A4DA8420BD06F4DA84208D0E7
:101DC000744DA84205D0744DA84202D0734DA8426C
:101DD00013D14FF6F7752A404D892A434FF6FB750C
:101DE0002A408D882A434FF6FF652B404FF6FF555A
:101DF0002B408D892B43CD892B4383800483CD8851
:101E00008586028470BD70B5002400220023058CF5
:101E10004FF6EF7635400584028C8388048B48F6B4
:101E2000FF752C404FF6FF452C400D884FF6FF768E
:101E300006EA05252C434FF6DF752A400D8906EA90
:101E400005152A434D8806EA05152A43444DA84244
:101E500002D0494DA8421DD14FF67F752A404D89C9
:101E60004FF6FF7606EA05152A434FF6BF752A405E
:101E70008D8806EA05152A434FF6FF352B404FF2B1
:101E8000FF752B408D8906EA85052B43CD8906EA2F
:101E900085052B4383800483CD880587028470BD2C
:101EA00070B5002400220023058C4FF6FF663540F4
:101EB0000584028C8388848B4FF68F752C404FF6F7
:101EC000FC752C400D882C434FF6FF552A400D8998
:101ED0004FF6FF7606EA05252A434D8806EA0525D2
:101EE0002A431F4DA84202D0234DA8421DD14FF2D4
:101EF000FF752A404D894FF6FF7606EA05252A43ED
:101F00004FF6FF352A408D8806EA05252A434EF60E
:101F1000FF752B404DF6FF752B408D8906EA0515A0
:101F20002B43CD8906EA05152B4383808483CD8816
:101F30008587028470BD70B5002200230024058CC3
:101F40004EF6FF7635400584038C8488828B48F6F4
:101F5000FF752A404FF6FF452A400D8820E000001B
:101F6000002C01400004004000080040000C00402C
:101F7000001000400014004000340140004C0140BB
:101F8000005001400054014000180040001C004077
:101F90000020004000400140004401400048014052
:101FA0004FF6FF7606EA05252A434DF6FF752B40CE
:101FB0000D8906EA05352B434D8806EA05352B4386
:101FC000FA4DA84202D0FA4DA84208D14BF6FF754F
:101FD0002C408D894FF6FF7606EA85152C438480C8
:101FE0008283CD88A0F84050038470BD828B4FF26D
:101FF000FF331A408283828B4FF6FF7303EA01237B
:102000001A4382837047F0B50C4615460022002122
:102010000026078C4EF6FF7C07EA0C070784828BAC
:10202000018C4FF6FF7707EA043640F6FF473A4047
:102030004FF6FF7707EA05273A434FF6FF7707EA9F
:1020400003373A43D94FB8420ED0D94FB8420BD0DC
:10205000B0F1804F08D0D74FB84205D0D64FB84224
:1020600002D0D64FB84206D14DF6FF77394046F43C
:102070008057394305E047F6FF57394044F480570D
:10208000394382830184F0BD828B4FF6F3731A408B
:102090008283828B0A4382837047F0B50C461546D3
:1020A000002200210026078C4FF6FF6C07EA0C0780
:1020B0000784828B018C4FF6FF7707EA04264FF6E0
:1020C0000C773A404FF6FF7707EA03172F433A435E
:1020D000B64FB8420ED0B64FB8420BD0B0F1804FD9
:1020E00008D0B44FB84205D0B34FB84202D0B34F76
:1020F000B84206D14FF6FF57394046F4807739434E
:1021000005E04FF2FF57394044F48077394382832A
:102110000184F0BD028B4FF2FF331A400283028B21
:102120004FF6FF7303EA01231A4302837047F0B5A9
:102130000C461546002200210026078C4FF6EF7C46
:1021400007EA0C070784028B018C4FF6FF7707EA3A
:10215000041640F6FF473A404FF6FF7707EA033789
:102160003A434FF6FF7707EA05273A438F4FB842C5
:102170000ED08F4FB8420BD0B0F1804F08D08D4FAA
:10218000B84205D08C4FB84202D08C4FB84206D12D
:102190004FF6DF77394046F01007394305E04FF638
:1021A0005F77394044F01007394302830184F0BD62
:1021B000028B4FF6F3731A400283028B0A430283A9
:1021C0007047F0B50C46154600220021068C4FF6EC
:1021D000FE773E400684028B018C4FF60C7632402F
:1021E0007E1C06EA03162E433243704EB0420ED0D8
:1021F0006F4EB0420BD0B0F1804F08D06D4EB04260
:1022000005D06D4EB04202D06C4EB04206D14FF6B2
:10221000FD76314044F00106314305E04FF6F57696
:10222000314044F00106314302830184F0BD70B5B2
:1022300005460C465D4885420ED05D4885420BD070
:10224000B5F1804F08D05B48854205D05A48854299
:1022500002D05A48854200D100E000BF208850B922
:102260002389A28861882846FFF7ABFFE1882846CA
:10227000FFF79EFF25E0208804280AD12389A28841
:1022800061882846FFF753FFE1882846FFF742FFA1
:1022900017E0208808280AD12389A2886188284667
:1022A000FFF7FBFEE1882846FFF7EEFE09E02389F1
:1022B000A28861882846FFF7A6FEE1882846FFF736
:1022C00095FE70BD2DE9F04105460C46002601271C
:1022D000608808B9022600E00026A088012801D104
:1022E000022700E001272088A0B92389A2886188FD
:1022F0002846FFF766FFE1882846FFF759FF238944
:102300003A4631462846FFF712FFE1882846FFF794
:1023100001FF13E02389A28861882846FFF707FFA1
:10232000E1882846FFF7F6FE23893A4631462846DB
:10233000FFF747FFE1882846FFF73AFFBDE8F08145
:102340000A884B881A438B881A43CB881A430B8917
:102350001A434B891A438B891A43A0F844207047CB
:102360004FF6FF71818000210180C18041800172A0
:1023700070470021018041808180C18001814181BD
:102380008181C181704700210180418001218180CC
:102390000021C1800181704700210180418081803E
:1023A000C18001814181818170470000002C014082
:1023B000003401400004004000080040000C0040D0
:1023C00021B1028842F00102028004E002884FF647
:1023D000FE731A400280704731B1B0F8442042F4D5
:1023E0000042A0F8442005E0B0F84420C2F30E02F9
:1023F000A0F8442070471AB183890B43838102E01F
:1024000083898B43838170478182704741EA02034D
:10241000A0F8483070471AB183890B43838102E0EA
:1024200083898B438381704701894FF6F87211408D
:10243000018170470A46002101894FF68F731940C8
:1024400011430181704730B504460D4629462046A8
:10245000FFF7F0FF208940F00700208130BD2DE913
:10246000F04104460D4616461F46602D06D13B46F8
:10247000012231462046FFF75AFE05E03B46012285
:1024800031462046FFF79DFE29462046FFF7D2FF42
:10249000208940F007002081BDE8F08130B50C466E
:1024A00000210189C9B24FF6FF7505EA03251543DE
:1024B00025432943018130BD2DE9F04105460E46F3
:1024C00017469846002443463A4631462846FFF7C9
:1024D000E5FF2C894FF6F870044044F007044FF6EE
:1024E0008F70044044F070042C81BDE8F081F0B599
:1024F00004460D4616461F463B46324629462046B0
:10250000FFF7CCFF208940F480402081F0BD018599
:10251000828270470A46002101884FF68F73194066
:10252000114301807047F0B50C4615461E46002148
:10253000002200230189028B038C4FF6F877394083
:1025400021434FF6FC473A4040F201173A434FF619
:10255000DD773B404FF6FF7707EA06172F433B43F3
:10256000018102830384F0BD0A460021018B4FF6EE
:102570008F7319401143018370470A460021018B74
:1025800048F6FF7319404FF6FF7303EA022319431D
:10259000018370470A460021818B4FF68F731940E3
:1025A0001143818370470A460021818B48F6FF73EF
:1025B00019404FF6FF7303EA0223194381837047E2
:1025C00021B1028842F08002028004E002884FF6C6
:1025D0007F731A400280704721B1828842F0040262
:1025E000828004E082884FF6FB731A408280704735
:1025F00021B1828842F00802828004E082884FF68E
:10260000F7731A408280704721B1828842F001023C
:10261000828004E082884FF6FE731A408280704701
:102620000A460021018B4FF6F773194011430183CD
:1026300070470A460021018B4FF2FF7319404FF695
:10264000FF7303EA02231943018370470A460021FE
:10265000818B4FF6F77319401143818370470A4607
:102660000021818B4FF2FF7319404FF6FF7303EA8D
:1026700002231943818370470A460021018B4FF6DC
:10268000FB7319401143018370470A460021018BF7
:102690004FF6FF3319404FF6FF7303EA0223194345
:1026A000018370470A460021818B4FF6FB73194066
:1026B0001143818370470A460021818B4FF6FF3317
:1026C00019404FF6FF7303EA0223194381837047D1
:1026D0000A460021018B4FF67F7319401143018395
:1026E00070470A460021018BC1F30E014FF6FF73BC
:1026F00003EA02231943018370470A460021818BB4
:102700004FF67F7319401143818370470A460021B9
:10271000818BC1F30E014FF6FF7303EA02231943C5
:10272000818370470A460021018C4FF6FD731940E2
:102730001143018470470A460021018C4FF6F7735C
:1027400019401143018470470A460021018C4FF65D
:10275000DF7319404FF6FF7303EA02131943018434
:1027600070470A460021018C4FF67F7319404FF6DF
:10277000FF7303EA02131943018470470A460021DC
:10278000018C4FF6FF5319404FF6FF7303EA022303
:102790001943018470470A460021018C4FF2FF73F0
:1027A00019404FF6FF7303EA02231943018470476F
:1027B0000A460021018C4DF6FF7319404FF6FF7356
:1027C00003EA023319430184704730B50023012422
:1027D0008C40A3B2048C9C430484048C02FA01F55F
:1027E000ADB22C43048430BD30B5002304248C40AA
:1027F000A3B2048C9C430484048C02FA01F5ADB2AC
:102800002C43048430BD70B50346002000241846D4
:10281000183001258D40ACB21D8CA5431D8409B133
:10282000082909D100EB6100056825F070050560F5
:102830000568154305600EE00D1FC5F34E052844DD
:10284000056825F4E045056005684FF6FF7606EA61
:1028500002263543056070BD21B1028842F00202B4
:10286000028004E002884FF6FD731A400280704730
:1028700021B1028842F00402028004E002884FF68F
:10288000FB731A400280704721B1828842F08002B7
:10289000828004E082884FF67F731A4082807047FE
:1028A00002884FF6F7731A40028002880A430280BA
:1028B000704782884FF68F731A40828082880A435D
:1028C0008280704702894FF6F8731A4002810289AC
:1028D0000A430281704702894FF67F731A400281D2
:1028E00002890A430281704781847047818570475D
:1028F000818670470187704781877047A0F8401034
:10290000704702884FF6FF431A40028002880A434C
:10291000028070470146888E70470146088F7047D5
:102920000146888F70470146B1F840007047014664
:10293000888C70470146088D704702460020138A34
:102940000B400BB1012000E000207047CA43028217
:10295000704730B50246002000230024158A05EA9E
:102960000103958905EA010413B10CB1012000E0CF
:10297000002030BDCA430282704700000E49086043
:1029800070470D49486070470B49886070474AF6A8
:10299000AA200949086070474CF6CC4006490860F7
:1029A000704701460020044AD2680A400AB101205B
:1029B00000E0002070470000003000400020444943
:1029C0000860091D0860091D0860091D086041486C
:1029D0003F4914310860704700213D498279002A3F
:1029E0003AD00A46126803689A430B461A600A1DD9
:1029F000126803689A430B1D1A60027911440A6831
:102A000003681A430A60324A0832126803689A431C
:102A10002F4B08331A601A1D126803689A432C4B17
:102A20000C331A604279102A0ED11A1F12680368FB
:102A30001A43274B08331A601A1D126803681A4399
:102A4000234B0C331A600DE02149427911440A6886
:102A500003681A430A6005E0027911440A680368B2
:102A60009A430A6070470021016001710C21417195
:102A70000021817170471649103109680143144AD9
:102A800010321160704701460020114A143212685A
:102A90000A400AB1012000E0002070470C491431BF
:102AA00008607047014600200022094B1B6803EABA
:102AB0000102074B14331B680B4013B10AB101200C
:102AC00000E00020704702491431086070470000A0
:102AD00000040140FFFF0F0000B587B0012108038B
:102AE000FEF754FE1020ADF804008DF80700012019
:102AF0008DF8060001A9FC48FEF78CFB1021FA486E
:102B0000FEF735FCA020ADF8040001208DF806008A
:102B100018208DF8070001A9F348FEF77BFB402041
:102B2000ADF8040004208DF8070001A9EE48FEF777
:102B300071FB0820ADF814000120ADF81000022050
:102B4000ADF80E000020ADF80C000720ADF818001D
:102B50000020ADF80800ADF816004FF48270ADF813
:102B60000A004FF40070ADF8120002A9DF48FEF72A
:102B700097FE0021DD48FEF797FF0121DB48FEF7B5
:102B800034FF00BF0221D948FEF7B3FF0028F9D077
:102B9000D648FEF75DFF07B000BD70B50446D44DC2
:102BA0002146D248FEF752FF00E06D1E0121CF48BA
:102BB000FEF79FFF08B9002DF7D1CC48FEF748FF7C
:102BC000C0B270BD1FB50120ADF80C0003208DF818
:102BD0000E0010208DF80F0003A9C648FEF71AFB5F
:102BE0000820ADF80C0001208DF80E0048208DF86B
:102BF0000F0003A9BC48FEF70DFB03210020FEF7E0
:102C00001FFC0820FFF75FFF00208DF8040008205C
:102C100000900C208DF8050001208DF80600684614
:102C2000FFF7DAFE09208DF8080000208DF8090072
:102C30000F208DF80A0001208DF80B0002A8FDF787
:102C400042FF1FBD10B50121AA48FEF790FB4FF4CB
:102C5000FA7000F0B4FD0121A648FEF78AFB4FF49C
:102C6000FA7000F0ACFD10BD10B504462046FFF729
:102C700094FF10BD10B510219B48FEF778FB012092
:102C800000F09DFD10219848FEF773FB012000F035
:102C900096FD10219448FEF76AFB012000F08FFD9D
:102CA00010219148FEF765FB4EF6602400E0641E9B
:102CB00040218D48FEF741FB08B1002CF7D10CB93B
:102CC000FFF7C0FF3020FFF7CFFF4EF6602400E093
:102CD000641E40218448FEF730FB08B1002CF7D178
:102CE0000CB9FFF7AFFF10217F48FEF740FB10BD86
:102CF0002DE9F04107460D46164610217A48FEF7A9
:102D000038FB3846FFF7B0FF8046002405E0FF207F
:102D1000FFF7AAFF2855601C84B2B442F7DB1021EC
:102D20007148FEF724FB4046BDE8F08138B5044603
:102D300044F0C00001226946FFF7DAFF9DF8000069
:102D400038BD10B53020FFF7F1FF10BD10B53120B0
:102D5000FFF7ECFF10BD2DE9F04107460D46164682
:102D600010216148FEF705FB3846FFF77DFF8046DE
:102D7000002404E0285DFFF777FF601C84B2B442B2
:102D8000F8DB10215848FEF7F2FA4046BDE8F08122
:102D900073B50446012201A92046FFF7DCFF054672
:102DA00028467CBD10B5044606210B20FFF7F0FF36
:102DB00000210C20FFF7ECFF10210D20FFF7E8FFAA
:102DC000B1210E20FFF7E4FF3B210F20FFF7E0FFCA
:102DD000F5211020FFF7DCFF83211120FFF7D8FF3A
:102DE00013211220FFF7D4FF22211320FFF7D0FF79
:102DF000F8211420FFF7CCFF00210A20FFF7C8FFBD
:102E000015210846FFF7C4FF56212120FFF7C0FF18
:102E100010212220FFF7BCFF18210846FFF7B8FF5A
:102E200016211920FFF7B4FF6C211A20FFF7B0FF1D
:102E300003211B20FFF7ACFF40211C20FFF7A8FF58
:102E400091211D20FFF7A4FFE9212320FFF7A0FF18
:102E50002A212420FFF79CFF00212520FFF798FF5F
:102E60001F212620FFF794FF59212920FFF790FF0B
:102E700081212C20FFF78CFF35212D20FFF788FFC3
:102E800009212E20FFF784FF29210020FFF780FF72
:102E900006210220FFF77CFF04210720FFF778FFBF
:102EA00005210820FFF774FF00210920FFF770FFBC
:102EB00030211720FFF76CFFFF210620FFF768FF86
:102EC00021463E20FFF764FF10BD70B50646FFF7B0
:102ED000B9FEFFF7CFFEFFF734FF0446FFF736FFDA
:102EE00005462B46224607E000080140003001401D
:102EF00040420F00000C014020A1002001F073F8B7
:102F0000C020FFF74FFF002070BD00BF011EA0F1E1
:102F10000100FBD1704770B5044610211E48FEF732
:102F200028FA2046FFF7A0FE054610211A48FEF7B2
:102F30001EFA284670BD38B5044644F080000122D0
:102F40006946FFF7D5FE9DF8000038BD10B5044670
:102F50002046FFF7E0FF10BD70B504460D462A4637
:102F60002146FF20FFF7C4FE70BD10B53620FFF7E5
:102F7000EDFF3420FFF7EAFF10BD00000D0A4944C1
:102F8000203D2025303258202D20566572203D20CE
:102F900025303258200D0A000008014010B5444881
:102FA000007830B1012823D002284FD0032879D1EE
:102FB0006EE04048007850B100F0F7FB3E490860F1
:102FC00000203C4908700120394908700FE000F0EA
:102FD000ECFB39490968401A41F28831884206D928
:102FE00000F0E3FB344908600120314908705DE0DE
:102FF0003B20FFF79BFE18B903202D49087055E0D0
:103000003F20FFF798FF2D4908800846008818B137
:103010000846008840280CDD3620FFF797FF3A204D
:10302000FFF794FF3420FFF791FF0020204908703C
:103030003CE0224801782248FFF78EFF0221214818
:10304000FFF78AFF02201A4908702FE01B48028808
:103050001DA1002000F0C7FF01240CE01848015D0D
:103060001E4800F0C8FA1648025D1DA1002000F0BD
:10307000BAFF601CC4B2114800888442EEDB1AA17A
:10308000002000F0B0FF0320094908700EE009E0BD
:103090003620FFF75BFF3420FFF758FF002004497C
:1030A000087003E000200249087000BF00BF10BD97
:1030B0003C0000204400002040000020460000208A
:1030C000A00300204800002072665061636B6574A5
:1030D0004C656E6774682025640D0A00EC040020BE
:1030E00025303278000000000D0A000010B54FF4C2
:1030F0008072BB49BB4800F06FFABB48BB494860CF
:103100000520BB4908704FF48070488010BD2DE940
:10311000F0439DB004460F4690469946249E0020F9
:103120001C90A278B3A100F05EFF607804280CDB4D
:103130001CAD6068007828706068407868706068CE
:103140008078A8706068C078E870A078B52806D04C
:10315000B62859D0B72871D0B8286ED1A0E06078D1
:10316000402850DA6068021DA6A1002000F03BFF55
:1031700002A80AA9CDE900106168081D12AB1BAABC
:10318000A3A101F097FF02A80AA912ABCDE9001094
:10319000A8A100201B9A00F026FFAB4890F8C200BF
:1031A0001B99884200D09DE00AAB12AAA7A1A648AD
:1031B000423002F07FFB1AAB1BAAA6A102A801F0C5
:1031C00079FFA7A10020DDE91A3200F00CFF1B985F
:1031D000C0EB00108000C0EB001080001A99C1EB1A
:1031E000011100EB8100A249086000F0E5FAA14955
:1031F0000860A1480078032802D100209E49087089
:1032000001209E4908706DE06168081D12AB1BAA81
:103210009BA101F04FFF8C4890F8C2001B99884297
:1032200000D05FE012AA9AA18748801C02F042FBFE
:1032300001209249087055E000E052E00AA8009091
:103240006168081D12AB1BAA92A101F033FF7E48F2
:1032500090F8C2001B99884200D043E00AA802F00F
:103260005BF8C0EB001080001B909DF848003128EF
:1032700006D17F4800681B9908447D4908600EE02C
:103280007B491B980968884203D900207849086067
:1032900005E0774800681B99401A7549086021E0ED
:1032A0006168081D12AB1BAA75A101F003FF6648F7
:1032B00090F8C2001B99884200D013E012AA7BA1AB
:1032C000002000F090FE7C497C4800F084FA032046
:1032D0006949087012AA6EA15B48823002F0EAFACE
:1032E00000E000BF00BF0020A0701DB0BDE8F0836B
:1032F00070B504460E4615462078062852D2DFE8FF
:1033000000F0510C1E224103CA2D05D1012020706E
:1033100000206070E071A08047E0A08838B9607834
:1033200040EA05206070A088401CA08006E060781C
:1033300028436070022020700020A08035E0A57135
:103340000320207031E0A0886178884203DA607839
:103350006188884202DD0520207012E0E07928446F
:10336000E071A18870684554A088401CA0800020AE
:10337000A28871688854A0886178884201D10420AD
:10338000207012E005202070E079A84205D1607815
:103390007070A079B070002070BD49A1002000F0CD
:1033A00022FE02E00520207000BF00BFFF20F3E7EF
:1033B0001CB501A90B4800F033F980B99DF8042031
:1033C0000A490B48FFF794FF48B9012000900848CC
:1033D0004088031F002211460448FFF798FE1CBDD9
:1033E000EC030020EC04002008050020FC04002071
:1033F0004A0000206F70636F64652030782530329A
:10340000580D0A0072663A2025730D0A000000006C
:10341000253032642C255B5E2C090A0D5D2C255B62
:103420005E2C090A0D5D2C255B5E2C090A0D235DBF
:1034300000000000706172613A2025642D25732D13
:1034400025732D25730D0A00840200202573202585
:1034500073000000253032643A25303264000000E9
:1034600054696D653A2025642D25640D0A0000001D
:103470001C0000202400002018000020160000205E
:10348000253032642C255B5E2C090A0D5D0000009E
:1034900025730000253032642C255B5E2C090A0D53
:1034A0005D2C255B5E2C090A0D5D00007374722093
:1034B00025730D0A00000000C0D40100880300201D
:1034C000435243204552520D0A0000002DE9F84FA7
:1034D00004460D4616469846DDE90A9A2560A68000
:1034E000B8F1000F01D0012000E00020A071C4F865
:1034F0000890C4F80CA000206075A07908B12827B6
:1035000000E048276420E0824FF4FA602083ADF8A1
:1035100000608DF8037001208DF80200694628468E
:10352000FDF778FEBDE8F88FC1820283704770B561
:103530000446A1882068FDF700FF054600F035F934
:103540000646607D80B9A079A84208D10120607547
:103550002661A06840B10020A168884704E0E068C7
:1035600010B10020E1688847607D012824D1A0794E
:10357000A8420CD1218B20690844B0421CD2A0681B
:1035800010B10220A16888470220607514E0A0797C
:10359000A8420FD0E18A20690844B04207D2A0684F
:1035A00010B10120A16888470220607504E0002066
:1035B000607501E000206075607D022804D1A0796B
:1035C000A84201D000206075257570BD10B5044675
:1035D0002046FFF7ACFF10BD034613B109B1022A24
:1035E00002D24FF0FF307047D96000201860586059
:1035F0009A6000BFF7E710B502460B461168491CF8
:103600009068884200D800215068884202D14FF06B
:10361000FF3010BD1468D068035511600020F8E732
:10362000024650681368984202D14FF0FF3070474D
:103630005368D068C05C08705068401C5060506887
:103640009368984201D3002050600020EFE70146C4
:1036500008684A68904203D308684A68801A70472D
:1036600088684A68801A0A681044F8E710B53B4831
:10367000806820F00F00394988600846C06820F053
:10368000F0013648C160006920F47061334801617F
:10369000406920F4704131484161001530490860AB
:1036A0002E4800692D4908612D481438006820F41F
:1036B00080602B4914390860081D006820F4806080
:1036C000091D0860081F006840F48060091F086039
:1036D000081D006840F48060091D0860081D00682E
:1036E00040F48060091D0860081D006840F4806097
:1036F000091D086028200B21002807DA0A07140E8C
:10370000184A00F00F031B1FD45403E00A07130EDE
:10371000154A135400BF282000F01F0201219140D8
:103720004209920002F1E022C2F8001100BF10BD70
:1037300010B54FF48070FFF7B5F918B14FF48070F1
:10374000FFF7C1F910BD10B54FF48060FFF7AAF97B
:1037500018B14FF48060FFF7B6F910BD00000140CA
:103760001404014018ED00E000E400E070477047E9
:103770003C480068401C3B4908603B480268406880
:10378000521C40F1000038490A6048603548006822
:1037900040F2E731B0FBF1F201FB120020B93348EF
:1037A0000068401C3149086070472E480068704727
:1037B0002D490868496870472C480068704700B573
:1037C0000146FFF7F2FF024600BFFFF7EEFF801A47
:1037D0008842FAD300BD00B50246FFF7E6FF10604D
:1037E0005160D2E900031844906000BD10B5014655
:1037F000D1E9000402198868904201D0002010BD70
:10380000FFF7D3FF0246D1E900042044886008682E
:10381000904202D80868131A03E00868C0F1FF302C
:1038200083184868984201D80020E8E74868C01A21
:10383000E5E700B50246FFF7B8FF03460EE0FFF7E5
:10384000B4FF0146994203D3C81A904206D306E05A
:10385000C3F1FF300844904200D300E0EFE700BF1F
:1038600000BD00005C000020600000205800002027
:10387000014603480068405C704701490860704792
:10388000680000201FB50446B048FEF769F901A89A
:10389000FEF766FD01210220FDF785FF2F20ADF820
:1038A0000400601E80B2ADF808000020ADF80A00E8
:1038B000ADF8060001A9A548FEF726FA0121A348A4
:1038C000FEF77EFD0121A148FFF754F801221146C1
:1038D0009E48FEF790FD1D208DF8000001208DF818
:1038E00001008DF802008DF803006846FDF7EBF843
:1038F0001FBD38B505460C46ADF8004010208DF8C8
:10390000030003208DF8020069462846FDF782FC7B
:1039100038BD10B54FF480518D48FDF728FD10BD1E
:1039200010B54FF480518A48FFF7E3FF4FF4804110
:103930008748FFF7DEFF4FF400518548FFF7D9FFB6
:1039400008218348FFF7D5FF4FF400418148FFF776
:10395000D0FF4FF480717F48FFF7CBFF4FF4007129
:103960007B48FFF7C6FF40217948FFF7C2FF4FF4BD
:1039700080717748FFF7BDFF20217548FFF7B9FF39
:1039800080217348FFF7B5FF10217148FFF7B1FFA1
:10399000FFF7BFFF4FF400716D48FDF7EAFC4021CF
:1039A0006B48FDF7E6FC4FF480716948FDF7E1FCD8
:1039B00020216748FDF7DDFC80216548FDF7D9FC33
:1039C00010216348FDF7D5FC10BD10B5FFF7A8FF27
:1039D0004FF4FA70FFF756FF10BD10B54FF4805149
:1039E0005B48FDF7C6FC10BD10B5044604F00100AD
:1039F00020B108215648FDF7BAFC03E008215448DD
:103A0000FDF7B7FC04F0020028B14FF40041514823
:103A1000FDF7ADFC04E04FF400414E48FDF7A9FC72
:103A200004F0040028B14FF480714A48FDF79FFC70
:103A300004E04FF480714748FDF79BFC10BD10B5C2
:103A40004FF480414248FDF792FC4FF480414048DA
:103A5000FDF78FFC10BD10B54FF400513C48FDF749
:103A600086FC4FF400513A48FDF783FC10BD70B559
:103A7000FFF74FFF3849394800783030095C364A43
:103A8000364800782030105C41EA00213348007845
:103A90001030105C41EA00401146304A1278895CCF
:103AA00040EA01662C492D4800783830095C2A4AE2
:103AB0002A4800782830105C41EA00212748007825
:103AC0001830105C41EA0041244800780830105C4E
:103AD00041EA0065002421E005FA04F000F000400E
:103AE00028B14FF400711A48FDF743FC04E04FF48D
:103AF00000711748FDF73BFC06FA04F000F00040A7
:103B000020B140211248FDF734FC03E04021104869
:103B1000FDF72DFCFFF79FFF601CC4B2202CDBDB00
:103B2000FFF78DFF0D490978C1F10701C8B2FFF712
:103B30005BFFFFF752FF09480078401CC0B20749FD
:103B40000870082801D10020087070BD00040040F2
:103B5000000C014000080140240600206C000020F9
:103B600072B6002006E0FF21FE4A1154FE4A1154AD
:103B7000411CC8B24028F6DB62B6704710B5FFF7AB
:103B8000EFFF8621F94801F06CFAF9A1F748401CD3
:103B900001F086FAF6A1F548413001F081FA0120E2
:103BA000F2490870F548FFF768FE10BD014602298A
:103BB00009D1002004E0FF22EB4B1A54421CD0B282
:103BC0004028F8DB0CE001290AD172B6002004E09D
:103BD000FF22E44B1A54421CD0B24028F8DB62B6F4
:103BE000704772B6002005E0DF49095CDD4A1154D8
:103BF000411CC8B24028F7DB62B6704772B600209D
:103C000006E00021D74A1154D74A1154411CC8B2CA
:103C10004028F6DB62B6704770B5002805DB202827
:103C200003DA002901DB102900DB70BDC0F11F039E
:103C300058B20346C61700EB5676C6F3C70201EB2F
:103C40000213C94EF55C0346C61700EB5676F61014
:103C5000A0EBC606F4B2C4F10703DCB20123A34013
:103C60009D4301EB0213C04EF55400BFDDE72DE983
:103C7000FF4F8BB016464FF0000B0320FFF7F8FD07
:103C800006900699C81DC11700EB5171C910059126
:103C90000420FFF7EDFD03900520FFF7E9FD0290FA
:103CA000002001900398864204DBDDE902100844FD
:103CB000B04204DC4FF0FF300FB0BDE8F08F039846
:103CC000301AC6B20020079007E00198401D80B26C
:103CD00001900798401CC0B207900798B042F4DBEF
:103CE0000198801D80B201904FF0050B0C9DDDE91D
:103CF0000501C1EBC000C0B209900598401EC0B2DA
:103D000005904FF000083FE001200090002431E0D2
:103D100028190F2800DD2FE0019808FB0B0080B266
:103D200004900B9F4FF000091BE01F2F00DD1AE0ED
:103D30000498FFF79DFD824600980AEA000008906B
:103D4000089820B1281941B23846FFF765FF04985A
:103D5000401C80B2049009F101004FFA80F9781CF0
:103D600047B2D945E1DB00BF00984006000E009045
:103D7000601C44B2082CCBDB00BF05F1080045B243
:103D800008F101004FFA80F805988045BCDB01205E
:103D90000A90002431E028190F2800DD32E0019854
:103DA00008FB0B0080B204900B9F4FF000091BE052
:103DB0001F2F00DD1AE00498FFF75AFD82460A988B
:103DC0000AEA00000890089820B1281941B2384644
:103DD000FFF722FF0498401C80B2049009F1010013
:103DE0004FFA80F9781C47B2D945E1DB00BF0A9849
:103DF0004006000E0A90601C44B20998C0F1080009
:103E0000A042C8DC00BF012056E770B5064604207A
:103E1000FFF72EFD04460520FFF72AFD0546052085
:103E200070BD2DE9F04106460F461446984619E04C
:103E30002278434639463046FFF719FF401C18B92F
:103E40004FF0FF30BDE8F0812078FFF7DEFF054638
:103E5000681C10B94FF0FF30F4E7701946B2701CBF
:103E600046B2641C20780028E2D10120EAE770B550
:103E7000044600260DE02078FFF7C7FF0546681CC2
:103E800010B94FF0FF3070BD701906B2701C06B249
:103E9000641C20780028EED13046F4E72DE9F0418B
:103EA00004460F464FF00008002615E02078FFF783
:103EB000ACFF0546681C18B94FF0FF30BDE8F08133
:103EC000701906B2701C06B2641CB84500D106E039
:103ED00008F101004FFA80F820780028E6D100BFF1
:103EE0003046EBE770B506460D46002409E0214652
:103EF0003046FFF7D3FFA84201DD204670BD601CAD
:103F0000C4B2F4E710B500241D48FFF76FFCD8BB1E
:103F10001648401CFFF7ABFF1449A1F882000220AD
:103F2000FFF744FE1148007828B11648B0F90000A8
:103F3000C0F11F0004B200230C4A521C194660B2A3
:103F4000FFF76FFF0023094A413209210320FFF7E1
:103F500068FFFFF746FE0B480088401C01B2094885
:103F6000018012E02406002064060020A406002040
:103F700020202020202020200000000078000020A9
:103F80002C0700205E0200200CE00748B0F88200F9
:103F90002030814202D10020044908807821044861
:103FA000FFF719FC10BD0000A40600205E020020EF
:103FB0002C07002008B500204FF480635F4A60A101
:103FC000009000F0FAFB08B1082008BD0220102381
:103FD0005D4A5EA10090002000F041FC08B108207D
:103FE000F3E70020F1E70FB438B504460020009055
:103FF00006A800906A462046059900F000FF0020C0
:10400000009038BC5DF814FBFEB507460E46082547
:1040100030208DF8000078208DF8010000208DF808
:104020000A0010E0A80026FA00F000F00F04092CA6
:1040300002DD04F1370001E004F13000C0B2C5F147
:1040400009010DF80100281EA5F10101CDB2E9D149
:104050006946384600F0B3FAFEBDF8B507460E468D
:10406000022500208DF8020010E0A80046FA00F0BA
:1040700000F00F04092C02DD04F1370001E004F127
:104080003000C0B2C5F101010DF80100281EA5F1F4
:104090000101CDB2E9D16946384600F090FAF8BD89
:1040A00070B5044601222146002000F043F9054680
:1040B000012D01D1002070BD0E20FCE730B5034674
:1040C00002220020234CA0700FE0900043FA00F081
:1040D00000F00F01092902DD01F1370001E001F1D3
:1040E0003000C2F101041B4D2855101EA2F101043D
:1040F000E2B2EAD1174830BD30B50346082230207D
:10410000154C2070782060700020A0720FE09000A5
:1041100023FA00F000F00F01092902DD01F1370058
:1041200001E001F13000C2F109040B4D2855101EC9
:10413000A2F10104E2B2EAD1074830BD38070020FD
:104140004E6F726D616C0000380B0020496E707507
:104150007400000060020020480B002010B5F64CEF
:10416000032020616061F5A0A061F749E1614FF48F
:10417000806121620021A1626162E162EFA020669C
:10418000F24961661021A16600212167E16661673D
:10419000EFA1E01D00F084FFEEA1204600F080FFBB
:1041A0002020A07110BD2DE9F0470446894617462E
:1041B0004FF0000AE56800BFD4F81080A84503D985
:1041C000A8EB0500461E04E0A5EB0800401CA16812
:1041D0000E1AA068401BB04201D9304601E0A06829
:1041E000401B0646BE4201D2304600E03846064635
:1041F000616848193246494600F01AFFB244B1449A
:10420000BF1B3544A068A84200D10025E560002FFF
:10421000D2D15046BDE8F0872DE9F04704468946E3
:104220001546E668A068871BAF4208D961688819FF
:104230002A46494600F0FCFE7019E06010E0B846DE
:10424000616888194246494600F0F2FEA5EB07086E
:1042500009EB07014246606800F0EAFEC4F80C80F2
:10426000BDE8F08738B505460C46FF208DF8000004
:10427000BA48005D8DF80100022269462846FFF722
:1042800092FF38BD10B501460A69CB689A4204D83E
:104290008C68641EE41AA01801E0D41A601E10BDD8
:1042A0002DE9F74F8346174600BFA348007808B9A9
:1042B000FFF754FF00BF0BEB4B019F48603000EB52
:1042C000C106DDF804903569D6F80CA04FF000085F
:1042D000554515D9B068441BBC4201D2204600E0C8
:1042E00038460446706841192246484600F0A0FE50
:1042F000A044A1443F1B2544B068A84200D100253A
:10430000AAEB0504BC4201D2204600E03846044630
:104310004CB1706841192246484600F089FEA0441D
:10432000A1443F1B2544B8F1000F00D03561404641
:10433000BDE8FE8F2DE9F04104460D461646EFF329
:1043400011808046202080F3118800BF00BF3246D4
:1043500029462046FFF7A4FF074608F0FF0080F338
:10436000118800BF00BF3846BDE8F0812DE9F04755
:104370008046894616464F4608EB48016E4818307D
:1043800000EBC104D4E90301884202D1A068451EB4
:104390000EE0D4E90301884204D22069E168401AA2
:1043A000451E05E02069E168401A401EA1684518D5
:1043B000AE420CD92069711B0844206103E02069DA
:1043C000A168401A20612069A1688842F7D2D4E927
:1043D0000201451A00BFB5420ED9E268616888182B
:1043E000E1683144E16000BF17F8011B00F8011BD0
:1043F000711E0E1EF8D10EE0E268616888182A4628
:10440000394600F015FE2F440020E060761BA068BE
:10441000451E002EDFD100BFBDE8F0872DE9F74F24
:1044200083461546DDF804900BEB4B0142481830EB
:1044300000EBC104D4F810A0E668B24537D8A068F4
:10444000401E871BAF420FD3606881192E4400BF06
:1044500019F8010B01F8010B681E051EF8D170193F
:10446000E0600120BDE8FE8F5744AF422ED3A06824
:10447000A0EB0608A84508D9616888192A4649466C
:1044800000F0D6FD7019E0600FE0616888194246BF
:10449000494600F0CDFDA5EB080209EB0801606874
:1044A00000F0C6FDA5EB0800E0600120DAE7AAEB0A
:1044B0000600471EAF4209D3616888192A4649465B
:1044C00000F0B6FD7019E0600120CBE70020C9E7DD
:1044D0002DE9F047074688461646C24607EB4701D6
:1044E0001548183000EBC109D9F8140020B1012893
:1044F00011D002283BD133E04846FFF7C3FE054602
:10450000B54201D2002405E03446324651464846C1
:10451000FFF782FE2DE04846FFF7B4FE0546B542A0
:1045200001D2284600E0304604462246514648461D
:10453000FFF772FE1DE00000540B00205465726D01
:10454000696E616C00000000FC0B0020FC0F002075
:10455000525454005345474745520000630200201F
:10456000324651464846FFF71EFE044601E000244D
:1045700000BF00BF2046BDE8F0872DE9F0410446AA
:104580000D46164600BFFE48007808B9FFF7E6FD65
:1045900000BFEFF311800746202080F3118800BF91
:1045A00000BF324629462046FFF792FF8046F8B208
:1045B00080F3118800BF00BF4046BDE8F08170B5B0
:1045C00005460C46204600F057FD06463246214679
:1045D0002846FFF7D2FF70BD38B50122694600209A
:1045E000FFF7A8FE0446012C02D19DF8004001E02F
:1045F0004FF0FF34204638BD10B500BFFFF7ECFF89
:104600000028FBDB10BD70B500BFDD48007808B99D
:10461000FFF7A4FD00BFDA48056FC06EA84201D0C5
:10462000012400E00024204670BD10B5014601EBD6
:104630004104D348603000EBC402D3681069181AF3
:1046400010BD2DE9F04105460E461746984600BFBD
:10465000CB48007808B9FFF781FD00BFEFF3118167
:104660000846202181F3118800BF00BF002400BF4D
:1046700004EB4402C249603101EBC201496801B94F
:1046800004E0641CBE494969A142F1DC00BFBC4999
:104690004969A14229DD04EB4402B949603141F87E
:1046A000325004EB440201EBC2014E6004EB4402C1
:1046B000B349603101EBC2018F60002204EB440377
:1046C000AF49603101EBC3010A6104EB4403AC491B
:1046D000603101EBC301CA6004EB4402A8496031B8
:1046E00001EBC201C1F8148001E04FF0FF34C1B208
:1046F00081F3118800BF00BF2046BDE8F0812DE99D
:10470000F04105460E461746984600BF9C48007883
:1047100008B9FFF723FD00BFEFF311810846202100
:1047200081F3118800BF00BF002400BF04EB4402E6
:104730009349183101EBC201496801B904E0641CD6
:104740008F490969A142F1DC00BF8D490969A14285
:1047500029DD04EB44028A49183141F8325004EB58
:10476000440201EBC2014E6004EB4402844918315B
:1047700001EBC2018F60002204EB44038049183131
:1047800001EBC3010A6104EB44037D49183101EBDD
:10479000C301CA6004EB44027949183101EBC2013C
:1047A000C1F8148001E04FF0FF34C1B281F31188E9
:1047B00000BF00BF2046BDE8F0812DE9F047044668
:1047C0000E4617469846DDF8209000BF6C480078EA
:1047D00008B9FFF7C3FC00BF69480069A04239D996
:1047E000EFF311810846202181F3118800BF00BF3B
:1047F0000CB304EB44026249183141F8326004EB17
:10480000440201EBC2014F6004EB44025C491831E1
:1048100001EBC201C1F80880002204EB44035849AF
:10482000183101EBC3010A6104EB44035449183108
:1048300001EBC301CA6004EB44025149183101EB9A
:10484000C201C1F81490C1B281F3118800BF00BF4A
:10485000002501E04FF0FF352846BDE8F0872DE93F
:10486000F04704460E4617469846DDF8209000BFF4
:104870004348007808B9FFF771FC00BF4048406921
:10488000A04239D9EFF311810846202181F3118824
:1048900000BF00BF0CB304EB44023949603141F85A
:1048A000326004EB440201EBC2014F6004EB4402AE
:1048B0003349603101EBC201C1F80880002204EBEA
:1048C00044032F49603101EBC3010A6104EB440347
:1048D0002B49603101EBC301CA6004EB4402284953
:1048E000603101EBC201C1F81490C1B281F31188AB
:1048F00000BF00BF002501E04FF0FF352846BDE8AE
:10490000F08770B504460E4600BF1D48007808B910
:10491000FFF724FC00BF1A480069A04214D9EFF346
:1049200011810846202181F3118800BF00BF04EBEC
:1049300044021349183141F83260C1B281F3118841
:1049400000BF00BF002501E04FF0FF35284670BDD5
:1049500070B504460E4600BF0948007808B9FFF755
:10496000FDFB00BF06484069A04217D9EFF3118153
:104970000846202181F3118800BF00BF02E000003B
:10498000540B002004EB4402944941F83260C1B258
:1049900081F3118800BF00BF002501E04FF0FF3513
:1049A000284670BD70B504460E4600BF8B4860387F
:1049B000007808B9FFF7D2FB00BF8848603800696B
:1049C000A04215D9EFF311810846202181F3118807
:1049D00000BF00BF04EB44028049483901EBC2012B
:1049E0004E61C1B281F3118800BF00BF002501E014
:1049F0004FF0FF35284670BD70B504460E4600BF27
:104A000076486038007808B9FFF7A8FB00BF734804
:104A100060384069A04214D9EFF311810846202183
:104A200081F3118800BF00BF04EB44026B4901EB26
:104A3000C2014E61C1B281F3118800BF00BF0025E1
:104A400001E04FF0FF35284670BD10B5FFF786FB3B
:104A500010BD2DE9F843044600BF60486038007877
:104A600008B9FFF77BFB00BF0027FF208DF800008F
:104A7000102C31DA5A48005D8DF80100574D483D41
:104A8000EFF311808046202080F3118800BF00BF23
:104A9000287D00F00300022807D15248047002224A
:104AA00069462846FFF77FFB0FE02846FFF7EAFB41
:104AB0000646022E07D34B48047002226946284658
:104AC000FFF7AAFB01E04FF0FF3708F0FF0080F38B
:104AD000118800BF00BF01E04FF0FF373846BDE846
:104AE000F8832DE9F0470746894600BF3B48603808
:104AF000007808B9FFF732FB00BF102F68DADFF843
:104B0000DC80A8F14808484600F0B6FA0646EFF304
:104B100011808246202080F3118800BF00BF4046EC
:104B2000FFF7B0FB054698F8140000F0030020B131
:104B3000012817D0022840D12FE0301D854201D234
:104B400000240EE039464046FFF78CFB32464946CA
:104B50004046FFF728FB0446224801784046FFF70D
:104B600081FB2DE0042D02D24FF0FF3414E03946D2
:104B70004046FFF777FB281FB04201D9304600E0DE
:104B8000281F024649464046FFF70DFB04461548DC
:104B900001784046FFF766FB12E039464046FFF7D2
:104BA00061FB324649464046FFF7FDFA04460D4890
:104BB00001784046FFF756FB02E04FF0FF3400BF9C
:104BC00000BF0AF0FF0080F3118800BF00BF01E0C2
:104BD0004FF0FF342046BDE8F0870000B40B002002
:104BE000630200207302002070B504460E46A568DB
:104BF000681C6168814206D320684655681CA06025
:104C0000E068401CE060D4E9011088420DD1A26840
:104C100021682069FFF7B1FCA168884203D04FF0FA
:104C2000FF30E06001E00020A06070BD2DE9FC5F76
:104C30008046894615461E460C9CCDF804900127F7
:104C4000BB4605E00198B0FBF5F001900BF1010BBC
:104C50000198A842F6D25E4500D9B3460D9800F0FF
:104C60000100D0B9CCB10D9800F00200022803D1A8
:104C700016B93020009001E02020009009E0641E69
:104C800040460099FFF7B0FFD8F80C00002800DA82
:104C900002E00CB1A345F2D300BFD8F80C00002805
:104CA00035DB09E0012E01D9761E04E0B9FBF7FAE5
:104CB000AA4500D201E06F43F4E700BF00BFB9FB93
:104CC000F7FA0AFB1799D94810F80A104046FFF77F
:104CD0008BFFD8F80C00002800DA03E0B7FBF5F7EB
:104CE000002FECD100BF0D9800F0010078B174B135
:104CF00009E0641E20214046FFF776FFD8F80C003B
:104D0000002800DA02E00CB1A345F2D300BFBDE8F1
:104D1000FC9F2DE9FC5F06460F4692469846DDE96A
:104D20000C45002F01DA784200E0384683464FF008
:104D3000010903E09BFBFAFB09F10109D345F9DA0C
:104D4000C84500D9C14634B1002F03DB05F004008B
:104D5000042800D1641E05F0020010B1B8F1000F64
:104D600011D005F0010070B96CB108E0641E20217B
:104D70003046FFF739FFF068002800DA02E00CB196
:104D8000A145F3D300BFF068002836DB002F05DA19
:104D90007F422D213046FFF727FF07E005F0040092
:104DA000042803D12B213046FFF71EFFF0680028AE
:104DB00023DB05F00200022814D105F0010088B9B8
:104DC000B8F1000F0ED16CB108E0641E30213046FE
:104DD000FFF70AFFF068002800DA02E00CB1A145F5
:104DE000F3D300BFF068002807DB4346524639463C
:104DF0003046CDE90045FFF719FFBDE8FC9F2DE9DE
:104E0000F04F99B082460D46144603A814904020F6
:104E1000159000201690CDF860A0179000BF2E7856
:104E20006D1C06B9DDE0252E79D100274FF0010970
:104E300000BF2E78232E12D02B2E0CD02D2E02D078
:104E4000302E10D103E047F001076D1C0EE047F053
:104E500002076D1C0AE047F004076D1C06E047F0EE
:104E600008076D1C02E04FF0000900BF00BFB9F158
:104E7000000FDED14FF0000800BF2E78302E01DB8E
:104E8000392E00DD07E06D1CA6F1300008EB88012B
:104E900000EB4108F1E700BF002013902E782E2E82
:104EA00012D16D1C00BF2E78302E01DB392E00DDB3
:104EB00009E06D1CA6F13000139901EB810100EBB4
:104EC00041001390EFE700BF2E7800BF6C2E01D099
:104ED000682E02D16D1C2E7800E000E0F6E700BFDE
:104EE000702E5DD008DC252E6AD0582E35D0632E6A
:104EF00009D0642E69D113E0732E3CD0752E1DD0DD
:104F0000782E62D128E02168081D2060D1F8009039
:104F100009F0FF0B594614A8FFF766FE56E058E06B
:104F20002168081D2060D1F80090CDE900870A2291
:104F3000494614A8139BFFF7ECFE47E02168081DC3
:104F40002060D1F80090CDE900870A22494614A8D4
:104F5000139BFFF76BFE39E000BF2168081D20603E
:104F6000D1F80090CDE900871022494614A8139B80
:104F7000FFF75CFE2AE02168081D2060D1F800B030
:104F800000BF9BF800600BF1010B06B906E031464B
:104F900014A8FFF729FE17980028F2DA00BF15E0E1
:104FA0002168081D2060D1F80090002008210B46E0
:104FB0001022CDE90010494614A8FFF737FE05E09E
:104FC000252114A8FFF710FE00E000BF00BF6D1CF4
:104FD00003E0314614A8FFF707FE17980028BFF634
:104FE0001EAF00BF179800280ADD169820B103A94C
:104FF0005046169AFFF7C1FADDE9161008441790DB
:10500000179819B0BDE8F08F0FB438B5044606A85C
:1050100000906A4620460599FFF7F1FE05460020FC
:105020000090284638BC5DF814FB0000505C000876
:1050300040EA01039B0703D009E008C9121F08C01A
:10504000042AFAD203E011F8013B00F8013B521E9A
:10505000F9D27047D2B201E000F8012B491EFBD211
:1050600070470022F6E710B513460A460446194673
:10507000FFF7F0FF204610BD421C10F8011B00296D
:10508000FBD1801A704730B504460020034600E08B
:105090005B1C934203D2E05CCD5C401BF8D030BD7A
:1050A000034611F8012B00F8012B002AF9D118460C
:1050B000704700000FB400B58DB010A909900B9097
:1050C00000914FF0FF300A9000200C9005480690A8
:1050D000054807906A4609A80F9900F055F90DB0E8
:1050E0005DF814FBA5530008C35300082DE9FF5FCA
:1050F0001D464FF0FF3BD5E9014691465F464FF014
:105100000008A9697F1C01988847296A8246884758
:105110000028F6D1BAF1FF3F0CD024F4C064002E71
:1051200019DD600614D5BAF12B0F09D0BAF12D0F95
:105130000ED103E0584604B0BDE8F09F44F480640B
:10514000A9697F1C01988847761E8246002E02DDE1
:10515000BAF1300F03D0B9F1000F26D032E0A969BF
:10516000761E44F400747F1C019888478246002E06
:1051700005DDBAF1780F06D0BAF1580F03D0B9F1B6
:10518000000F10D01EE0B9F1000F02D0B9F1100FDE
:1051900018D1A969761E24F400747F1C01988847F1
:1051A0008246102002E0082000E00A20814609E043
:1051B00008FB0908A969761E44F400747F1C019855
:1051C00088478246002E05DD4946504600F0C7F864
:1051D0000028EDDAE96901988847A00502D46FF04C
:1051E0000100A8E7E00725D1600613D5600502D5C8
:1051F000C8F1000000E0404629680A1D2A600968DD
:10520000220501D5087015E0220701D5088011E0BC
:1052100008600FE02868011D29600068210502D59B
:1052200080F8008006E0210702D5A0F8008001E0A8
:10523000C0F8008038467EE72DE9FF5FD2E901A77C
:105240004FF00008916999461446DDF838B046469B
:1052500001988847054659EA0B0005D009E0A16985
:10526000761C019888470546216A28468847002809
:10527000F5D1681C03D05FEACA7005D015E04FF085
:10528000FF3004B0BDE8F09F2068011D2160D0F818
:1052900000800AE05FEACA7001D108F8015BA169E9
:1052A000761C7F1E019888470546002F1ADD681C72
:1052B00018D0B9F1000F0DD0E81705EBD0604211FE
:1052C00020F01F0059F822102A1A012090400142B4
:1052D000E0D107E0BBF1000FDCD1216A2846884706
:1052E0000028D7D0E16901988847BBF1000F07D1AA
:1052F000002E05DD5FEACA7002D1002188F8001097
:10530000A068B84203DDBBF1000F03D017B16FF006
:105310000100B6E73046B4E770B5064600F0DEFAA5
:10532000046805460A220021304600F05BF82C6034
:1053300070BD30B50B46014600202022012409E053
:1053400021FA02F59D4205D303FA02F5491B04FA3E
:1053500002F52844151EA2F10102F1DC30BD3A2805
:1053600000D2303820F02002412A01D3A2F13700C8
:10537000884201D34FF0FF307047000002681144AB
:105380001378016018467047D1600449516104499F
:10539000116200211161114600F07CB87D530008B4
:1053A00081540008426842B1016811F8013B23B101
:1053B000521EC0E90012184670470121C160881EC4
:1053C000704742685AB1C368016843B983688B4229
:1053D00005D0491E521CC0E90012002070474FF052
:1053E000FF3070472DE9F04791460F46804604464E
:1053F000002614F8015B2DB100F03EF80068405D16
:10540000C007F6D12B2D02D02D2D18D0641E4A4690
:105410003946204600F0D4F927B13968A14201D1BC
:10542000C7F8008071054FF002040BD540420028F8
:1054300003DD00F053FA0460A007BDE8F08746F4EE
:105440008066E4E70028F8DA00F048FA04606FF0BC
:105450000040F2E7064C074D06E0E06840F001032B
:1054600094E8070098471034AC42F6D3FAF742FEAE
:10547000E85C0008085D000800487047E45C00082C
:1054800010B50446FFF7F8FF0068005D00F001006A
:1054900010BD00002DE9F34F8BB04FF0000801F173
:1054A0000C000C464FF0010B46460DF1080A019026
:1054B0006269012101989047051E2DD0252D2CD021
:1054C000216A8847C0B16269012101989047216A29
:1054D00088470028F7D1411E62690198904700E093
:1054E000761CA1690B988847216A88470028F7D164
:1054F000E1690B988847DBE7A1690B988847074665
:10550000A84201D1761CD3E7E1690B9888477F1C3C
:1055100002D1B8F1000F6FD046E1002762693D4625
:105520003946019890472A2804D1626901210198DF
:1055300090470125DFF88492626901210198904724
:10554000A0F130010A290AD24F45E5DC07EB8701BB
:1055500000EB4107303FDFD445F01005ECE7E906EA
:1055600001D46FF000476C280AD04C2814D068286A
:1055700015D06A280DD074281CD07A281AD01DE0C6
:1055800062690121019890476C2802D045F004051A
:1055900014E045F002050DE045F020050AE06269DF
:1055A000012101989047682802D045F0080505E0E0
:1055B00045F400656269012101989047C4E90157EB
:1055C00065283DD019DC58287AD00CDC452837D026
:1055D00004DC252826D0412831D131E046282FD0BF
:1055E00047282CD12CE05B2877D0612828D063286D
:1055F0007CD0642823D15AE0D0E06F2848D008DC62
:1056000066281DD067281BD0692821D06E2816D1A6
:1056100027E0702845D0732868D0752847D07828AF
:105620000DD14DE0A1690B988847054625283FF428
:1056300069AFE1690B9888476D1C3FF46AAFB3E02E
:1056400023466A466FF001000B99AFF300809EE09D
:1056500045F040006060A80723464FF0000236D4B2
:105660003EE0E8077FF447AF2068011D2160006835
:10567000290501D506701BE7290701D5068017E724
:10568000A90703D5F117C0E9006111E706600FE72C
:1056900045F040006060A80723464FF0080216D48A
:1056A0001EE040F60E0125EA0100606016E045F0BC
:1056B00040006060A80723464FF00A0207D40FE0BD
:1056C00045F040006060A80708D5234610226FF01F
:1056D00001000B99AFF3008059E007E02346102248
:1056E0006FF001000B99FFF701FD50E04FF000094A
:1056F0004F464B46632802D05B2806D040E0E806C0
:1057000001D40120A06001273AE0626901210198DB
:1057100090475E2805D14FF001096269494601981A
:105720009047216939B900210A46534643F82120A0
:10573000491C0829FADBB0B3216969B9C11700EB2C
:10574000D16253110AEB830122F01F02821A012059
:105750000B68904003430B606269012101989047F8
:105760005D28E8D1B9F1000F09D00020514651F869
:105770002020D24341F82020401C0828F7DB02AB50
:10578000224600976FF001000B99FFF755FD0028A6
:105790000CDA401C08D1BBF1000F05D04FF0FF30F0
:1057A0000DB0BDE8F08FFFE74046F9E7E90701D10A
:1057B00008F1010806444FF0000B79E6CCCCCC0C84
:1057C0002DE9F05F82460078002715468B460AF1E6
:1057D0000104B946302801D09DB113E014F8010B43
:1057E0000127782803D0582801D045B10AE00DB12F
:1057F000102D07D10027102514F8010B02E0082511
:1058000000E00A250026B0460EE005FB080005FB77
:1058100006F1012701EB10461FFA80F8B6F5803F2C
:1058200000D3B94614F8010B2946FFF798FD00286C
:10583000EBDABBF1000F05D00FB1641E00E0544657
:10584000CBF80040B9F1000F06D000F047F8022174
:105850000160C81EBDE8F09F48EA0640FAE770B54F
:105860008C1810F8015B15F0070301D110F8013B0B
:105870002A1106D110F8012B03E010F8016B01F892
:10588000016B5B1EF9D12B0705D40023521E0DD4EA
:1058900001F8013BFAE710F8013BCB1A921C03E038
:1058A00013F8015B01F8015B521EF9D5A142D8D370
:1058B000002070BD0FB4084B10B504A902AA0398CC
:1058C00000F020F8044602A9002000F0BCF92046B0
:1058D00010BC5DF814FB0000475C000800487047EE
:1058E0007402002002E008C8121F08C1002AFAD181
:1058F00070477047002001E001C1121F002AFBD150
:10590000704700002DE9FF4F8BB088460546002602
:1059100006E025280BD0DDE90D1290476D1C761CA2
:1059200028780028F5D10FB03046BDE8F08F00246C
:10593000A146A2460122AE4900E0044315F8013F0A
:10594000203B02FA03F00842F7D128782A2810D029
:105950006FF02F022878A0F13001092915D809EB42
:10596000890102EB410144F0020400EB01096D1CC6
:10597000F0E758F8041B5FEA010903D544F400542A
:10598000C9F1000944F002046D1C28782E2817D1B3
:1059900015F8010F44F004042A280ED06FF02F02EE
:1059A0002878A0F1300109290AD80AEB8A0102EB14
:1059B000410100EB010A6D1CF2E758F804AB6D1CC5
:1059C00028786C280FD006DC4C2817D068280DD01A
:1059D0006A2814D104E0742810D07A280FD10DE081
:1059E00044F400140AE044F4801401E044F4401448
:1059F0006978814202D104F580146D1C6D1C2878F1
:105A0000692865D006DC00288DD0632827D064285B
:105A100006D15DE06E2808D073282AD0752877D08B
:105A2000DDE90D129047761CE0E0C4F30250022835
:105A300009D003280DD0D8F8001004280DD00E602E
:105A400008F10408D2E0D8F80010F217C1E90062AA
:105A5000F6E7D8F800100E80F2E70E70F0E718F8BD
:105A6000041B8DF8001000208DF80100EB4601208A
:105A700003E058F804BB4FF0FF3061074FF0000718
:105A800001D40AE07F1C57450DDA8742FADB1BF888
:105A900007100029F6D106E07F1C8742FCDB1BF8CB
:105AA00007100029F8D1DDE90D23A9EB0700814695
:105AB000214600F0B1F83044C61904E0DDE90D12CA
:105AC0001BF8010B90477F1EF8D22146484688E01C
:105AD00058F8040BC4F302514FF00A0B032900D10C
