:020000040800F2
:1000000058120020511C0008591C0008CD0500089A
:10001000EB050008EF050008F305000800000000EC
:10002000000000000000000000000000F7050008CC
:10003000F905000800000000FB050008FD050008A8
:100040006B1C00086B1C00086B1C00086B1C000874
:100050006B1C00086B1C00086B1C00086B1C000864
:100060006B1C00080F0600086B1C00086B1C0008C6
:100070006B1C00086B1C00086B1C00086B1C000844
:100080006B1C00086B1C00086B1C00086B1C000834
:100090006B1C00086B1C00086B1C00080543000863
:1000A0006B1C00086B1C00086B1C00086B1C000814
:1000B00065130008E11900086B1C00086B1C0008A0
:1000C0006B1C00086B1C00086B1C00086B1C0008F4
:1000D0006B1C0008B74100086B1C00086B1C000873
:1000E0001B4300086B1C00086B1C0008DFF80CD0D9
:1000F00004F0C8FB00480047910200085812002095
:1001000010B50446A64804F05EF9002862D1A5485F
:100110000078012819D101F04AF9032802D1002002
:1001200001F042F901F0ABFC032802D1002001F0FC
:10013000A9FC01F0A4FC012849D19B4890F8C20019
:10014000401C994981F8C20041E096480078022895
:1001500014D101F094FC30B90120934981F8C20018
:1001600001F090FC33E001F08AFC01282FD100203F
:1001700001F088FC01208D49087028E0894800784A
:10018000032814D101F07BFC30B9002088490870A5
:10019000022001F077FC1AE001F071FC022816D170
:1001A000002001F06FFC0120804908700FE07D48BD
:1001B000007805280BD101F0FAF810B9032001F0FE
:1001C000F3F801F05CFC10B9032001F05BFC0020A7
:1001D0007449087010BD10B50446012C11D1704847
:1001E00004F0F1F818B901206E49087004E06D4878
:1001F0000078401C6B4908704FF4FA71684804F0AD
:10020000D7F810BD10B545F2555003F093FC03200C
:1002100003F093FC40F6FF7003F092FC03F093FCB4
:1002200003F096FC10BD10B57A2002F060FA7B2036
:1002300002F05DFA7C2002F05AFA7D2002F057FAB3
:100240007E2002F054FA7F2002F051FA02F0B8FB4F
:1002500010BD10B5012001F07BFD4FF420110020EE
:1002600002F08AFA012002F093FA00BF392002F06E
:100270003EFA0028FAD0022002F08DFA002002F0A7
:1002800098FA002002F09EFA002002F0A4FA10BDB5
:100290001CB5FFF7DEFF62B601213D2002F052FBE4
:1002A0000121444802F063F94FF4E131424800680B
:1002B00003F0AEFE00F0ECF83F4800684FF47A72AD
:1002C000B0FBF2F1B1F1807F01D301201DE021F0FC
:1002D0007F40401E4FF0E022506150170F2200284F
:1002E00007DA13071D0E354B00F00F04241F1D55B0
:1002F00003E013071C0E324B1C5400BF00204FF0CC
:10030000E022906107201061002088B172B600BF22
:100310002A480C38006800F4E0602A490843001DB0
:1003200026490C390860BFF34F8F00BF00BFFEE7BE
:10033000FFF779FFFFF766FF01F054F801F076FB55
:1003400000F052FC00F078F900F0ECF9342000F0F5
:1003500077FB00F0B6FBAFF25720AFF28511002318
:100360004FF48072CDE900101749184803F080FD62
:100370004FF4FA710A4804F01BF80BE001F04EF854
:1003800000F0AAFB00F0ECFD00F0EEF801F07DFBC0
:1003900003F0D9FBF2E710B50446002010BD0000C1
:1003A0006C000020000000207800002002000020E7
:1003B00001000020000230004400002018ED00E0A1
:1003C00000E400E00000FA050008014018060020E3
:1003D00010B540F201126949694804F035F810BDC2
:1003E0002DE9F04740F201126549644804F063F8D2
:1003F00008B9BDE8F08772B6DFF8849100250024C3
:1004000004E019F804000544601C04B2FD2CF8D384
:100410005B48C0F8FD5001F0BAFC00240DE05749DC
:1004200001EB842001F0F8FC0746042F03D001F013
:10043000BAFC62B6DDE7601C04B2002CEFD0504E6F
:1004400000241DE0A046E21704EB9272921056F8C9
:1004500022104A4AA01801F0AFFD0746E11704EB4D
:100460009171891056F82110464A2244D2F8002C86
:10047000914203D001F097FC62B6BAE7201D04B2A6
:10048000B4F5807FDED901F08EFC62B600BFB0E724
:100490002DE9F0410026002540F201123749384885
:1004A00003F0D2FF364F00BF002403E0385D05445F
:1004B000601C04B2FD2CF9D33148D0F8FD00A842ED
:1004C00000D001262E48008840F20111884208D051
:1004D000FF222B4803F0CAFF40F201102849088090
:1004E0000126274890F8C200FF2804D101202449A2
:1004F00081F8C200012622488078FF280AD14021D5
:100500001F48801C03F0B9FF1FA11D48801C03F089
:10051000DFFF01261A4890F84200FF280AD1402147
:100520001748423003F0A9FF1FA11548423003F0DD
:10053000CFFF01260EB1FFF753FFBDE8F08110B5E4
:10054000014600230C4600BF002203E0A05C0344E8
:10055000501C02B2FD2AF9D3D1F8FD00984201D017
:10056000002010BD0120FCE710B51748007820B12D
:10057000002015490870FFF733FF10BD00FC00088C
:100580007800002000F00008494B59204B494E48A4
:10059000204348414F20515559204B484143482062
:1005A00020202020000000004E475559454E20567F
:1005B000414E204120353942312D383536343220F4
:1005C00020202020000000000200002000BF16486C
:1005D000006800F4E06015490843001D12490860F6
:1005E000BFF34F8F00BF00BFFEE700BFFEE700BFB5
:1005F000FEE700BFFEE770477047704710B503F095
:10060000A1FE01F0BBF90A4803F0B2FC10BD10B521
:10061000082003F023FB28B10120064908700820B8
:1006200003F02DFB10BD00000CED00E00000FA050A
:10063000180600200C00002000B587B00121080337
:1006400002F080F91020ADF804008DF807000120B9
:100650008DF8060001A9F64801F0B8FE1021F44813
:1006600001F061FFA020ADF8040001208DF8060024
:1006700018208DF8070001A9ED4801F0A7FE4020E1
:10068000ADF8040004208DF8070001A9E84801F046
:100690009DFE0820ADF814000120ADF810000220E6
:1006A000ADF80E000020ADF80C000720ADF81800E2
:1006B0000020ADF80800ADF816004FF48270ADF8D8
:1006C0000A004FF40070ADF8120002A9D94802F0F8
:1006D000C3F90021D74802F0C3FA0121D54802F03E
:1006E00060FA00BF0221D34802F0DFFA0028F9D0F7
:1006F000D04802F089FA07B000BD70B50446CE4D6F
:100700002146CC4802F07EFA00E06D1E0121C94866
:1007100002F0CBFA08B9002DF7D1C64802F074FAFE
:10072000C0B270BD1FB54FF48050ADF80C0003206F
:100730008DF80E0010208DF80F0003A9BF4801F0BE
:1007400045FE0820ADF80C0001208DF80E00482071
:100750008DF80F0003A9B64801F038FE03210020F0
:1007600001F04AFF082003F08AFA00208DF8040007
:10077000082000900C208DF8050001208DF806005F
:10078000684603F005FA09208DF8080000208DF86E
:1007900009000F208DF80A0001208DF80B0002A837
:1007A00001F06DFA1FBD10B54FF48051A34801F060
:1007B000BAFE4FF4FA7003F0EFFD4FF480519F48FA
:1007C00001F0B3FE4FF4FA7003F0E6FD10BD10B572
:1007D00004462046FFF791FF10BD10B51021944844
:1007E00001F0A1FE012003F0D7FD1021904801F097
:1007F0009CFE012003F0D0FD10218D4801F093FEF6
:10080000012003F0C9FD1021894801F08EFE4EF64B
:10081000602400E0641E4021854801F06AFE08B1B2
:10082000002CF7D10CB9FFF7BEFF3020FFF7CFFF48
:100830004EF6602400E0641E40217D4801F059FE20
:1008400008B1002CF7D10CB9FFF7ADFF10217848A3
:1008500001F069FE10BD2DE9F04107460D46164630
:100860001021734801F061FE3846FFF7B0FF804663
:10087000002405E0FF20FFF7AAFF2855601C84B282
:10088000B442F7DB10216A4801F04DFE4046BDE856
:10089000F08138B5044644F0C00001226946FFF7F4
:1008A000DAFF9DF8000038BD10B53020FFF7F1FFEA
:1008B00010BD10B53120FFF7ECFF10BD2DE9F04160
:1008C00007460D4616461021594801F02EFE3846BF
:1008D000FFF77DFF8046002404E0285DFFF777FFE7
:1008E000601C84B2B442F8DB1021514801F01BFEB9
:1008F0004046BDE8F08173B50446012201A92046B7
:10090000FFF7DCFF054628467CBD10B504460621EE
:100910000B20FFF7F0FF00210C20FFF7ECFF102168
:100920000D20FFF7E8FFB1210E20FFF7E4FF3B2188
:100930000F20FFF7E0FFF5211020FFF7DCFF8321F8
:100940001120FFF7D8FF13211220FFF7D4FF222137
:100950001320FFF7D0FFF8211420FFF7CCFF002170
:100960000A20FFF7C8FF15210846FFF7C4FF5621EC
:100970002120FFF7C0FF10212220FFF7BCFF182124
:100980000846FFF7B8FF16211920FFF7B4FF6C21C6
:100990001A20FFF7B0FF03211B20FFF7ACFF402117
:1009A0001C20FFF7A8FF91211D20FFF7A4FFE921DC
:1009B0002320FFF7A0FF2A212420FFF79CFF00211E
:1009C0002520FFF798FF1F212620FFF794FF5921CC
:1009D0002920FFF790FF81212C20FFF78CFF352184
:1009E0002D20FFF788FF09212E20FFF784FF292102
:1009F0000020FFF780FF06210220FFF77CFF042183
:100A00000720FFF778FF05210820FFF774FF00217A
:100A10000920FFF770FF30211720FFF76CFFFF213F
:100A20000620FFF768FF21463E20FFF764FF10BD58
:100A3000000801400030014040420F00000C01401E
:100A400070B50646FFF7AFFEFFF7C7FEFFF72CFFB6
:100A50000446FFF72EFF0546C020FFF756FF002093
:100A600070BD00BF011EA0F10100FBD1704770B541
:100A700004461021174801F058FD2046FFF7A7FE55
:100A800005461021134801F04EFD284670BD38B5CB
:100A9000044644F0800001226946FFF7DCFE9DF821
:100AA000000038BD10B504462046FFF7E0FF10BD3A
:100AB00070B504460D462A462146FF20FFF7CBFEBF
:100AC00070BD10B53620FFF7EDFF3420FFF7EAFFC9
:100AD00010BD00000008014010B53C48007830B15E
:100AE000012823D002284FD0032868D15DE0384880
:100AF000007850B103F046FC3649086000203449C4
:100B000008700120314908700FE003F03BFC3149C7
:100B10000968401A41F28831884206D903F032FC54
:100B20002C4908600120294908704CE03B20FFF760
:100B3000B0FE18B903202549087044E03F20FFF7B4
:100B4000A6FF254908800846008818B10846008895
:100B500040280CDD3620FFF7A5FF3A20FFF7A2FF63
:100B60003420FFF79FFF0020184908702BE01A4837
:100B700001781A48FFF79CFF02211948FFF798FFF8
:100B80000220124908701EE0012406E01348015DAE
:100B9000144803F002FA601CC4B20F480088844273
:100BA000F4DB0320094908700DE03620FFF77AFFD7
:100BB0003420FFF777FF00200449087003E000208D
:100BC0000249087000BF00BF10BD000004000020F3
:100BD0000C000020080000200E0000207C010020F6
:100BE00010000020C802002010B54FF48072F749B1
:100BF000F74803F0C3F9F748F74948600520F7497B
:100C000008704FF48070488010BD2DE9F047AEB0F9
:100C10000446884691469A46369F00202D90F0481B
:100C2000007820B10020A0702EB0BDE8F087012030
:100C3000EB490870607804280CDB2DAD6068007803
:100C4000287060684078687060688078A870606814
:100C5000C078E870A078B62879D005DC48B10128C2
:100C600008D0B52874D166E0B72872D0B828F9D179
:100C7000F6E014E100F003FF022816D1D948DA4A61
:100C8000127800EB82002D990160D7480078401C53
:100C9000D549087008460078012805DD002000F0DD
:100CA000F1FE0120D1490870F9E0CE48F038D0F8C3
:100CB000F0002D99884207D0CA48F038D0F8F400E7
:100CC0002D99884200D0EAE060680079012813D1AC
:100CD00000F06DFB01282DD1C5480068B0F5167FE6
:100CE00006D9C3480068A0F51670C149086021E024
:100CF0000020BF4908601DE06068007902280AD121
:100D000000F055FB012815D1B948006800F51670B0
:100D1000B74908600EE06068007903280AD100F046
:100D200046FB012803D0012000F03EFB02E000203A
:100D300000F03AFBB3E06078402843DA13A81BA91F
:100D4000CDE900106168081D23AB2CAA02E03AE04F
:100D5000A4E052E0A7A103F0C5FBA248F03890F848
:100D6000C2002C99884200D099E01BAB23AAAAA10B
:100D700003A803F08DFF03A803F096FBC6B231462B
:100D800003A800F059FD2BAB2CAAA5A113A803F0D2
:100D9000A9FB2C98C0EB00108000C0EB0010800075
:100DA0002B99C1EB011100EB81009149086003F020
:100DB000F0FA9E49086000F062FE042802D100208B
:100DC00000F060FE6BE06168081D23AB2CAA98A1BF
:100DD00003F088FB8348F03890F8C2002C998842D1
:100DE00000D05CE096A323AA97A17E48EE3803F0DA
:100DF0004FFF01207D49087051E01BA800906168F9
:100E0000081D23AB2CAA92A103F06CFB7548F038A7
:100E100090F8C2002C99884200D040E01BA803F053
:100E200093FCC0EB001080002C909DF88C003128C2
:100E300006D16F4800682C9908446D4908600EE09F
:100E40006B492C980968884203D9002068490860DA
:100E500005E0674800682C99401A654908601EE063
:100E60006168081D23AB2CAA71A103F03BFB5D4810
:100E7000F03890F8C2002C99884200D00FE07A49EF
:100E80007A4803F095FA042000F0FCFD6CA323AA35
:100E90006DA154486E3803F0FBFE00E000BF00BFB8
:100EA0000020A0704E49087000BFBDE630B5034673
:100EB000187806284ED2DFE800F04D0C1E224103C0
:100EC000CA2A05D10120187000205870D871988066
:100ED00043E0988838B9587840EA022058709888DA
:100EE000401C988006E05878104358700220187013
:100EF0000020988031E09A71032018702DE09888C6
:100F00005C78A04203DA58785C88A04202DD0520B4
:100F1000187012E0D8791044D8719C88486802553E
:100F20009888401C988000209D884C68605598885F
:100F30005C78A04201D1042018700EE005201870E2
:100F4000D879904205D158784870987988700020F7
:100F500030BD02E00520187000BF00BFFF20F7E79A
:100F60001CB501A91A4803F02DF880B99DF804209A
:100F700019491A48FFF79AFF48B90120009017480D
:100F80004088031F002211461348FFF73EFE1CBD98
:100F900030B503461878062817D2DFE800F0940C25
:100FA00012698803CA2A05D10120187000205870E0
:100FB000D87198808AE05A700220187000209880BA
:100FC00084E09A710320187080E07CE0C801002062
:100FD000C8020020E4020020D802002012000020F5
:100FE0001A000020680100200100002002000020FB
:100FF00020000020253032642C255B5E2C090A0D70
:101000005D2C255B5E2C090A0D5D2C255B5E2C0991
:101010000A0D235D000000002573202573000000E9
:10102000253032643A253032640000002800002068
:10103000253032642C255B5E2C090A0D5D00000012
:1010400020202020200000002573257300000000D0
:10105000253032642C255B5E2C090A0D5D2C255B46
:101060005E2C090A0D5D0000C0D401000C060020B2
:1010700098885C78A04203DA58785C88A04202DD48
:101080000520187012E0D8791044D8719C884868FF
:1010900002559888401C988000209D884C686055B7
:1010A00098885C78A04201D1042018700EE00520D9
:1010B0001870D879904205D158784870987988701E
:1010C000002030BD02E00520187000BF00BFFF20E7
:1010D000F7E7000000BF011EA0F10100FBD170473F
:1010E00030B50246A748C06940F00100A549C86173
:1010F000A548B2FBF0F0401E8904088540F2E730B5
:101100008885002008808880012088811C200C218F
:10111000002807DA0B071D0E9C4B00F00F04241F5C
:101120001D5503E00B071C0E994B1C5400BF1C20DF
:101130000121814043099B0003F1E023C3F8001122
:1011400000BF4FF08040008840F001004FF0804128
:10115000088030BD10B50446032C2CD005DC4CB102
:10116000012C1CD0022C47D11FE0042C29D0FF2CCD
:1011700042D12CE04FF40051864801F0D6F94FF4EB
:101180000041844801F0D1F94FF48041814801F0D9
:10119000CCF94FF40041804801F0C7F92DE04FF43D
:1011A00000517C4801F0BFF927E04FF40041794835
:1011B00001F0B9F921E04FF48041764801F0B3F92C
:1011C0001BE04FF40041744801F0ADF915E04FF415
:1011D0000051704801F0A7F94FF400416D4801F04B
:1011E000A2F94FF480416B4801F09DF94FF40041A2
:1011F000694801F098F900E000BF00BF10BD08B5D4
:101200004FF40050ADF8000001208DF802001020CE
:101210008DF8030069465F4801F0D8F84FF40040AC
:10122000ADF8000069465B4801F0D0F84FF480400B
:10123000ADF800006946574801F0C8F84FF4004087
:10124000ADF800006946544801F0C0F82020ADF820
:10125000000069464F4801F0B9F80820ADF80000D9
:1012600069464C4801F0B2F81020ADF8000069461C
:10127000484801F0ABF80020FFF76CFF47480068D2
:10128000FFF72EFF08BD70B50546002417E045FAAC
:1012900004F000F0010020B108213E4801F043F9BC
:1012A00003E008213B4801F040F92021394801F0D2
:1012B0003AF92021374801F038F9601CC4B2082CF3
:1012C000E5DB1021334801F02EF90120FFF702FF82
:1012D0001021304801F029F970BD70B504460D4663
:1012E00045B1A4F120012E4A515C41F02000FFF7E6
:1012F000CAFF05E0A4F12001294A505CFFF7C3FFB3
:1013000070BD10B5274890F8810000B910BD0020CD
:10131000FFF720FF234A92F88020224B93F8823077
:101320005B1E1A4102F001011E4A92F88220521EF1
:101330001C4B985CFFF7D1FF1A4991F88200FFF728
:1013400009FF184890F88200401C164981F8820075
:10135000084690F88200042802DD012081F882000E
:1013600000BFD3E710B54FF08040008A00F00100C5
:1013700030B14FF6FE704FF080410882FFF7C1FF99
:1013800010BD00000010024040420F0018ED00E0C8
:1013900000E400E0000C014000080140440000208F
:1013A0002C500008E40300208649087070478548E7
:1013B0000078704710B500248248007888B902F0A0
:1013C000E8FF81490968441A80480068844203D9CB
:1013D00000207F49086004E07C480068001B7C49CD
:1013E000086010BD10B540217A4803F046F87AA194
:1013F000784803F04DFC0020764981F880000120F8
:1014000081F88200FFF7FBFE0120724981F881001C
:101410004FF4FA71724802F0CBFF10BD70B5694805
:10142000007830B1012858D0022875D0032874D133
:10143000AEE06B4802F0C7FF00B1C1E04FF47A7133
:10144000674802F0B5FF6248006840B90020614972
:1014500081F8800063A15F4803F01AFC3CE05C481F
:101460000068B0F5616F15D2594800683C21B0FBA7
:10147000F1F201FB120456480068B0FBF1F0B0FB3A
:10148000F1F201FB120523462A4658A1514803F008
:10149000FFFB19E04E4800683C21B0FBF1F0B0FBC7
:1014A000F1F201FB12044A480068B0FBF1F0B0FB16
:1014B000F1F01821B0FBF1F201FB120523462A4698
:1014C0004AA1444803F0E4FB424890F8800040F011
:1014D0000200404981F8800072E0414802F073FF49
:1014E00000B16DE04FF4FA713D4802F061FF4148F0
:1014F000007898B1364800683C21B0FBF1F0B0FBB1
:10150000F1F01821B0FBF1F201FB120422463AA1DE
:10151000304803F0BDFB1BE028E050E02C48006899
:101520003C21B0FBF1F0B0FBF1F201FB12042848C2
:101530000068B0FBF1F0B0FBF1F01821B0FBF1F264
:1015400001FB120523462A4628A1224803F0A0FBEE
:10155000204890F8800040F002001E4981F8800089
:1015600024480078C0432349087029E01C4802F051
:101570002AFF00B124E04FF4FA71194802F018FF75
:101580001F4890F8C2201FA1124803F081FB17E00A
:10159000134802F018FF00B112E04FF4FA7110483E
:1015A00002F006FF19A10B4803F072FB094890F8FE
:1015B000800040F00F00074981F8800000E000BF84
:1015C00000BF70BD1C00002028000020200000206B
:1015D00024000020E4030020202020200000000040
:1015E000E80400202D2D2D2D00000000253264255B
:1015F000303264002C0000202532642020000000DE
:1016000078000020696425303264000038383838AA
:101610000000000010B50346002200210AE043FA52
:1016200001F000F0010018B1F44C481C205C0243AA
:10163000481CC1B20829F2DBD043C0B210BD00BFC4
:10164000011EA0F10100FBD170471FB5EC4801F06D
:1016500063FB01A801F060FF0121022001F07FF986
:1016600040F2AF40ADF804001020ADF808000020B3
:10167000ADF80A00ADF8060001A9E14801F020FC30
:101680000121DF4801F078FF0121DD4802F04EFA28
:1016900001221146DA4801F08AFF1D208DF8000072
:1016A00001208DF801008DF802008DF803006846D6
:1016B00000F0E5FA1FBD70B506460024002500BF06
:1016C00020E000241AE0705D204100F0010020B10C
:1016D0000221CC4800F029FF03E00221C94800F0B4
:1016E00022FF0221C84800F020FF1420FFF7A7FFC7
:1016F0000221C54800F017FF601CC4B2082CE2DBD1
:10170000681CC5B2062DDCDB4021BF4800F00DFF90
:101710001420FFF794FF4021BB4800F004FF70BD88
:1017200010B5044604EB4401B84A02EB4100FFF750
:10173000C2FF10BD70B5054600241AE045FA04F05A
:1017400000F0010020B18021AF4800F0EEFE03E080
:101750008021AD4800F0E7FE0121AA4800F0E5FE37
:101760001420FFF76CFF0121A64800F0DCFE601C8E
:10177000C4B2082CE2DB4FF40071A34800F0D5FEA0
:101780001420FFF75CFF4FF400719F4800F0CBFE80
:1017900070BD08B54020ADF8000001208DF80200B2
:1017A00010208DF803006946974800F00FFE0220D4
:1017B000ADF800006946934800F008FE0220ADF83D
:1017C00000006946904800F001FE4FF48070ADF8CB
:1017D000000069468C4800F0F9FD0120ADF80000DA
:1017E0006946884800F0F2FD4FF40070ADF8000043
:1017F0006946854800F0EAFD8020ADF800006946A2
:10180000814800F0E3FD0120ADF8000069467E4804
:1018100000F0DCFD4FF480717B4800F086FE012172
:10182000794800F082FE0020FFF784FF0020FFF7D8
:1018300077FFFFF70AFF08BD70B505460C46402C40
:1018400000D370BD4021724802F017FE224629469F
:101850006F4802F0F9FD6FA16D4802F019FE0120FA
:101860006E49087000BFECE710B54FF48071664810
:1018700000F059FE0221644800F057FE1420FFF7E3
:10188000DEFE0221604800F04EFE1420FFF7D7FE76
:1018900040215D4800F049FE1420FFF7D0FE4021B2
:1018A000594800F040FE4FF48071574800F03DFE6B
:1018B00010BD2DE9F041002429E05948B0F8860018
:1018C00020445749B1F8821090FBF1F201FB12005D
:1018D000062190FBF1F05249085C2038C7B2084657
:1018E000B0F886002044062190FBF1F201FB1200C3
:1018F000C6B207EB47004B4901EB4000855D284627
:10190000FFF788FE4649CC310855601CC4B2302C24
:10191000D3DB72B640224249CC31A1F1400002F043
:1019200093FD62B6BDE8F08110B53D4890F88400A3
:1019300040B900203C4908703949C1F88800A1F835
:10194000860010BDFFF790FF35498C31364A12787A
:10195000885CFFF7EFFE34490978491CC8B2FFF7ED
:10196000DFFE31480078401C2F4908700846007897
:10197000302801DB0020087000BFE2E710B52848DE
:1019800090F8800030B900202549C1F88800A1F8FE
:10199000860010BD2248D0F88800401C2049C1F8BC
:1019A00088000846D0F888009621B0FBF1F201FBD0
:1019B000120098B91A48B0F88600401C1849A1F8DE
:1019C00086000846B0F88600B1F88210884203DB32
:1019D00000201349A1F88600FFF76BFF00BFD8E78E
:1019E00010B50121064802F090F828B1FFF79CFFDE
:1019F0000121034802F09AF810BD00008B50000846
:101A00000004004000080140000C01409450000810
:101A1000BA0000202020202020000000020000202A
:101A2000F4040020BA5100082D00002010B5402118
:101A3000794802F022FD40217748403002F01DFD38
:101A4000FF22402174488C3002F010FDFF2240211B
:101A50007148CC3002F00AFD4FF4FA716F4802F081
:101A6000A7FC01206C4981F88400002081F88000E7
:101A7000A1F88600C1F88800FFF78BFE10BD68480A
:101A80000078704766490870704770B50125634853
:101A900002F099FC00B170BD4FF4FA715F4802F09A
:101AA00087FC5F48007805286FD2DFE800F0034C20
:101AB0005A67340040215848403002F0DEFC0024D0
:101AC00007E05848005D202801D0002506E0601C92
:101AD00084B2544802F0E8FCA042F2D800BF524859
:101AE000006830B94F4940394B48403002F0F0FCB3
:101AF0000CE035B14B4940394748403002F0E8FC32
:101B000004E048494448403002F0E2FC01204249E8
:101B100081F880005AE0454802F055FC18B90020D1
:101B20003F49087052E040213B48403002F0A5FC9C
:101B30003C4940313848403002F0CAFC0120364967
:101B400081F8800042E03748423890F8C22038A13E
:101B50003148403003F09CF800202F4981F8800084
:101B600034E036480278521C35A12B48403003F04F
:101B70008FF80020284981F8800027E0334800785A
:101B800027490978884201D120E01BE00020224942
:101B900081F88000A1F8860040211F4802F06DFC0A
:101BA00040211D48403002F068FC72B640211A48BE
:101BB0008C3002F062FC40211748CC3002F05DFC12
:101BC00062B603E000201649087000BF00BF402243
:101BD00011494031104802F06EFCB0B100200E49AE
:101BE000A1F88600402240310B4802F02DFC0A4843
:101BF00002F05AFC00EB40004FF6FF7101EA400092
:101C00000549A1F88200FFF754FE054800780F4906
:101C1000087000BF3FE70000F40400200006002029
:101C20002E000020BA000020240000200C06002016
:101C300049443A2025303264202000000100002071
:101C400052454D4F54452025640000002F000020D0
:101C50000648804706480047FEE7FEE7FEE7FEE746
:101C6000FEE7FEE7FEE7FEE7FEE7FEE76F3D000862
:101C7000ED00000831490143314A1160704770B5E9
:101C8000002100230F22C47804B32D4C246804F4EF
:101C9000E064C4F5E064210AC1F10403CA40447859
:101CA00004FA03F18478144021430901254C067895
:101CB000A155047804F01F050124AC4005786D118E
:101CC000AD0005F1E025C5F8004109E0047804F015
:101CD0001F050124AC401C4D0678761145F82640BE
:101CE00070BD1A4A0A400243154B1B1F1A60704709
:101CF00039B1134A121D12680243114B1B1D1A60A1
:101D000006E00F4A121D126882430D4B1B1D1A601C
:101D10007047042808D14FF0E021096941F004011F
:101D20004FF0E022116107E04FF0E021096921F056
:101D300004014FF0E0221161704700000000FA0535
:101D40000CED00E000E400E080E100E080FFFF1F18
:101D500001460020FE4A106800F038000843106079
:101D60007047FB49096821F00801F94A11601146E2
:101D70000968014311607047F549096821F01001B5
:101D8000F34A116011460968014311607047F14838
:101D9000EF494860F04848607047EE48EC494860B9
:101DA000ED4848607047EA48006940F08000E84923
:101DB00008617047E648006940F08000E449086126
:101DC00070470420E249C96801F0010109B101200E
:101DD0000EE0DF49C96801F0040109B1022007E003
:101DE000DB49C96801F0100109B1032000E00420BB
:101DF000704700B502460423FFF7E3FF034603E004
:101E0000FFF7DFFF0346521E012B01D1002AF7D155
:101E100002B90523184600BD30B5044604254FF429
:101E20003020FFF7E6FF0546042D17D1C8480069AA
:101E300040F00200C649086108464461006940F06C
:101E4000400008614FF43020FFF7D3FF0546C0483B
:101E5000006941F6FD710840BD490861284630BD62
:101E600010B504244FF43020FFF7C3FF0446042CC0
:101E700016D1B748006940F00400B549086108462A
:101E8000006940F0400008614FF43020FFF7B1FFD7
:101E90000446AF48006941F6FB710840AC4908614F
:101EA000204610BD00B502460423FFF78AFF034613
:101EB00003E0FFF786FF0346521E012B01D1002AE3
:101EC000F7D102B90523184600BD10B504244FF41C
:101ED0003020FFF7E7FF0446042C16D19C48006928
:101EE00040F004009A4908610846006940F040004B
:101EF00008614FF43020FFF7D5FF0446944800698D
:101F000041F6FB71084092490861204610BD00204F
:101F10008F49C96901F0020109B1012000E00020E8
:101F2000704730B5A5250424FFF7F1FF00B1002567
:101F30004FF43020FFF75DFF0446042C3AD185486A
:101F400083498860844888600846006940F0200022
:101F500008610846006940F0400008614FF43020F5
:101F6000FFF747FF0446042C1BD17948006941F66E
:101F7000DF710840764908610846006940F01000AA
:101F8000086176480580E002FFF733FF0446052C20
:101F900010D06F48006941F6EF7108406C49086144
:101FA00008E0052C06D06A48006941F6EF71084048
:101FB00067490861204630BD78B506460C460425C1
:101FC00000200090E802FFF714FF0546042D24D1FD
:101FD0005F48006940F001005D4908613480E80213
:101FE000FFF707FF0546042D10D1B01C0090200C10
:101FF00000990880E802FFF7FCFE05465448006996
:1020000041F6FE7108405249086106E050480069F7
:1020100041F6FE7108404E490861284678BD70B50A
:1020200004460D460426F002FFF7E3FE0646042EA2
:1020300011D14748006940F00100454908612580F9
:10204000F002FFF7D6FE06464148006941F6FE71F0
:1020500008403F490861304670BD70B505460E46E0
:102060000424E002FFF7C5FE0446042C17D13948CA
:1020700037498860384888600846006940F0100099
:1020800008612E80E002FFF7B4FE0446052C06D05E
:102090002F48006941F6EF7108402D49086120463C
:1020A00070BD2DE9F04304464FF6FF763746B04643
:1020B000B1460425E443E6B2C4F30727C4F3074856
:1020C0004FEA1469E802FFF794FE0546042D49D152
:1020D00020481F498860204888600846006940F011
:1020E00010000861FF2E06D01C4808300680E80268
:1020F000FFF77FFE0546042D08D1FF2F06D01748B5
:102100000A300780E802FFF774FE0546042D0AD165
:10211000B8F1FF0F07D011480C30A0F80080E8029A
:10212000FFF767FE0546042D0AD1B9F1FF0F07D06E
:102130000A480E30A0F80090E802FFF75AFE054664
:10214000052D0FD00248006941F6EF71084007E005
:102150000020024023016745AB89EFCD00F8FF1F47
:10216000664908612846BDE8F08330B50546042479
:102170004FF43020FFF73DFE0446042C41D1604867
:102180005E4988605F4888600846006940F020002A
:1021900008610846006940F0400008614FF43020B3
:1021A000FFF727FE0446042C22D15448006941F66B
:1021B000DF710840514908610846006940F010008D
:1021C00008611DB100205049088002E0A5204E4959
:1021D00008804FF43020FFF70CFE0446052C10D089
:1021E0004648006941F6EF7108404449086108E03B
:1021F000052C06D04148006941F6DF7108403F498F
:102200000861204630BDF0B505460E461746042449
:102210003B483A4988603B488860E002FFF7E9FDA7
:102220000446042C19D13548006940F010003349A8
:10223000086147F0F800304328433349891C08807F
:10224000E002FFF7D6FD0446052C06D02B480069B6
:1022500041F6EF710840294908612046F0BD274842
:10226000C069800870472548006A704700202349EC
:10227000096801F0200109B1012000E00020704749
:1022800029B11E4A126902431C4B1A6104E01B4A21
:1022900012698243194B1A617047014600200129D7
:1022A00008D1164AD26902F001020AB1012008E001
:1022B000002006E0114AD2680A400AB1012000E07D
:1022C000002070470D49C860704704200B49C96859
:1022D00001F0010109B101200EE00849C96801F0CF
:1022E000040109B1022007E00449C96801F01001A6
:1022F00009B1032000E004207047000000200240E4
:1023000023016745AB89EFCD00F8FF1F10B50446E8
:10231000CC48844208D10121042000F02DFB00218B
:10232000042000F029FB46E0C748844208D101217F
:10233000082000F021FB0021082000F01DFB3AE0FE
:10234000C248844208D10121102000F015FB002171
:10235000102000F011FB2EE0BD48844208D101217D
:10236000202000F009FB0021202000F005FB22E0E6
:10237000B848844208D10121402000F0FDFA002134
:10238000402000F0F9FA16E0B348844208D1012158
:10239000802000F0F1FA0021802000F0EDFA0AE040
:1023A000AE48844207D10121801500F0E5FA0021F2
:1023B000A01500F0E1FA10BD10B50121084600F0AB
:1023C000DBFA0021012000F0D7FA10BD2DE9F04121
:1023D000024600250026002000230024002791F853
:1023E00003C00CF00F0591F803C00CF0100CBCF109
:1023F000000F03D091F802C04CEA050591F800C027
:10240000BCF1000F31D0146800202BE04FF0010C1C
:102410000CFA00F3B1F800C00CEA03069E4220D18A
:1024200083004FF00F0C0CFA03F7BC4305FA03FCD2
:102430004CEA040491F803C0BCF1280F06D14FF018
:10244000010C0CFA00FCC2F814C00AE091F803C0B9
:10245000BCF1480F05D14FF0010C0CFA00FCC2F89A
:1024600010C0401C0828D1D31460B1F800C0BCF1E2
:10247000FF0F34DD546800202EE000F1080C4FF00F
:10248000010808FA0CF3B1F800C00CEA03069E42FA
:1024900021D183004FF00F0C0CFA03F7BC4305FA6F
:1024A00003FC4CEA040491F803C0BCF1280F05D1E9
:1024B00000F1080C08FA0CF8C2F8148091F803C077
:1024C000BCF1480F07D100F1080C4FF0010808FAE1
:1024D0000CF8C2F81080401C0828CED35460BDE828
:1024E000F0814FF6FF710180022181700421C170DB
:1024F00070470246002093680B400BB1012000E0BA
:10250000002070470146886880B27047024600206C
:10251000D3680B400BB1012000E00020704701465A
:10252000C86880B2704701617047416170470AB165
:10253000016100E041617047C16070474FF4803233
:102540000A438261816182618269826970470246C1
:102550000020434B18684FF68073184040EA021081
:1025600008433F4B186070473E49C8617047F0B55B
:102570000A46002300240021002500F00046B6F1A1
:10258000004F02D1364EF16901E0354E7168C0F35B
:10259000034583B200F44016B6F5401F08D121F080
:1025A00070612F4E766826F070662D4F7E6012E0C7
:1025B00000F48016B6F5801F06D1032606FA05F44E
:1025C000A14341F0706106E0460D360103FA06F6BC
:1025D000B14341F0706122B1460D360103FA06F6AF
:1025E000314300F00046B6F1004F02D11C4EF161BC
:1025F00001E01B4E7160F0BD30B500228B071C0F4F
:102600000F2303FA04F2164B08338C1053F82430CE
:102610009343134C08348D1044F8253023468C1016
:1026200053F824308C07240F00FA04F423430C4C95
:1026300008348D1044F8253030BD0A49DC3108607B
:102640007047000000080140000C014000100140EC
:102650000014014000180140001C0140002001400E
:102660000000014000002042DF48006840F0010007
:10267000DD49086008464068DC490840DA4948609E
:1026800008460068DA490840D749086008460068EB
:1026900020F4802008600846406820F4FE0048606E
:1026A0004FF41F0088607047CF49096821F48031DA
:1026B000CD4A11601146096821F480211160B0F5FE
:1026C000803F03D0B0F5802F0ED106E0C6490968DF
:1026D00041F48031C44A116007E0C349096841F4FC
:1026E000A021C14A116000E000BF00BF704710B5D3
:1026F00001460022002300204A11012A02D1BA4CCF
:10270000236806E0022A02D1B74C236A01E0B64CE6
:10271000636A01F01F02012494401C400CB10120A7
:1027200000E0002010BD38B50020009000240025F6
:1027300000BF3120FFF7DBFF05460098401C0090EA
:102740000098B0F5A06F01D0002DF2D03120FFF736
:10275000CEFF08B1012400E00024204638BD014628
:102760000020A14A106820F0F80040EAC100106083
:102770007047A04908607047024600209A4B58688D
:1027800020F47C1042EA01031843974B58607047CD
:1027900098490866704701460020934A506820F027
:1027A00003000843506070478F48406800F00C00F9
:1027B0007047014600208C4A506820F0F000084322
:1027C0005060704701460020874A506820F4E0605E
:1027D00008435060704701460020834A506820F447
:1027E000605040EAC1005060704729B17E4A527A79
:1027F00002437D4B5A7204E07B4A527A82437A4B01
:102800005A7270477B49D8310860704701460020F2
:10281000754A506820F440400843506070470021DA
:10282000714A20321170704A82F82010012802D0BB
:1028300004280AD104E001216B4A2032117005E01E
:102840000521694A2032117000E000BF00BF7047C7
:102850006949086070476449096A0143624A116224
:102860007047654944390860704730B5002100223F
:10287000002400235C4D6D6805F00C0121B1042992
:1028800005D0082923D105E05C4D056022E05B4DB1
:1028900005601FE0544D6D6805F47012524D6D686F
:1028A00005F48034022505EB92421CB9544D554382
:1028B00005600BE04C4D6D6805F400351DB1504DC1
:1028C0005543056002E04D4D5543056002E04B4D18
:1028D000056000BF00BF444D6D6805F0F0010909B7
:1028E000484D6B5C0568DD4045603F4D6D6805F403
:1028F000E061090A434D6B5C4568DD4085603A4DF7
:102900006D6805F46051C90A3E4D6B5C4568DD4059
:10291000C560354D6D6805F44041890B3A4D6B5CDF
:10292000C568B5FBF3F5056130BD29B12E4A526982
:1029300002432D4B5A6104E02B4A526982432A4BD1
:102940005A61704729B1284A92690243264B9A611D
:1029500004E0254A92698243234B9A61704729B16A
:10296000214AD2690243204BDA6104E01E4AD2694F
:1029700082431D4BDA61704729B11B4AD26802437A
:10298000194BDA6004E0184AD2688243164BDA60C9
:10299000704729B1144A12690243134B1A6104E0CB
:1029A000114A12698243104B1A617047124940392B
:1029B000086070470F49C86470470B49C871704779
:1029C0000948406A40F080700749486270470146F4
:1029D0000020054A92680A400AB1012000E0002068
:1029E0007047014988727047001002400000FFF8EC
:1029F000FFFFF6FE000042428004424200127A00CD
:102A000000093D00300000204000002010B50446C1
:102A1000BE48844208D101218014FFF7ADFF002198
:102A2000A014FFF7A9FF16E0B948844208D101219C
:102A30000014FFF7AEFF00212014FFF7AAFF0AE001
:102A4000B448844207D10121C013FFF7A2FF00213F
:102A5000E013FFF79EFF10BD10B50022028802F4BC
:102A600041520B884C8823438C882343CC882343D2
:102A70000C8923434C8923438C892343CC892343EA
:102A80001A430280838B4FF2FF74234083830B8AA7
:102A9000038210BD2DE9F04F85B005460C464FF07E
:102AA000000902274FF000084FF0010B0026B24644
:102AB000A88B4FF240010840A88302202884B5F873
:102AC0001C90A068022801D100BF38E0A08810B98E
:102AD0004FF0010B01E04FF0020B8D48854200D111
:102AE00000E000BF6846FFF7C0FEDDF800A0E08808
:102AF000B0F5007F0AD14FEA1A2000EB80004000B9
:102B0000A168B0FBF1F0401D86B20BE04FEA4B101C
:102B1000BAFBF0F000EB80004000A168B0FBF1F0E0
:102B2000401D86B20A20B6FBF0F606F00108A6EBBF
:102B30000800C0F34F074FF6FF7000EA0828022F85
:102B400001DBFF2F02DD02274FF00008E08840EA9A
:102B5000080038432884A088A18908436188084375
:102B60002188084340F4006040EA0909A5F81C9058
:102B700005B0BDE8F08F0021018041808180C180D7
:102B8000018141818181C18107210182704700213A
:102B9000018041808180C18002218160002181818A
:102BA000704721B1028842F04002028004E00288AE
:102BB0004FF6BF731A400280704721B1828B42F4F6
:102BC0008062828304E0828B4FF6FF331A40828357
:102BD000704730B5002400230C110125A540ABB28D
:102BE0001AB185881D43858002E085889D438580D4
:102BF00030BD1AB183880B43838002E083888B4306
:102C000083807047818170470146888970474FF6FD
:102C1000FF62914204D0028842F48072028004E094
:102C200002884FF6FF631A400280704721B1828804
:102C300042F00402828004E082884FF6FB731A405F
:102C40008280704702884FF2FF731A400280028828
:102C50000A4302807047018841F480510180704727
:102C600021B1028842F40052028004E002884DF64D
:102C7000FF731A400280704702460020012901D0EC
:102C8000108B00E0908A70470146088A7047B1F5C2
:102C9000804F04D1028842F48042028004E002881E
:102CA0004BF6FF731A4002807047024600201389DA
:102CB0000B400BB1012000E000207047CA430281A5
:102CC0007047F0B50246002000240023002501F0E3
:102CD0000F070126BE40B4B20B1101269E40B3B2CD
:102CE000968806EA03051689264016B10DB1012023
:102CF00000E00020F0BD10B5002201F00F04012318
:102D0000A3409AB2D343038110BD000000300140BC
:102D100000380040003C004010B50446FE488442A4
:102D200008D10121C014FFF727FE0021E014FFF7AE
:102D300023FEC4E0B4F1804F08D101210846FFF71B
:102D400028FE00210120FFF724FEB8E0F34884426A
:102D500008D101210220FFF71CFE00210220FFF70D
:102D600018FEACE0EE48844208D101210420FFF7B0
:102D700010FE00210420FFF70CFEA0E0E948844289
:102D800008D101210820FFF704FE00210820FFF7E9
:102D900000FE94E0E448844208D101211020FFF7AE
:102DA000F8FD00211020FFF7F4FD88E0DF488442A1
:102DB00008D101212020FFF7ECFD00212020FFF7A2
:102DC000E8FD7CE0DA48844208D101214014FFF795
:102DD000D3FD00216014FFF7CFFD70E0D548844299
:102DE00009D10121C804FFF7C7FD00214FF40020DD
:102DF000FFF7C2FD63E0D048844209D101210805F4
:102E0000FFF7BAFD00214FF48010FFF7B5FD56E043
:102E1000CA48844209D101214805FFF7ADFD0021D0
:102E20004FF40010FFF7A8FD49E0C548844208D1DF
:102E300001214020FFF7ADFD00214020FFF7A9FD53
:102E40003DE0C048844208D101218020FFF7A1FD68
:102E500000218020FFF79DFD31E0BB48844208D16E
:102E600001218015FFF795FD0021A015FFF791FDC9
:102E700025E0B648844209D101210804FFF77CFD12
:102E800000214FF48030FFF777FD18E0B04884420E
:102E900009D101214804FFF76FFD00214FF40030F4
:102EA000FFF76AFD0BE0AB48844208D1012188049A
:102EB000FFF762FD00214FF48020FFF75DFD10BD9C
:102EC00000220288944B98420ED0994B98420BD026
:102ED000B0F1804F08D0914B984205D0904B98426A
:102EE00002D0904B984204D14FF68F731A404B8812
:102EF0001A438D4B984207D08C4B984204D04FF622
:102F0000FF431A40CB881A4302808B8883850B8845
:102F10000385814B98420BD0854B984208D08B4B50
:102F2000984205D08A4B984202D08A4B984201D1F0
:102F30000B7A038601238382704770B50024002238
:102F40000023058C4FF6FE7635400584028C83887D
:102F5000048B4FF68F752C40B51E2C400D882C43EA
:102F6000751E2A400D892A434D882A436A4DA8427E
:102F70000BD06F4DA84208D0744DA84205D0744DB7
:102F8000A84202D0734DA84213D14FF6F7752A40DC
:102F90004D892A434FF6FB752A408D882A434FF608
:102FA000FF652B404FF6FF552B408D892B43CD8974
:102FB0002B4383800483CD888586028470BD70B5E1
:102FC000002400220023058C4FF6EF76354005845F
:102FD000028C8388048B48F6FF752C404FF6FF4522
:102FE0002C400D884FF6FF7606EA05252C434FF658
:102FF000DF752A400D8906EA05152A434D8806EA41
:1030000005152A43444DA84202D0494DA8421DD17E
:103010004FF67F752A404D894FF6FF7606EA051573
:103020002A434FF6BF752A408D8806EA05152A43C4
:103030004FF6FF352B404FF2FF752B408D8906EA86
:1030400085052B43CD8906EA85052B4383800483C0
:10305000CD880587028470BD70B50024002200234E
:10306000058C4FF6FF6635400584028C8388848B7F
:103070004FF68F752C404FF6FC752C400D882C4375
:103080004FF6FF552A400D894FF6FF7606EA0525D3
:103090002A434D8806EA05252A431F4DA84202D03F
:1030A000234DA8421DD14FF2FF752A404D894FF69E
:1030B000FF7606EA05252A434FF6FF352A408D881C
:1030C00006EA05252A434EF6FF752B404DF6FF759F
:1030D0002B408D8906EA05152B43CD8906EA051597
:1030E0002B4383808483CD888587028470BD70B52F
:1030F000002200230024058C4EF6FF76354005841F
:10310000038C8488828B48F6FF752A404FF6FF4572
:103110002A400D8820E00000002C014000040040FF
:1031200000080040000C0040001000400014004067
:1031300000340140004C0140005001400054014067
:1031400000180040001C00400020004000400140EA
:1031500000440140004801404FF6FF7606EA05258D
:103160002A434DF6FF752B400D8906EA05352B43A2
:103170004D8806EA05352B43FA4DA84202D0FA4D98
:10318000A84208D14BF6FF752C408D894FF6FF768B
:1031900006EA85152C4384808283CD88A0F84050B0
:1031A000038470BD828B4FF2FF331A408283828B7F
:1031B0004FF6FF7303EA01231A4382837047F0B589
:1031C0000C461546002200210026078C4EF6FF7C97
:1031D00007EA0C070784828B018C4FF6FF7707EA1A
:1031E000043640F6FF473A404FF6FF7707EA0527D7
:1031F0003A434FF6FF7707EA03373A43D94FB842CD
:103200000ED0D94FB8420BD0B0F1804F08D0D74F75
:10321000B84205D0D64FB84202D0D64FB84206D1F8
:103220004DF6FF77394046F48057394305E047F6BD
:10323000FF57394044F48057394382830184F0BDFD
:10324000828B4FF6F3731A408283828B0A43828308
:103250007047F0B50C461546002200210026078C69
:103260004FF6FF6C07EA0C070784828B018C4FF640
:10327000FF7707EA04264FF60C773A404FF6FF77C0
:1032800007EA03172F433A43B64FB8420ED0B64F62
:10329000B8420BD0B0F1804F08D0B44FB84205D03F
:1032A000B34FB84202D0B34FB84206D14FF6FF57E2
:1032B000394046F48077394305E04FF2FF573940F3
:1032C00044F48077394382830184F0BD028B4FF24E
:1032D000FF331A400283028B4FF6FF7303EA012388
:1032E0001A4302837047F0B50C46154600220021B0
:1032F0000026078C4FF6EF7C07EA0C070784028B49
:10330000018C4FF6FF7707EA041640F6FF473A4074
:103310004FF6FF7707EA03373A434FF6FF7707EA9E
:1033200005273A438F4FB8420ED08F4FB8420BD08B
:10333000B0F1804F08D08D4FB84205D08C4FB842C5
:1033400002D08C4FB84206D14FF6DF77394046F0B5
:103350001007394305E04FF65F77394044F0100716
:10336000394302830184F0BD028B4FF6F3731A4098
:103370000283028B0A4302837047F0B50C46154660
:1033800000220021068C4FF6FE773E400684028B19
:10339000018C4FF60C7632407E1C06EA03162E4353
:1033A0003243704EB0420ED06F4EB0420BD0B0F1EF
:1033B000804F08D06D4EB04205D06D4EB04202D065
:1033C0006C4EB04206D14FF6FD76314044F0010616
:1033D000314305E04FF6F576314044F001063143C4
:1033E00002830184F0BD70B505460C465D488542F8
:1033F0000ED05D4885420BD0B5F1804F08D05B48B8
:10340000854205D05A48854202D05A48854200D1AB
:1034100000E000BF208850B92389A288618828462F
:10342000FFF7ABFFE1882846FFF79EFF25E02088E5
:1034300004280AD12389A28861882846FFF753FF10
:10344000E1882846FFF742FF17E0208808280AD1C4
:103450002389A28861882846FFF7FBFEE188284679
:10346000FFF7EEFE09E02389A28861882846FFF76E
:10347000A6FEE1882846FFF795FE70BD2DE9F041D4
:1034800005460C4600260127608808B9022600E0A0
:103490000026A088012801D1022700E0012720880A
:1034A000A0B92389A28861882846FFF766FFE188D2
:1034B0002846FFF759FF23893A4631462846FFF749
:1034C00012FFE1882846FFF701FF13E02389A28855
:1034D00061882846FFF707FFE1882846FFF7F6FED8
:1034E00023893A4631462846FFF747FFE1882846B8
:1034F000FFF73AFFBDE8F0810A884B881A438B88B2
:103500001A43CB881A430B891A434B891A438B8978
:103510001A43A0F8442070474FF6FF7181800021C4
:103520000180C1804180017270470021018041808B
:103530008180C180018141818181C18170470021E9
:1035400001804180012181800021C180018170477B
:103550000021018041808180C18001814181818180
:1035600070470000002C014000340140000400407E
:1035700000080040000C004021B1028842F0010226
:10358000028004E002884FF6FE731A400280704702
:1035900031B1B0F8442042F40042A0F8442005E0E4
:1035A000B0F84420C2F30E02A0F8442070471AB1CC
:1035B00083890B43838102E083898B438381704736
:1035C0008182704741EA0203A0F8483070471AB17F
:1035D00083890B43838102E083898B438381704716
:1035E00001894FF6F8721140018170470A460021A7
:1035F00001894FF68F73194011430181704730B52F
:1036000004460D4629462046FFF7F0FF208940F08A
:103610000700208130BD2DE9F04104460D461646D5
:103620001F46602D06D13B46012231462046FFF75A
:103630005AFE05E03B46012231462046FFF79DFE3B
:1036400029462046FFF7D2FF208940F0070020815D
:10365000BDE8F08130B50C4600210189C9B24FF6B2
:10366000FF7505EA0325154325432943018130BD34
:103670002DE9F04105460E4617469846002443467C
:103680003A4631462846FFF7E5FF2C894FF6F87099
:10369000044044F007044FF68F70044044F0700477
:1036A0002C81BDE8F081F0B504460D4616461F4654
:1036B0003B46324629462046FFF7CCFF208940F49E
:1036C00080402081F0BD0185828270470A4600213A
:1036D00001884FF68F731940114301807047F0B590
:1036E0000C4615461E460021002200230189028B4C
:1036F000038C4FF6F877394021434FF6FC473A40A8
:1037000040F201173A434FF6DD773B404FF6FF7723
:1037100007EA06172F433B43018102830384F0BD70
:103720000A460021018B4FF68F7319401143018324
:1037300070470A460021018B48F6FF7319404FF687
:10374000FF7303EA02231943018370470A460021ED
:10375000818B4FF68F7319401143818370470A465E
:103760000021818B48F6FF7319404FF6FF7303EA7F
:10377000022319438183704721B1028842F08002FD
:10378000028004E002884FF67F731A40028070477F
:1037900021B1828842F00402828004E082884FF6E0
:1037A000FB731A408280704721B1828842F0080280
:1037B000828004E082884FF6F7731A408280704757
:1037C00021B1828842F00102828004E082884FF6B3
:1037D000FE731A40828070470A460021018B4FF623
:1037E000F77319401143018370470A460021018B8A
:1037F0004FF2FF7319404FF6FF7303EA0223194398
:10380000018370470A460021818B4FF6F7731940F8
:103810001143818370470A460021818B4FF2FF7369
:1038200019404FF6FF7303EA02231943818370475F
:103830000A460021018B4FF6FB73194011430183A7
:1038400070470A460021018B4FF6FF3319404FF6AF
:10385000FF7303EA02231943018370470A460021DC
:10386000818B4FF6FB7319401143818370470A46E1
:103870000021818B4FF6FF3319404FF6FF7303EAA7
:1038800002231943818370470A460021018B4FF6BA
:103890007F7319401143018370470A460021018B51
:1038A000C1F30E014FF6FF7303EA022319430183AC
:1038B00070470A460021818B4FF67F7319401143F0
:1038C000818370470A460021818BC1F30E014FF6B8
:1038D000FF7303EA02231943818370470A460021DC
:1038E000018C4FF6FD7319401143018470470A465D
:1038F0000021018C4FF6F773194011430184704782
:103900000A460021018C4FF6DF7319404FF6FF7312
:1039100003EA02131943018470470A460021018C0F
:103920004FF67F7319404FF6FF7303EA02131943F2
:10393000018470470A460021018C4FF6FF5319405D
:103940004FF6FF7303EA02231943018470470A46C6
:103950000021018C4FF2FF7319404FF6FF7303EA09
:1039600002231943018470470A460021018C4DF659
:10397000FF7319404FF6FF7303EA023319430184C2
:10398000704730B5002301248C40A3B2048C9C43C3
:103990000484048C02FA01F5ADB22C43048430BDDA
:1039A00030B5002304248C40A3B2048C9C430484CF
:1039B000048C02FA01F5ADB22C43048430BD70B51D
:1039C0000346002000241846183001258D40ACB273
:1039D0001D8CA5431D8409B1082909D100EB6100A4
:1039E000056825F0700505600568154305600EE063
:1039F0000D1FC5F34E052844056825F4E045056014
:103A000005684FF6FF7606EA02263543056070BD6D
:103A100021B1028842F00202028004E002884FF6DF
:103A2000FD731A400280704721B1028842F00402FF
:103A3000028004E002884FF6FB731A400280704750
:103A400021B1828842F08002828004E082884FF6B1
:103A50007F731A408280704702884FF6F7731A40CE
:103A6000028002880A430280704782884FF68F7373
:103A70001A40828082880A438280704702894FF60A
:103A8000F8731A40028102890A4302817047028951
:103A90004FF67F731A40028102890A430281704700
:103AA00081847047818570478186704701877047A0
:103AB00081877047A0F84010704702884FF6FF4397
:103AC0001A40028002880A43028070470146888EAD
:103AD00070470146088F70470146888F704701463E
:103AE000B1F8400070470146888C70470146088D48
:103AF000704702460020138A0B400BB1012000E002
:103B000000207047CA430282704730B50246002049
:103B100000230024158A05EA0103958905EA0104BA
:103B200013B10CB1012000E0002030BDCA43028275
:103B3000704700000E49086070470D4948607047A3
:103B40000B49886070474AF6AA2009490860704707
:103B50004CF6CC4006490860704701460020044AF4
:103B6000D2680A400AB1012000E00020704700003E
:103B700000300040002044490860091D0860091D0C
:103B80000860091D086041483F49143108607047CA
:103B900000213D498279002A3AD00A46126803681A
:103BA0009A430B461A600A1D126803689A430B1D5C
:103BB0001A60027911440A6803681A430A60324A9B
:103BC0000832126803689A432F4B08331A601A1D93
:103BD000126803689A432C4B0C331A604279102AFE
:103BE0000ED11A1F126803681A43274B08331A6054
:103BF0001A1D126803681A43234B0C331A600DE038
:103C00002149427911440A6803681A430A6005E0B1
:103C1000027911440A6803689A430A6070470021D8
:103C2000016001710C2141710021817170471649B9
:103C3000103109680143144A10321160704701467F
:103C40000020114A143212680A400AB1012000E033
:103C5000002070470C49143108607047014600206D
:103C60000022094B1B6803EA0102074B14331B684F
:103C70000B4013B10AB1012000E000207047024957
:103C8000143108607047000000040140FFFF0F007E
:103C90000CB50020019000906C48006840F4803022
:103CA0006A49086000BF6948006800F4003000906D
:103CB0000198401C0190009818B90198B0F5A06FC8
:103CC000F1D16248006800F4003010B1012000908A
:103CD00001E0002000900098012843D15C48006872
:103CE00040F010005A4908600846006820F00300C0
:103CF00008600846006840F00100086053484068CA
:103D0000524948600846406848600846406840F4A8
:103D1000806048600846406820F47C10486008468F
:103D2000406840F4881048600846006840F08070A1
:103D3000086000BF4548006800F000700028F9D016
:103D40004248406820F00300404948600846406807
:103D500040F00200486000BF3C48406800F00C00A2
:103D60000828F9D10CBD10B5FFF792FF10BD10B5B2
:103D70003648006840F00100344908600846406851
:103D800034490840314948600846006832490840D3
:103D90002E4908600846006820F480200860084624
:103DA000406820F4FE0048604FF41F008860FFF771
:103DB000DAFF4FF000602949086010BD10B50021FE
:103DC00000200022214B5B6803F00C0121B1042983
:103DD00006D0082928D107E0214B224C236027E098
:103DE0001F4B204C236023E0184B5B6803F47010DA
:103DF000164B5B6803F48032022303EB904022B938
:103E0000194B4343174C23600DE0104B5B6803F4E0
:103E1000003323B1144B4343124C236003E0104B97
:103E20004343104C236003E00D4B0E4C236000BF56
:103E300000BF064B5B68C3F303130C4CE15C094BFA
:103E40001B68CB40074C236010BD000000100240EF
:103E5000002002400000FFF8FFFFF6FE08ED00E042
:103E600000127A004400002000093D0048000020B4
:103E70002DE9F84F04460D4616469846DDE90A9AA4
:103E80002560A680B8F1000F01D0012000E00020DD
:103E9000A071C4F80890C4F80CA000206075A07947
:103EA00008B1282700E048276420E0824FF4FA6038
:103EB0002083ADF800608DF8037001208DF80200BA
:103EC00069462846FEF782FABDE8F88FC182028370
:103ED000704770B50446A1882068FEF70AFB0546C6
:103EE00000F050FA0646607D80B9A079A84208D15A
:103EF000012060752661A06840B10020A168884754
:103F000004E0E06810B10020E1688847607D012886
:103F100024D1A079A8420CD1218B20690844B04259
:103F20001CD2A06810B10220A168884702206075E9
:103F300014E0A079A8420FD0E18A20690844B04279
:103F400007D2A06810B10120A168884702206075DF
:103F500004E00020607501E000206075607D0228AB
:103F600004D1A079A84201D000206075257570BDEC
:103F700010B504462046FFF7ACFF10BD034613B151
:103F800009B1022A02D24FF0FF307047D9600020F9
:103F9000186058609A6000BFF7E710B502460B46FC
:103FA0001168491C9068884200D8002150688842F6
:103FB00002D14FF0FF3010BD1468D0680355116076
:103FC0000020F8E7024650681368984202D14FF08B
:103FD000FF3070475368D068C05C08705068401C60
:103FE000506050689368984201D3002050600020D0
:103FF000EFE7014608684A68904203D308684A68B8
:10400000801A704788684A68801A0A681044F8E77E
:1040100070B504460D468148806940F480407F4970
:1040200088617F48006820F47F607D490860084609
:10403000006840F0B00008600846006840F4806006
:10404000086004EBC40000EB0410A900B0FBF1F021
:104050006421B0FBF1F104EBC40000EB0410AA00F2
:10406000B0FBF2F004EBC40202EB0412AB00B2FBB3
:10407000F3F26423B2FBF3F202EBC20303EB02128E
:10408000A0EB8200322202EB00106422B0FBF2F0BF
:1040900061F31F10634908800020091D0880091D75
:1040A0000880081F0088091F088000205D490C3126
:1040B00008805C48001D008840F008005949091D2F
:1040C00008800846008840F0800008800A1556499C
:1040D0005648FFF753FF25200921002807DA0A0771
:1040E000160E534A00F00F031B1FD65403E00A07B5
:1040F000130E504A135400BF252000F01F02012167
:1041000091404209920002F1E022C2F8001100BF82
:104110004448001D008840F400504249091D0880B1
:1041200070BD3E48806920F480403C4988613C482D
:10413000006820F47F603A490860704770B5044613
:104140003D4D00BF3948FFF754FF38498968491E83
:10415000884203D3281EA5F10105F3D12146334837
:10416000FFF71BFF2F48001D008800F0800080280B
:1041700007D02C48001D008840F080002949091D07
:104180000880204670BD10B5044603E014F8010B0A
:10419000FFF7D4FF20780028F8D110BD00BF2148D8
:1041A0000838008800F020000028F8D01D48001FC3
:1041B0000088C0B2704708B5FF2000901948083841
:1041C000008800F0280070B11648001F0088C0B2B7
:1041D00000909DF800101948FFF7DFFE1748FFF721
:1041E00008FF164880680F480838008800F08000F3
:1041F00090B169460D48FFF7E5FE28B99DF800002B
:104200000849091F088007E00648001D008820F0C3
:1042100080000449091D088008BD0000001002400C
:104220000408014008380140480A0020480E0020D8
:1042300018ED00E000E400E080969800380A0020C5
:1042400010B53B48806820F00F0039498860084667
:10425000C06820F0F0013648C160006920F4706148
:1042600033480161406920F47041314841610015D3
:10427000304908602E4800692D4908612D481438DE
:10428000006820F480602B4914390860081D00681C
:1042900020F48060091D0860081F006840F48060F9
:1042A000091F0860081D006840F48060091D08604F
:1042B000081D006840F48060091D0860081D006842
:1042C00040F48060091D086028200B21002807DACF
:1042D0000A07140E184A00F00F031B1FD45403E002
:1042E0000A07130E154A135400BF282000F01F02BE
:1042F000012191404209920002F1E022C2F800112E
:1043000000BF10BD10B54FF48070FFF7A7FC18B1C7
:104310004FF48070FFF7B3FC10BD10B54FF4806010
:10432000FFF79CFC18B14FF48060FFF7A8FC10BDAC
:10433000000001401404014018ED00E000E400E03A
:104340007047704710B53D480068401C3B49086005
:104350003B4802684068521C40F1000038490A603E
:1043600048603648006840F2E731B0FBF1F201FBEB
:10437000120030B933480068401C32490860FDF72C
:1043800019F810BD2D48006870472D490868496824
:1043900070472C480068704700B50146FFF7F2FFF0
:1043A000024600BFFFF7EEFF801A8842FAD300BD35
:1043B00000B50246FFF7E6FF10605160D2E9000346
:1043C0001844906000BD10B50146D1E900040219FF
:1043D0008868904201D0002010BDFFF7D3FF02464D
:1043E000D1E90004204488600868904202D8086837
:1043F000131A03E00868C0F1FF3083184868984238
:1044000001D80020E8E74868C01AE5E700B5024691
:10441000FFF7B8FF03460EE0FFF7B4FF01469942ED
:1044200003D3C81A904206D306E0C3F1FF30084414
:10443000904200D300E0EFE700BF00BD5C00002029
:10444000600000205800002040EA01039B0703D0D1
:1044500009E008C9121F08C0042AFAD203E011F8C3
:10446000013B00F8013B521EF9D27047D2B201E085
:1044700000F8012B491EFBD270470022F6E710B569
:1044800013460A4604461946FFF7F0FF204610BDC2
:10449000421E12F8013F002BFBD111F8013B02F83C
:1044A000013B002BF9D17047421C10F8011B002979
:1044B000FBD1801A704730B504460020034600E067
:1044C0005B1C934203D2E05CCD5C401BF8D030BD56
:1044D000034611F8012B00F8012B002AF9D11846E8
:1044E000704700000FB400B58DB010A909900B9073
:1044F00000914FF0FF300A9000200C900548069084
:10450000054807906A4609A80F9900F055F90DB0C3
:104510005DF814FBD5470008F34700082DE9FF5F5D
:104520001D464FF0FF3BD5E9014691465F464FF0EF
:104530000008A9697F1C01988847296A8246884734
:104540000028F6D1BAF1FF3F0CD024F4C064002E4D
:1045500019DD600614D5BAF12B0F09D0BAF12D0F71
:104560000ED103E0584604B0BDE8F09F44F48064E7
:10457000A9697F1C01988847761E8246002E02DDBD
:10458000BAF1300F03D0B9F1000F26D032E0A9699B
:10459000761E44F400747F1C019888478246002EE2
:1045A00005DDBAF1780F06D0BAF1580F03D0B9F192
:1045B000000F10D01EE0B9F1000F02D0B9F1100FBA
:1045C00018D1A969761E24F400747F1C01988847CD
:1045D0008246102002E0082000E00A20814609E01F
:1045E00008FB0908A969761E44F400747F1C019831
:1045F00088478246002E05DD4946504600F0C7F840
:104600000028EDDAE96901988847A00502D46FF027
:104610000100A8E7E00725D1600613D5600502D5A3
:10462000C8F1000000E0404629680A1D2A600968B8
:10463000220501D5087015E0220701D5088011E098
:1046400008600FE02868011D29600068210502D577
:1046500080F8008006E0210702D5A0F8008001E084
:10466000C0F8008038467EE72DE9FF5FD2E901A758
:104670004FF00008916999461446DDF838B0464677
:1046800001988847054659EA0B0005D009E0A16961
:10469000761C019888470546216A284688470028E5
:1046A000F5D1681C03D05FEACA7005D015E04FF061
:1046B000FF3004B0BDE8F09F2068011D2160D0F8F4
:1046C00000800AE05FEACA7001D108F8015BA169C5
:1046D000761C7F1E019888470546002F1ADD681C4E
:1046E00018D0B9F1000F0DD0E81705EBD0604211DA
:1046F00020F01F0059F822102A1A01209040014290
:10470000E0D107E0BBF1000FDCD1216A28468847E1
:104710000028D7D0E16901988847BBF1000F07D185
:10472000002E05DD5FEACA7002D1002188F8001072
:10473000A068B84203DDBBF1000F03D017B16FF0E2
:104740000100B6E73046B4E770B5064600F0B4FAAB
:10475000046805460A220021304600F05BF82C6010
:1047600070BD30B50B46014600202022012409E02F
:1047700021FA02F59D4205D303FA02F5491B04FA1A
:1047800002F52844151EA2F10102F1DC30BD3A28E1
:1047900000D2303820F02002412A01D3A2F13700A4
:1047A000884201D34FF0FF30704700000268114487
:1047B0001378016018467047D1600449516104497B
:1047C000116200211161114600F07CB8AD4700086C
:1047D000B1480008426842B1016811F8013B23B1B9
:1047E000521EC0E90012184670470121C160881EA0
:1047F000704742685AB1C368016843B983688B4205
:1048000005D0491E521CC0E90012002070474FF02D
:10481000FF3070472DE9F04791460F468046044629
:10482000002614F8015B2DB100F03EF80068405DF1
:10483000C007F6D12B2D02D02D2D18D0641E4A466C
:104840003946204600F0D4F927B13968A14201D198
:10485000C7F8008071054FF002040BD540420028D4
:1048600003DD00F029FA0460A007BDE8F08746F4F4
:104870008066E4E70028F8DA00F01EFA04606FF0C2
:104880000040F2E7064C074D06E0E06840F0010307
:1048900094E8070098471034AC42F6D3FBF72AFCA3
:1048A00088540008A8540008004870478454000841
:1048B00010B50446FFF7F8FF0068005D00F0010046
:1048C00010BD00002DE9F34F8BB04FF0000801F14F
:1048D0000C000C464FF0010B46460DF1080A019002
:1048E0006269012101989047051E2DD0252D2CD0FD
:1048F000216A8847C0B16269012101989047216A05
:1049000088470028F7D1411E62690198904700E06E
:10491000761CA1690B988847216A88470028F7D13F
:10492000E1690B988847DBE7A1690B988847074640
:10493000A84201D1761CD3E7E1690B9888477F1C18
:1049400002D1B8F1000F6FD046E1002762693D4601
:104950003946019890472A2804D1626901210198BB
:1049600090470125DFF88492626901210198904700
:10497000A0F130010A290AD24F45E5DC07EB870197
:1049800000EB4107303FDFD445F01005ECE7E906C6
:1049900001D46FF000476C280AD04C2814D0682846
:1049A00015D06A280DD074281CD07A281AD01DE0A2
:1049B00062690121019890476C2802D045F00405F6
:1049C00014E045F002050DE045F020050AE06269BB
:1049D000012101989047682802D045F0080505E0BC
:1049E00045F400656269012101989047C4E90157C7
:1049F00065283DD019DC58287AD00CDC452837D002
:104A000004DC252826D0412831D131E046282FD09A
:104A100047282CD12CE05B2877D0612828D0632848
:104A20007CD0642823D15AE0D0E06F2848D008DC3D
:104A300066281DD067281BD0692821D06E2816D182
:104A400027E0702845D0732868D0752847D078288B
:104A50000DD14DE0A1690B988847054625283FF404
:104A600069AFE1690B9888476D1C3FF46AAFB3E00A
:104A700023466A466FF001000B99AFF300809EE079
:104A800045F040006060A80723464FF0000236D48E
:104A90003EE0E8077FF447AF2068011D2160006811
:104AA000290501D506701BE7290701D5068017E700
:104AB000A90703D5F117C0E9006111E706600FE708
:104AC00045F040006060A80723464FF0080216D466
:104AD0001EE040F60E0125EA0100606016E045F098
:104AE00040006060A80723464FF00A0207D40FE099
:104AF00045F040006060A80708D5234610226FF0FB
:104B000001000B99AFF3008059E007E02346102223
:104B10006FF001000B99FFF701FD50E04FF0000925
:104B20004F464B46632802D05B2806D040E0E8069B
:104B300001D40120A06001273AE0626901210198B7
:104B400090475E2805D14FF00109626949460198F6
:104B50009047216939B900210A46534643F821207C
:104B6000491C0829FADBB0B3216969B9C11700EB08
:104B7000D16253110AEB830122F01F02821A012035
:104B80000B68904003430B606269012101989047D4
:104B90005D28E8D1B9F1000F09D00020514651F845
:104BA0002020D24341F82020401C0828F7DB02AB2C
:104BB000224600976FF001000B99FFF755FD002882
:104BC0000CDA401C08D1BBF1000F05D04FF0FF30CC
:104BD0000DB0BDE8F08FFFE74046F9E7E90701D1E6
:104BE00008F1010806444FF0000B79E6CCCCCC0C60
:104BF0002DE9F05F82460078002715468B460AF1C2
:104C00000104B946302801D09DB113E014F8010B1E
:104C10000127782803D0582801D045B10AE00DB10A
:104C2000102D07D10027102514F8010B02E00825EC
:104C300000E00A250026B0460EE005FB080005FB53
:104C400006F1012701EB10461FFA80F8B6F5803F08
:104C500000D3B94614F8010B2946FFF798FD002848
:104C6000EBDABBF1000F05D00FB1641E00E0544633
:104C7000CBF80040B9F1000F06D000F01DF802217A
:104C80000160C81EBDE8F09F48EA0640FAE7000050
:104C90000FB4084B10B504A902AA039800F020F83D
:104CA000044602A9002000F0BCF9204610BC5DF8C3
:104CB00014FB0000235000080048704768000020E3
:104CC00002E008C8121F08C1002AFAD170477047D5
:104CD000002001E001C1121F002AFBD17047000033
:104CE0002DE9FF4F8BB088460546002606E02528B3
:104CF0000BD0DDE90D1290476D1C761C287800283A
:104D0000F5D10FB03046BDE8F08F0024A146A24691
:104D10000122AE4900E0044315F8013F203B02FAAE
:104D200003F00842F7D128782A2810D06FF02F021C
:104D30002878A0F13001092915D809EB890102EB87
:104D4000410144F0020400EB01096D1CF0E758F842
:104D5000041B5FEA010903D544F40054C9F10009BA
:104D600044F002046D1C28782E2817D115F8010F85
:104D700044F004042A280ED06FF02F022878A0F106
:104D8000300109290AD80AEB8A0102EB410100EB44
:104D9000010A6D1CF2E758F804AB6D1C28786C28EA
:104DA0000FD006DC4C2817D068280DD06A2814D103
:104DB00004E0742810D07A280FD10DE044F40014D8
:104DC0000AE044F4801401E044F44014697881421C
:104DD00002D104F580146D1C6D1C2878692865D0FB
:104DE00006DC00288DD0632827D0642806D15DE03A
:104DF0006E2808D073282AD0752877D0DDE90D12E7
:104E00009047761CE0E0C4F30250022809D0032842
:104E10000DD0D8F8001004280DD00E6008F1040859
:104E2000D2E0D8F80010F217C1E90062F6E7D8F82E
:104E300000100E80F2E70E70F0E718F8041B8DF8F2
:104E4000001000208DF80100EB46012003E058F827
:104E500004BB4FF0FF3061074FF0000701D40AE0B8
:104E60007F1C57450DDA8742FADB1BF80710002933
:104E7000F6D106E07F1C8742FCDB1BF807100029F7
:104E8000F8D1DDE90D23A9EB07008146214600F0AA
:104E9000B1F83044C61904E0DDE90D121BF8010B2E
:104EA00090477F1EF8D22146484688E058F8040B08
:104EB000C4F302514FF00A0B032900D100B20429B8
:104EC00000D140B2002802DA40422D2102E0210543
:104ED00005D52B218DF82410012104E006E0E1071F
:104EE00010D02021F6E708AF089113E058F8040B22
:104EF000C4F302514FF00A0B032900D180B20429F8
:104F000000D1C0B20021EEE75946FFF72AFC30314C
:104F100007F8011D0028F7D1ADEB070000F1200BC9
:104F2000600702D524F4803401E04FF0010ADA452D
:104F300002DDAAEB0B0000E00020824600EB0B0133
:104F400008980144A9EB01000A90E00306D4DDE9CA
:104F50000D2321460A9800F04DF806444FF0000951
:104F600008E009A911F80900DDE90D12904709F1DF
:104F70000109761C08998945F3DBE0030CD5DDE9CE
:104F80000D2321460A9800F035F8064404E0DDE9D7
:104F90000D1230209047761CBAF10001AAF1010AE7
:104FA000F5DC05E0DDE90D1217F8010B9047761CE2
:104FB000BBF10001ABF1010BF4DC0A982146DDE9FD
:104FC0000D2300F005F806446D1C97E60928010042
:104FD0002DE9F041044600251E461746880404D4F6
:104FE00005E039462020B0476D1C641EF9D52846DF
:104FF000BDE8F0812DE9F041044600251E469046AB
:10500000C80301D5302700E02027880404D505E037
:1050100041463846B0476D1C641EF9D52846BDE8A8
:10502000F0810A68531C0B601070704700FFFFEBA3
:10503000DBD8C9FFFFFFD5F7FE80FFFF5F099E9B0E
:10504000C9D3D719DFDBFFFFF7EBFFFDCD35BE3549
:10505000BE7917C17690E9803880353F07C1801945
:10506000FE61E0C09CFC9EFFFDFFFB40FFDF51D5D1
:105070008FC7F7F75301DFFFFF83D3D183F7D7B78C
:1050800055C3E3C3BBF3BBFBE3F7EF000402080126
:105090004010802000000000000000000000002000
:1050A00000000000000100000000000200000000FD
:1050B00000080000000000040000000000100000D4
:1050C0000000004000000000008000000000200000
:1050D00000000000010000000000020000000000CD
:1050E00008000000000004000000000010000000A4
:1050F00000004000000000008000000000200000D0
:105100000000000100000000000200000000000894
:10511000000000000004000000000010000000007B
:10512000004000000000008000000000200000009F
:105130000000010000000000020000000000080064
:10514000000000000400000000001000000000004B
:10515000400000000000800000000020000000006F
:105160000001000000000002000000000008000034
:1051700000000004000000000010000000000040DB
:10518000000000000080000000002000000000007F
:105190000100000000000200000000000800000004
:1051A00000000400000000001000000000004000AB
:1051B000000000008000000000000000000000006F
:1051C00000003D000000FFFFF8F4FFFFEB80EB80E4
:1051D000EBFFDBD580D5EDFF626408132300364971
:1051E00055220500005060000000001C2241000014
:1051F0000041221C000014083E08140008083E0864
:105200000800000506000000080808080800000360
:10521000030000000204081020003E4549513E00F2
:1052200000217F010000214345493100424151697D
:1052300046000C14247F0400725151514E001E2967
:105240004949060040474850600036494949360000
:105250003049494A3C00003636000000FFA4C4FF34
:10526000FFFFF7EBDDBEFFFF141414141400FFBEA4
:10527000DDEBF7FF20404548300046898F817E00F6
:105280003F4444443F007F49494936003E41414143
:1052900022007F4141221C007F49494949007F4843
:1052A000484800003E4149492F007F0808087F0018
:1052B00041417F4141000201417E40007F081422AC
:1052C00041007F01010101007F2010207F007F103D
:1052D00008047F003E4141413E007F48484830007D
:1052E0003E4145423D007F484C4A310031494949E1
:1052F000460040407F4040007E0101017E007C026C
:1053000001027C007E010E017E006314081463001C
:10531000700807087000434549516100FF80BEBE18
:10532000FFFFFDFBF7EFDFFFFFBEBE80FFFF10209A
:1053300040201000010101010100FFFFF8F4FFFF10
:10534000021515150F007F05090906000E11111130
:105350000200060909057F000E1515150C00083F0F
:1053600048402000182525253E007F0810100F001A
:1053700000002F0000000201015E00007F040A11FE
:10538000000000417F0100001F100C100F001F08DB
:1053900010100F000E1111110E001F14141408002C
:1053A0000814140C1F001F0810100800091515150B
:1053B0000200107E110102001E0101021F001C02EA
:1053C00001021C001E0106011E00110A040A110040
:1053D000180505051E00111315191100FBE1E0E188
:1053E000FBFFE3E3C1E3F7FFF7E3C1E3E3FFEFC351
:1053F00083C3EFFF00000000000000000000000079
:1054000000404040404040404040414141414140D7
:10541000404040404040404040404040404040408C
:10542000400502020202020202020202020202021B
:105430000220202020202020202020020202020220
:105440000202909090909090101010101010101078
:105450001010101010101010101010100202020284
:1054600002028888888888880808080808080808C8
:1054700008080808080808080808080802020202C4
:105480004000000001540008A8540008000000205B
:105490006C000000C04C0008145500086C0000208F
:1054A000EC110000D04C00080000000000000000DB
:1054B00000000000000000000000000000000000EC
:1054C00000000000000000000000000000000000DC
:1054D00000000000000000000000000001020304C2
:1054E000010203040607080902040608006CDC0236
:1054F0000000000000000000010203040607080984
:10550000000000000000000000000000000000009B
:045510000000000097
:04000005080000ED02
:00000001FF
